{
  "address": "0x1B9D88A4e0f6194715a052180bf89D43f82Be5Dd",
  "abi": [
    {
      "inputs": [
        {
          "internalType": "address",
          "name": "_treasury",
          "type": "address"
        }
      ],
      "stateMutability": "nonpayable",
      "type": "constructor"
    },
    {
      "inputs": [],
      "name": "claimRewards",
      "outputs": [],
      "stateMutability": "nonpayable",
      "type": "function"
    },
    {
      "inputs": [
        {
          "internalType": "bytes32",
          "name": "_id",
          "type": "bytes32"
        }
      ],
      "name": "clearDelegateSnapshotVoting",
      "outputs": [],
      "stateMutability": "nonpayable",
      "type": "function"
    },
    {
      "inputs": [
        {
          "internalType": "uint256",
          "name": "_value",
          "type": "uint256"
        },
        {
          "internalType": "uint256",
          "name": "_unlockTime",
          "type": "uint256"
        }
      ],
      "name": "createLock",
      "outputs": [],
      "stateMutability": "nonpayable",
      "type": "function"
    },
    {
      "inputs": [
        {
          "internalType": "uint256",
          "name": "_amount",
          "type": "uint256"
        }
      ],
      "name": "deposit",
      "outputs": [],
      "stateMutability": "nonpayable",
      "type": "function"
    },
    {
      "inputs": [
        {
          "internalType": "address",
          "name": "to",
          "type": "address"
        },
        {
          "internalType": "uint256",
          "name": "value",
          "type": "uint256"
        },
        {
          "internalType": "bytes",
          "name": "data",
          "type": "bytes"
        }
      ],
      "name": "execute",
      "outputs": [
        {
          "internalType": "bool",
          "name": "",
          "type": "bool"
        },
        {
          "internalType": "bytes",
          "name": "",
          "type": "bytes"
        }
      ],
      "stateMutability": "nonpayable",
      "type": "function"
    },
    {
      "inputs": [],
      "name": "fxs",
      "outputs": [
        {
          "internalType": "address",
          "name": "",
          "type": "address"
        }
      ],
      "stateMutability": "view",
      "type": "function"
    },
    {
      "inputs": [],
      "name": "gaugeController",
      "outputs": [
        {
          "internalType": "address",
          "name": "",
          "type": "address"
        }
      ],
      "stateMutability": "view",
      "type": "function"
    },
    {
      "inputs": [
        {
          "internalType": "uint256",
          "name": "_unlockTime",
          "type": "uint256"
        }
      ],
      "name": "increaseUnlockTime",
      "outputs": [],
      "stateMutability": "nonpayable",
      "type": "function"
    },
    {
      "inputs": [],
      "name": "policy",
      "outputs": [
        {
          "internalType": "address",
          "name": "",
          "type": "address"
        }
      ],
      "stateMutability": "view",
      "type": "function"
    },
    {
      "inputs": [
        {
          "internalType": "bytes32",
          "name": "_id",
          "type": "bytes32"
        },
        {
          "internalType": "address",
          "name": "_delegate",
          "type": "address"
        }
      ],
      "name": "setDelegateSnapshotVoting",
      "outputs": [],
      "stateMutability": "nonpayable",
      "type": "function"
    },
    {
      "inputs": [
        {
          "internalType": "address",
          "name": "_gaugeController",
          "type": "address"
        }
      ],
      "name": "setGaugeController",
      "outputs": [],
      "stateMutability": "nonpayable",
      "type": "function"
    },
    {
      "inputs": [
        {
          "internalType": "address",
          "name": "_policy",
          "type": "address"
        }
      ],
      "name": "setGovernance",
      "outputs": [],
      "stateMutability": "nonpayable",
      "type": "function"
    },
    {
      "inputs": [
        {
          "internalType": "address",
          "name": "_treasury",
          "type": "address"
        }
      ],
      "name": "setTreasury",
      "outputs": [],
      "stateMutability": "nonpayable",
      "type": "function"
    },
    {
      "inputs": [
        {
          "internalType": "address",
          "name": "_newYieldDistributor",
          "type": "address"
        }
      ],
      "name": "setYieldDistributor",
      "outputs": [],
      "stateMutability": "nonpayable",
      "type": "function"
    },
    {
      "inputs": [],
      "name": "snapshotDelegationRegistry",
      "outputs": [
        {
          "internalType": "address",
          "name": "",
          "type": "address"
        }
      ],
      "stateMutability": "view",
      "type": "function"
    },
    {
      "inputs": [],
      "name": "treasury",
      "outputs": [
        {
          "internalType": "address",
          "name": "",
          "type": "address"
        }
      ],
      "stateMutability": "view",
      "type": "function"
    },
    {
      "inputs": [],
      "name": "veFXS",
      "outputs": [
        {
          "internalType": "address",
          "name": "",
          "type": "address"
        }
      ],
      "stateMutability": "view",
      "type": "function"
    },
    {
      "inputs": [
        {
          "internalType": "address",
          "name": "_gauge",
          "type": "address"
        },
        {
          "internalType": "uint256",
          "name": "_weight",
          "type": "uint256"
        }
      ],
      "name": "voteGaugeWeight",
      "outputs": [],
      "stateMutability": "nonpayable",
      "type": "function"
    },
    {
      "inputs": [],
      "name": "withdraw",
      "outputs": [],
      "stateMutability": "nonpayable",
      "type": "function"
    },
    {
      "inputs": [],
      "name": "yieldDistributor",
      "outputs": [
        {
          "internalType": "address",
          "name": "",
          "type": "address"
        }
      ],
      "stateMutability": "view",
      "type": "function"
    }
  ],
  "transactionHash": "0x2fa1631b2a941279a5675c0f8aeb132f06086d47d37f6dd3992fa3b9db72132c",
  "args": [
    "0x873ad91fA4F2aA0d557C0919eC3F6c9D240cDd05"
  ],
  "solcInputHash": "01d785cca85a95831aee1841568ef1cf",
  "bytecode": "0x6080604052600280546001600160a01b031990811673c6764e58b36e26b08fd1d2aed4538c02171fa872179091556003805482167344ade9aa409b0c29463ff7fcf07c9d3c939166ce1790556004805490911673469788fe6e9e9681c6ebf3bf78e7fd26fc01544617905534801561007657600080fd5b506040516114bf3803806114bf833981016040819052610095916100c8565b60008054336001600160a01b031991821617909155600180549091166001600160a01b03929092169190911790556100f6565b6000602082840312156100d9578081fd5b81516001600160a01b03811681146100ef578182fd5b9392505050565b6113ba806101056000396000f3fe608060405234801561001057600080fd5b506004361061012b5760003560e01c80637c616fe6116100ad578063ab033ea911610071578063ab033ea914610202578063b52c05fe14610215578063b61d27f614610228578063b6b55f2514610249578063f0f442601461025c5761012b565b80637c616fe6146101c45780637d423446146101d75780638a6e0b8b146101df57806399eecb3b146101f2578063a38c2c3d146101fa5761012b565b80633ccfd60b116100f45780633ccfd60b146101865780635d7e9bcb1461018e578063608f37fc146101a157806361d027b3146101a95780637335c701146101b15761012b565b806291d2b8146101305780630505c8c91461014557806319ff52fd146101635780633038a60d1461016b578063372500ab1461017e575b600080fd5b61014361013e366004611069565b61026f565b005b61014d6102c4565b60405161015a9190611229565b60405180910390f35b61014d6102d3565b610143610179366004611069565b6102eb565b610143610337565b61014361047c565b61014361019c36600461108a565b610652565b61014d6106e4565b61014d6106f3565b6101436101bf36600461116d565b610702565b6101436101d2366004611155565b61075d565b61014d61085b565b6101436101ed366004611155565b610873565b61014d6108e6565b61014d6108f5565b610143610210366004611069565b610904565b6101436102233660046111b0565b610950565b61023b6102363660046110b3565b610b76565b60405161015a929190611256565b610143610257366004611155565b610c15565b61014361026a366004611069565b610cbf565b6000546001600160a01b031633146102a25760405162461bcd60e51b8152600401610299906112a4565b60405180910390fd5b600380546001600160a01b0319166001600160a01b0392909216919091179055565b6000546001600160a01b031681565b73c8418af6358ffdda74e09ca9cc3fe03ca6adc5b081565b6000546001600160a01b031633146103155760405162461bcd60e51b8152600401610299906112a4565b600280546001600160a01b0319166001600160a01b0392909216919091179055565b6000546001600160a01b031633146103615760405162461bcd60e51b8152600401610299906112a4565b600260009054906101000a90046001600160a01b03166001600160a01b0316637c2628716040518163ffffffff1660e01b8152600401602060405180830381600087803b1580156103b157600080fd5b505af11580156103c5573d6000803e3d6000fd5b505050506040513d601f19601f820116820180604052508101906103e99190611198565b506040516370a0823160e01b815261047a90733432b6a60d23ca0dfca7761b7ab56459d9c964d0906370a0823190610425903090600401611229565b60206040518083038186803b15801561043d57600080fd5b505afa158015610451573d6000803e3d6000fd5b505050506040513d601f19601f820116820180604052508101906104759190611198565b610d0b565b565b6000546001600160a01b031633146104a65760405162461bcd60e51b8152600401610299906112a4565b600260009054906101000a90046001600160a01b03166001600160a01b0316637c2628716040518163ffffffff1660e01b8152600401602060405180830381600087803b1580156104f657600080fd5b505af115801561050a573d6000803e3d6000fd5b505050506040513d601f19601f8201168201806040525081019061052e9190611198565b5073c8418af6358ffdda74e09ca9cc3fe03ca6adc5b06001600160a01b0316633ccfd60b6040518163ffffffff1660e01b8152600401600060405180830381600087803b15801561057e57600080fd5b505af1158015610592573d6000803e3d6000fd5b50506040516370a0823160e01b815260009250733432b6a60d23ca0dfca7761b7ab56459d9c964d091506370a08231906105d0903090600401611229565b60206040518083038186803b1580156105e857600080fd5b505afa1580156105fc573d6000803e3d6000fd5b505050506040513d601f19601f820116820180604052508101906106209190611198565b60015490915061064f90733432b6a60d23ca0dfca7761b7ab56459d9c964d0906001600160a01b031683610e83565b50565b6000546001600160a01b0316331461067c5760405162461bcd60e51b8152600401610299906112a4565b600354604051631ae26c6560e31b81526001600160a01b039091169063d7136328906106ae908590859060040161123d565b600060405180830381600087803b1580156106c857600080fd5b505af11580156106dc573d6000803e3d6000fd5b505050505050565b6004546001600160a01b031681565b6001546001600160a01b031681565b6000546001600160a01b0316331461072c5760405162461bcd60e51b8152600401610299906112a4565b600480546040516317b0dca160e31b81526001600160a01b039091169163bd86e508916106ae91869186910161127a565b6000546001600160a01b031633146107875760405162461bcd60e51b8152600401610299906112a4565b6040516377fbd30960e11b815273c8418af6358ffdda74e09ca9cc3fe03ca6adc5b09063eff7a612906107be908490600401611271565b600060405180830381600087803b1580156107d857600080fd5b505af11580156107ec573d6000803e3d6000fd5b50505050600260009054906101000a90046001600160a01b03166001600160a01b031663c2c4c5c16040518163ffffffff1660e01b8152600401600060405180830381600087803b15801561084057600080fd5b505af1158015610854573d6000803e3d6000fd5b5050505050565b733432b6a60d23ca0dfca7761b7ab56459d9c964d081565b6000546001600160a01b0316331461089d5760405162461bcd60e51b8152600401610299906112a4565b6004805460405163785f6df160e11b81526001600160a01b039091169163f0bedbe2916108cc91859101611271565b600060405180830381600087803b15801561084057600080fd5b6003546001600160a01b031681565b6002546001600160a01b031681565b6000546001600160a01b0316331461092e5760405162461bcd60e51b8152600401610299906112a4565b600080546001600160a01b0319166001600160a01b0392909216919091179055565b6000546001600160a01b0316331461097a5760405162461bcd60e51b8152600401610299906112a4565b60405163095ea7b360e01b8152733432b6a60d23ca0dfca7761b7ab56459d9c964d09063095ea7b3906109c89073c8418af6358ffdda74e09ca9cc3fe03ca6adc5b09060009060040161123d565b602060405180830381600087803b1580156109e257600080fd5b505af11580156109f6573d6000803e3d6000fd5b505050506040513d601f19601f82011682018060405250810190610a1a9190611135565b5060405163095ea7b360e01b8152733432b6a60d23ca0dfca7761b7ab56459d9c964d09063095ea7b390610a689073c8418af6358ffdda74e09ca9cc3fe03ca6adc5b090869060040161123d565b602060405180830381600087803b158015610a8257600080fd5b505af1158015610a96573d6000803e3d6000fd5b505050506040513d601f19601f82011682018060405250810190610aba9190611135565b506040516365fc387360e01b815273c8418af6358ffdda74e09ca9cc3fe03ca6adc5b0906365fc387390610af49085908590600401611346565b600060405180830381600087803b158015610b0e57600080fd5b505af1158015610b22573d6000803e3d6000fd5b50505050600260009054906101000a90046001600160a01b03166001600160a01b031663c2c4c5c16040518163ffffffff1660e01b8152600401600060405180830381600087803b1580156106c857600080fd5b600080546060906001600160a01b03163314610ba45760405162461bcd60e51b8152600401610299906112a4565b60006060876001600160a01b0316878787604051610bc39291906111fd565b60006040518083038185875af1925050503d8060008114610c00576040519150601f19603f3d011682016040523d82523d6000602084013e610c05565b606091505b5090999098509650505050505050565b6000546001600160a01b03163314610c3f5760405162461bcd60e51b8152600401610299906112a4565b60015460405162b0eee360e41b81526001600160a01b0390911690630b0eee3090610c8490733432b6a60d23ca0dfca7761b7ab56459d9c964d090859060040161123d565b600060405180830381600087803b158015610c9e57600080fd5b505af1158015610cb2573d6000803e3d6000fd5b5050505061064f81610d0b565b6000546001600160a01b03163314610ce95760405162461bcd60e51b8152600401610299906112a4565b600180546001600160a01b0319166001600160a01b0392909216919091179055565b60405163095ea7b360e01b8152733432b6a60d23ca0dfca7761b7ab56459d9c964d09063095ea7b390610d599073c8418af6358ffdda74e09ca9cc3fe03ca6adc5b09060009060040161123d565b602060405180830381600087803b158015610d7357600080fd5b505af1158015610d87573d6000803e3d6000fd5b505050506040513d601f19601f82011682018060405250810190610dab9190611135565b5060405163095ea7b360e01b8152733432b6a60d23ca0dfca7761b7ab56459d9c964d09063095ea7b390610df99073c8418af6358ffdda74e09ca9cc3fe03ca6adc5b090859060040161123d565b602060405180830381600087803b158015610e1357600080fd5b505af1158015610e27573d6000803e3d6000fd5b505050506040513d601f19601f82011682018060405250810190610e4b9190611135565b50604051631255d9df60e21b815273c8418af6358ffdda74e09ca9cc3fe03ca6adc5b090634957677c906107be908490600401611271565b610ed98363a9059cbb60e01b8484604051602401610ea292919061123d565b60408051601f198184030181529190526020810180516001600160e01b03166001600160e01b031990931692909217909152610ede565b505050565b6060610f33826040518060400160405280602081526020017f5361666545524332303a206c6f772d6c6576656c2063616c6c206661696c6564815250856001600160a01b0316610f6d9092919063ffffffff16565b805190915015610ed95780806020019051810190610f519190611135565b610ed95760405162461bcd60e51b8152600401610299906112fc565b6060610f7c8484600085610f84565b949350505050565b6060610f8f85611048565b610fab5760405162461bcd60e51b8152600401610299906112c5565b60006060866001600160a01b03168587604051610fc8919061120d565b60006040518083038185875af1925050503d8060008114611005576040519150601f19603f3d011682016040523d82523d6000602084013e61100a565b606091505b5091509150811561101e579150610f7c9050565b80511561102e5780518082602001fd5b8360405162461bcd60e51b81526004016102999190611291565b803b15155b919050565b80356001600160a01b038116811461104d57600080fd5b60006020828403121561107a578081fd5b61108382611052565b9392505050565b6000806040838503121561109c578081fd5b6110a583611052565b946020939093013593505050565b600080600080606085870312156110c8578182fd5b6110d185611052565b935060208501359250604085013567ffffffffffffffff808211156110f4578384fd5b818701915087601f830112611107578384fd5b813581811115611115578485fd5b886020828501011115611126578485fd5b95989497505060200194505050565b600060208284031215611146578081fd5b81518015158114611083578182fd5b600060208284031215611166578081fd5b5035919050565b6000806040838503121561117f578182fd5b8235915061118f60208401611052565b90509250929050565b6000602082840312156111a9578081fd5b5051919050565b600080604083850312156111c2578182fd5b50508035926020909101359150565b600081518084526111e9816020860160208601611354565b601f01601f19169290920160200192915050565b6000828483379101908152919050565b6000825161121f818460208701611354565b9190910192915050565b6001600160a01b0391909116815260200190565b6001600160a01b03929092168252602082015260400190565b6000831515825260406020830152610f7c60408301846111d1565b90815260200190565b9182526001600160a01b0316602082015260400190565b60006020825261108360208301846111d1565b60208082526007908201526621706f6c69637960c81b604082015260600190565b6020808252601d908201527f416464726573733a2063616c6c20746f206e6f6e2d636f6e7472616374000000604082015260600190565b6020808252602a908201527f5361666545524332303a204552433230206f7065726174696f6e20646964206e6040820152691bdd081cdd58d8d9595960b21b606082015260800190565b918252602082015260400190565b60005b8381101561136f578181015183820152602001611357565b8381111561137e576000848401525b5050505056fea26469706673582212208fdc4fd7c3607ad65ab79ca0fff486f792f2f8d13e5144c904ed5376d8eeec4864736f6c63430007050033",
  "devdoc": {
    "kind": "dev",
    "methods": {},
    "version": 1
  },
  "userdoc": {
    "kind": "user",
    "methods": {},
    "version": 1
  },
  "storageLayout": {
    "storage": [
      {
        "astId": 742,
        "contract": "contracts/allocators/FxsAllocator.sol:FxsAllocator",
        "label": "policy",
        "offset": 0,
        "slot": "0",
        "type": "t_address"
      },
      {
        "astId": 744,
        "contract": "contracts/allocators/FxsAllocator.sol:FxsAllocator",
        "label": "treasury",
        "offset": 0,
        "slot": "1",
        "type": "t_address"
      },
      {
        "astId": 762,
        "contract": "contracts/allocators/FxsAllocator.sol:FxsAllocator",
        "label": "yieldDistributor",
        "offset": 0,
        "slot": "2",
        "type": "t_address"
      },
      {
        "astId": 768,
        "contract": "contracts/allocators/FxsAllocator.sol:FxsAllocator",
        "label": "gaugeController",
        "offset": 0,
        "slot": "3",
        "type": "t_address"
      },
      {
        "astId": 774,
        "contract": "contracts/allocators/FxsAllocator.sol:FxsAllocator",
        "label": "snapshotDelegationRegistry",
        "offset": 0,
        "slot": "4",
        "type": "t_address"
      }
    ],
    "types": {
      "t_address": {
        "encoding": "inplace",
        "label": "address",
        "numberOfBytes": "20"
      }
    }
  }
}