{
  "address": "0x873ad91fA4F2aA0d557C0919eC3F6c9D240cDd05",
  "abi": [
    {
      "inputs": [
        {
          "internalType": "address",
          "name": "_LOBI",
          "type": "address"
        },
        {
          "internalType": "uint256",
          "name": "_blocksNeededForQueue",
          "type": "uint256"
        }
      ],
      "stateMutability": "nonpayable",
      "type": "constructor"
    },
    {
      "anonymous": false,
      "inputs": [
        {
          "indexed": true,
          "internalType": "enum LobisTreasury.MANAGING",
          "name": "managing",
          "type": "uint8"
        },
        {
          "indexed": false,
          "internalType": "address",
          "name": "activated",
          "type": "address"
        },
        {
          "indexed": false,
          "internalType": "bool",
          "name": "result",
          "type": "bool"
        }
      ],
      "name": "ChangeActivated",
      "type": "event"
    },
    {
      "anonymous": false,
      "inputs": [
        {
          "indexed": true,
          "internalType": "enum LobisTreasury.MANAGING",
          "name": "managing",
          "type": "uint8"
        },
        {
          "indexed": false,
          "internalType": "address",
          "name": "queued",
          "type": "address"
        }
      ],
      "name": "ChangeQueued",
      "type": "event"
    },
    {
      "anonymous": false,
      "inputs": [
        {
          "indexed": true,
          "internalType": "address",
          "name": "debtor",
          "type": "address"
        },
        {
          "indexed": true,
          "internalType": "address",
          "name": "token",
          "type": "address"
        },
        {
          "indexed": false,
          "internalType": "uint256",
          "name": "amount",
          "type": "uint256"
        },
        {
          "indexed": false,
          "internalType": "uint256",
          "name": "value",
          "type": "uint256"
        }
      ],
      "name": "CreateDebt",
      "type": "event"
    },
    {
      "anonymous": false,
      "inputs": [
        {
          "indexed": true,
          "internalType": "address",
          "name": "token",
          "type": "address"
        },
        {
          "indexed": false,
          "internalType": "uint256",
          "name": "amount",
          "type": "uint256"
        },
        {
          "indexed": false,
          "internalType": "uint256",
          "name": "value",
          "type": "uint256"
        }
      ],
      "name": "Deposit",
      "type": "event"
    },
    {
      "anonymous": false,
      "inputs": [
        {
          "indexed": true,
          "internalType": "address",
          "name": "previousOwner",
          "type": "address"
        },
        {
          "indexed": true,
          "internalType": "address",
          "name": "newOwner",
          "type": "address"
        }
      ],
      "name": "OwnershipPulled",
      "type": "event"
    },
    {
      "anonymous": false,
      "inputs": [
        {
          "indexed": true,
          "internalType": "address",
          "name": "previousOwner",
          "type": "address"
        },
        {
          "indexed": true,
          "internalType": "address",
          "name": "newOwner",
          "type": "address"
        }
      ],
      "name": "OwnershipPushed",
      "type": "event"
    },
    {
      "anonymous": false,
      "inputs": [
        {
          "indexed": true,
          "internalType": "address",
          "name": "debtor",
          "type": "address"
        },
        {
          "indexed": true,
          "internalType": "address",
          "name": "token",
          "type": "address"
        },
        {
          "indexed": false,
          "internalType": "uint256",
          "name": "amount",
          "type": "uint256"
        },
        {
          "indexed": false,
          "internalType": "uint256",
          "name": "value",
          "type": "uint256"
        }
      ],
      "name": "RepayDebt",
      "type": "event"
    },
    {
      "anonymous": false,
      "inputs": [
        {
          "indexed": true,
          "internalType": "uint256",
          "name": "totalReserves",
          "type": "uint256"
        }
      ],
      "name": "ReservesAudited",
      "type": "event"
    },
    {
      "anonymous": false,
      "inputs": [
        {
          "indexed": true,
          "internalType": "address",
          "name": "token",
          "type": "address"
        },
        {
          "indexed": false,
          "internalType": "uint256",
          "name": "amount",
          "type": "uint256"
        }
      ],
      "name": "ReservesManaged",
      "type": "event"
    },
    {
      "anonymous": false,
      "inputs": [
        {
          "indexed": true,
          "internalType": "uint256",
          "name": "totalReserves",
          "type": "uint256"
        }
      ],
      "name": "ReservesUpdated",
      "type": "event"
    },
    {
      "anonymous": false,
      "inputs": [
        {
          "indexed": true,
          "internalType": "address",
          "name": "caller",
          "type": "address"
        },
        {
          "indexed": true,
          "internalType": "address",
          "name": "recipient",
          "type": "address"
        },
        {
          "indexed": false,
          "internalType": "uint256",
          "name": "amount",
          "type": "uint256"
        }
      ],
      "name": "RewardsMinted",
      "type": "event"
    },
    {
      "anonymous": false,
      "inputs": [
        {
          "indexed": true,
          "internalType": "address",
          "name": "token",
          "type": "address"
        },
        {
          "indexed": false,
          "internalType": "uint256",
          "name": "amount",
          "type": "uint256"
        },
        {
          "indexed": false,
          "internalType": "uint256",
          "name": "value",
          "type": "uint256"
        }
      ],
      "name": "Withdrawal",
      "type": "event"
    },
    {
      "inputs": [],
      "name": "LOBI",
      "outputs": [
        {
          "internalType": "address",
          "name": "",
          "type": "address"
        }
      ],
      "stateMutability": "view",
      "type": "function"
    },
    {
      "inputs": [
        {
          "internalType": "address",
          "name": "",
          "type": "address"
        }
      ],
      "name": "LiquidityDepositorQueue",
      "outputs": [
        {
          "internalType": "uint256",
          "name": "",
          "type": "uint256"
        }
      ],
      "stateMutability": "view",
      "type": "function"
    },
    {
      "inputs": [
        {
          "internalType": "address",
          "name": "",
          "type": "address"
        }
      ],
      "name": "LiquidityManagerQueue",
      "outputs": [
        {
          "internalType": "uint256",
          "name": "",
          "type": "uint256"
        }
      ],
      "stateMutability": "view",
      "type": "function"
    },
    {
      "inputs": [
        {
          "internalType": "address",
          "name": "",
          "type": "address"
        }
      ],
      "name": "LiquidityTokenQueue",
      "outputs": [
        {
          "internalType": "uint256",
          "name": "",
          "type": "uint256"
        }
      ],
      "stateMutability": "view",
      "type": "function"
    },
    {
      "inputs": [
        {
          "internalType": "address",
          "name": "",
          "type": "address"
        }
      ],
      "name": "ReserveManagerQueue",
      "outputs": [
        {
          "internalType": "uint256",
          "name": "",
          "type": "uint256"
        }
      ],
      "stateMutability": "view",
      "type": "function"
    },
    {
      "inputs": [],
      "name": "auditReserves",
      "outputs": [],
      "stateMutability": "nonpayable",
      "type": "function"
    },
    {
      "inputs": [],
      "name": "blocksNeededForQueue",
      "outputs": [
        {
          "internalType": "uint256",
          "name": "",
          "type": "uint256"
        }
      ],
      "stateMutability": "view",
      "type": "function"
    },
    {
      "inputs": [
        {
          "internalType": "address",
          "name": "",
          "type": "address"
        }
      ],
      "name": "debtorBalance",
      "outputs": [
        {
          "internalType": "uint256",
          "name": "",
          "type": "uint256"
        }
      ],
      "stateMutability": "view",
      "type": "function"
    },
    {
      "inputs": [
        {
          "internalType": "address",
          "name": "",
          "type": "address"
        }
      ],
      "name": "debtorQueue",
      "outputs": [
        {
          "internalType": "uint256",
          "name": "",
          "type": "uint256"
        }
      ],
      "stateMutability": "view",
      "type": "function"
    },
    {
      "inputs": [
        {
          "internalType": "uint256",
          "name": "",
          "type": "uint256"
        }
      ],
      "name": "debtors",
      "outputs": [
        {
          "internalType": "address",
          "name": "",
          "type": "address"
        }
      ],
      "stateMutability": "view",
      "type": "function"
    },
    {
      "inputs": [
        {
          "internalType": "uint256",
          "name": "_amount",
          "type": "uint256"
        },
        {
          "internalType": "address",
          "name": "_token",
          "type": "address"
        },
        {
          "internalType": "uint256",
          "name": "_profit",
          "type": "uint256"
        }
      ],
      "name": "deposit",
      "outputs": [
        {
          "internalType": "uint256",
          "name": "send_",
          "type": "uint256"
        }
      ],
      "stateMutability": "nonpayable",
      "type": "function"
    },
    {
      "inputs": [],
      "name": "excessReserves",
      "outputs": [
        {
          "internalType": "uint256",
          "name": "",
          "type": "uint256"
        }
      ],
      "stateMutability": "view",
      "type": "function"
    },
    {
      "inputs": [
        {
          "internalType": "uint256",
          "name": "_amount",
          "type": "uint256"
        },
        {
          "internalType": "address",
          "name": "_token",
          "type": "address"
        }
      ],
      "name": "incurDebt",
      "outputs": [],
      "stateMutability": "nonpayable",
      "type": "function"
    },
    {
      "inputs": [
        {
          "internalType": "address",
          "name": "",
          "type": "address"
        }
      ],
      "name": "isDebtor",
      "outputs": [
        {
          "internalType": "bool",
          "name": "",
          "type": "bool"
        }
      ],
      "stateMutability": "view",
      "type": "function"
    },
    {
      "inputs": [
        {
          "internalType": "address",
          "name": "",
          "type": "address"
        }
      ],
      "name": "isLiquidityDepositor",
      "outputs": [
        {
          "internalType": "bool",
          "name": "",
          "type": "bool"
        }
      ],
      "stateMutability": "view",
      "type": "function"
    },
    {
      "inputs": [
        {
          "internalType": "address",
          "name": "",
          "type": "address"
        }
      ],
      "name": "isLiquidityManager",
      "outputs": [
        {
          "internalType": "bool",
          "name": "",
          "type": "bool"
        }
      ],
      "stateMutability": "view",
      "type": "function"
    },
    {
      "inputs": [
        {
          "internalType": "address",
          "name": "",
          "type": "address"
        }
      ],
      "name": "isLiquidityToken",
      "outputs": [
        {
          "internalType": "bool",
          "name": "",
          "type": "bool"
        }
      ],
      "stateMutability": "view",
      "type": "function"
    },
    {
      "inputs": [
        {
          "internalType": "address",
          "name": "",
          "type": "address"
        }
      ],
      "name": "isReserveDepositor",
      "outputs": [
        {
          "internalType": "bool",
          "name": "",
          "type": "bool"
        }
      ],
      "stateMutability": "view",
      "type": "function"
    },
    {
      "inputs": [
        {
          "internalType": "address",
          "name": "",
          "type": "address"
        }
      ],
      "name": "isReserveManager",
      "outputs": [
        {
          "internalType": "bool",
          "name": "",
          "type": "bool"
        }
      ],
      "stateMutability": "view",
      "type": "function"
    },
    {
      "inputs": [
        {
          "internalType": "address",
          "name": "",
          "type": "address"
        }
      ],
      "name": "isReserveSpender",
      "outputs": [
        {
          "internalType": "bool",
          "name": "",
          "type": "bool"
        }
      ],
      "stateMutability": "view",
      "type": "function"
    },
    {
      "inputs": [
        {
          "internalType": "address",
          "name": "",
          "type": "address"
        }
      ],
      "name": "isReserveToken",
      "outputs": [
        {
          "internalType": "bool",
          "name": "",
          "type": "bool"
        }
      ],
      "stateMutability": "view",
      "type": "function"
    },
    {
      "inputs": [
        {
          "internalType": "address",
          "name": "",
          "type": "address"
        }
      ],
      "name": "isRewardManager",
      "outputs": [
        {
          "internalType": "bool",
          "name": "",
          "type": "bool"
        }
      ],
      "stateMutability": "view",
      "type": "function"
    },
    {
      "inputs": [
        {
          "internalType": "uint256",
          "name": "",
          "type": "uint256"
        }
      ],
      "name": "liquidityDepositors",
      "outputs": [
        {
          "internalType": "address",
          "name": "",
          "type": "address"
        }
      ],
      "stateMutability": "view",
      "type": "function"
    },
    {
      "inputs": [
        {
          "internalType": "uint256",
          "name": "",
          "type": "uint256"
        }
      ],
      "name": "liquidityManagers",
      "outputs": [
        {
          "internalType": "address",
          "name": "",
          "type": "address"
        }
      ],
      "stateMutability": "view",
      "type": "function"
    },
    {
      "inputs": [
        {
          "internalType": "uint256",
          "name": "",
          "type": "uint256"
        }
      ],
      "name": "liquidityTokens",
      "outputs": [
        {
          "internalType": "address",
          "name": "",
          "type": "address"
        }
      ],
      "stateMutability": "view",
      "type": "function"
    },
    {
      "inputs": [
        {
          "internalType": "address",
          "name": "_token",
          "type": "address"
        },
        {
          "internalType": "uint256",
          "name": "_amount",
          "type": "uint256"
        }
      ],
      "name": "manage",
      "outputs": [],
      "stateMutability": "nonpayable",
      "type": "function"
    },
    {
      "inputs": [],
      "name": "manager",
      "outputs": [
        {
          "internalType": "address",
          "name": "",
          "type": "address"
        }
      ],
      "stateMutability": "view",
      "type": "function"
    },
    {
      "inputs": [
        {
          "internalType": "address",
          "name": "_recipient",
          "type": "address"
        },
        {
          "internalType": "uint256",
          "name": "_amount",
          "type": "uint256"
        }
      ],
      "name": "mintRewards",
      "outputs": [],
      "stateMutability": "nonpayable",
      "type": "function"
    },
    {
      "inputs": [],
      "name": "pullManagement",
      "outputs": [],
      "stateMutability": "nonpayable",
      "type": "function"
    },
    {
      "inputs": [
        {
          "internalType": "address",
          "name": "newOwner_",
          "type": "address"
        }
      ],
      "name": "pushManagement",
      "outputs": [],
      "stateMutability": "nonpayable",
      "type": "function"
    },
    {
      "inputs": [
        {
          "internalType": "enum LobisTreasury.MANAGING",
          "name": "_managing",
          "type": "uint8"
        },
        {
          "internalType": "address",
          "name": "_address",
          "type": "address"
        }
      ],
      "name": "queue",
      "outputs": [
        {
          "internalType": "bool",
          "name": "",
          "type": "bool"
        }
      ],
      "stateMutability": "nonpayable",
      "type": "function"
    },
    {
      "inputs": [],
      "name": "renounceManagement",
      "outputs": [],
      "stateMutability": "nonpayable",
      "type": "function"
    },
    {
      "inputs": [
        {
          "internalType": "uint256",
          "name": "_amount",
          "type": "uint256"
        }
      ],
      "name": "repayDebtWithLOBI",
      "outputs": [],
      "stateMutability": "nonpayable",
      "type": "function"
    },
    {
      "inputs": [
        {
          "internalType": "uint256",
          "name": "_amount",
          "type": "uint256"
        },
        {
          "internalType": "address",
          "name": "_token",
          "type": "address"
        }
      ],
      "name": "repayDebtWithReserve",
      "outputs": [],
      "stateMutability": "nonpayable",
      "type": "function"
    },
    {
      "inputs": [
        {
          "internalType": "address",
          "name": "",
          "type": "address"
        }
      ],
      "name": "reserveDepositorQueue",
      "outputs": [
        {
          "internalType": "uint256",
          "name": "",
          "type": "uint256"
        }
      ],
      "stateMutability": "view",
      "type": "function"
    },
    {
      "inputs": [
        {
          "internalType": "uint256",
          "name": "",
          "type": "uint256"
        }
      ],
      "name": "reserveDepositors",
      "outputs": [
        {
          "internalType": "address",
          "name": "",
          "type": "address"
        }
      ],
      "stateMutability": "view",
      "type": "function"
    },
    {
      "inputs": [
        {
          "internalType": "uint256",
          "name": "",
          "type": "uint256"
        }
      ],
      "name": "reserveManagers",
      "outputs": [
        {
          "internalType": "address",
          "name": "",
          "type": "address"
        }
      ],
      "stateMutability": "view",
      "type": "function"
    },
    {
      "inputs": [
        {
          "internalType": "address",
          "name": "",
          "type": "address"
        }
      ],
      "name": "reserveSpenderQueue",
      "outputs": [
        {
          "internalType": "uint256",
          "name": "",
          "type": "uint256"
        }
      ],
      "stateMutability": "view",
      "type": "function"
    },
    {
      "inputs": [
        {
          "internalType": "uint256",
          "name": "",
          "type": "uint256"
        }
      ],
      "name": "reserveSpenders",
      "outputs": [
        {
          "internalType": "address",
          "name": "",
          "type": "address"
        }
      ],
      "stateMutability": "view",
      "type": "function"
    },
    {
      "inputs": [
        {
          "internalType": "address",
          "name": "",
          "type": "address"
        }
      ],
      "name": "reserveTokenQueue",
      "outputs": [
        {
          "internalType": "uint256",
          "name": "",
          "type": "uint256"
        }
      ],
      "stateMutability": "view",
      "type": "function"
    },
    {
      "inputs": [
        {
          "internalType": "uint256",
          "name": "",
          "type": "uint256"
        }
      ],
      "name": "reserveTokens",
      "outputs": [
        {
          "internalType": "address",
          "name": "",
          "type": "address"
        }
      ],
      "stateMutability": "view",
      "type": "function"
    },
    {
      "inputs": [
        {
          "internalType": "address",
          "name": "",
          "type": "address"
        }
      ],
      "name": "rewardManagerQueue",
      "outputs": [
        {
          "internalType": "uint256",
          "name": "",
          "type": "uint256"
        }
      ],
      "stateMutability": "view",
      "type": "function"
    },
    {
      "inputs": [
        {
          "internalType": "uint256",
          "name": "",
          "type": "uint256"
        }
      ],
      "name": "rewardManagers",
      "outputs": [
        {
          "internalType": "address",
          "name": "",
          "type": "address"
        }
      ],
      "stateMutability": "view",
      "type": "function"
    },
    {
      "inputs": [],
      "name": "sLOBI",
      "outputs": [
        {
          "internalType": "address",
          "name": "",
          "type": "address"
        }
      ],
      "stateMutability": "view",
      "type": "function"
    },
    {
      "inputs": [],
      "name": "sLOBIQueue",
      "outputs": [
        {
          "internalType": "uint256",
          "name": "",
          "type": "uint256"
        }
      ],
      "stateMutability": "view",
      "type": "function"
    },
    {
      "inputs": [
        {
          "internalType": "address",
          "name": "_token",
          "type": "address"
        },
        {
          "internalType": "uint256",
          "name": "_factor",
          "type": "uint256"
        }
      ],
      "name": "setTokenFactor",
      "outputs": [],
      "stateMutability": "nonpayable",
      "type": "function"
    },
    {
      "inputs": [
        {
          "internalType": "enum LobisTreasury.MANAGING",
          "name": "_managing",
          "type": "uint8"
        },
        {
          "internalType": "address",
          "name": "_address",
          "type": "address"
        }
      ],
      "name": "toggle",
      "outputs": [
        {
          "internalType": "bool",
          "name": "",
          "type": "bool"
        }
      ],
      "stateMutability": "nonpayable",
      "type": "function"
    },
    {
      "inputs": [
        {
          "internalType": "address",
          "name": "",
          "type": "address"
        }
      ],
      "name": "tokenFactors",
      "outputs": [
        {
          "internalType": "uint256",
          "name": "",
          "type": "uint256"
        }
      ],
      "stateMutability": "view",
      "type": "function"
    },
    {
      "inputs": [],
      "name": "totalDebt",
      "outputs": [
        {
          "internalType": "uint256",
          "name": "",
          "type": "uint256"
        }
      ],
      "stateMutability": "view",
      "type": "function"
    },
    {
      "inputs": [],
      "name": "totalReserves",
      "outputs": [
        {
          "internalType": "uint256",
          "name": "",
          "type": "uint256"
        }
      ],
      "stateMutability": "view",
      "type": "function"
    },
    {
      "inputs": [
        {
          "internalType": "address",
          "name": "_token",
          "type": "address"
        },
        {
          "internalType": "uint256",
          "name": "_amount",
          "type": "uint256"
        }
      ],
      "name": "updateReserve",
      "outputs": [],
      "stateMutability": "nonpayable",
      "type": "function"
    },
    {
      "inputs": [
        {
          "internalType": "address",
          "name": "_token",
          "type": "address"
        },
        {
          "internalType": "uint256",
          "name": "_amount",
          "type": "uint256"
        }
      ],
      "name": "valueOfToken",
      "outputs": [
        {
          "internalType": "uint256",
          "name": "value_",
          "type": "uint256"
        }
      ],
      "stateMutability": "view",
      "type": "function"
    },
    {
      "inputs": [
        {
          "internalType": "uint256",
          "name": "_amount",
          "type": "uint256"
        },
        {
          "internalType": "address",
          "name": "_token",
          "type": "address"
        }
      ],
      "name": "withdraw",
      "outputs": [],
      "stateMutability": "nonpayable",
      "type": "function"
    }
  ],
  "transactionHash": "0x02e1965bc3ef9ec49a384343e097a6a6fa3abf3d37c882a9340a5dbe067597e6",
  "args": [
    "0xDEc41Db0c33F3F6f3cb615449C311ba22D418A8d",
    0
  ],
  "solcInputHash": "ec0626adef0fe195c0400ecb4c7ff0eb",
  "bytecode": "0x60c060405234801561001057600080fd5b5060405162003931380380620039318339818101604052604081101561003557600080fd5b508051602090910151600080546001600160a01b03191633178082556040516001600160a01b039190911691907fea8258f2d9ddb679928cf34b78cf645b7feda9acc828e4dd82d014eaae270eba908290a36001600160a01b03821661009a57600080fd5b606082901b6001600160601b03191660805260a08190526001600160a01b03909116906137fc6200013560003980611ccf5280612ada5280612b365280612b925280612bf05280612c555280612cb15280612d0f5280612d6d5280612dc95280612e25525080610abb5280610e5d528061181f52806119c55280611b975280611da15280611fb85280612f76528061302a52506137fc6000f3fe608060405234801561001057600080fd5b50600436106103265760003560e01c80638f6a7b57116101b8578063d031370b11610104578063ebd83cd8116100a2578063fc7b9c181161007c578063fc7b9c181461098f578063fd1ec01014610997578063fe8648b2146109b4578063fff9ee87146109d157610326565b8063ebd83cd81461091d578063ee4e19a114610943578063fb9395881461096957610326565b8063d5e8be0d116100de578063d5e8be0d1461086d578063d796ffb81461089c578063df89b344146108c8578063e83afee3146108ee57610326565b8063d031370b1461081c578063d07f390f14610839578063d1b317e51461084157610326565b8063a5ffd19711610171578063b5b1d5601161014b578063b5b1d56014610781578063bc157ac11461079e578063c24ad43e146107d0578063cd85641a146107f657610326565b8063a5ffd1971461072d578063ab319c9a14610735578063b1bd38b01461075b57610326565b80638f6a7b571461068e5780638f840ddd146106ab578063932cc8c3146106b35780639ea5b12d146106d9578063a1210a2d146106e1578063a569e5711461070757610326565b80634cf731dc116102775780636b5e40a7116102305780637b3b022d1161020a5780637b3b022d146105ff578063869871bf1461062557806387d67dff146106425780638f59c7271461066857610326565b80636b5e40a71461059f57806370a0502a146105bc578063788c6c01146105d957610326565b80634cf731dc146104eb5780634e83423c146104f357806356a07a3b146105195780635a96ac0a1461054557806368c31dd51461054d5780636a20de921461057357610326565b8063124154ca116102e45780632b7ce500116102be5780632b7ce50014610498578063437f7912146104a057806346f68ee9146104bd578063481c6a75146104e357610326565b8063124154ca1461040657806312422d2314610440578063174c66151461046c57610326565b8062f714ce1461032b5780630619aff114610359578063089208d814610392578063094a86511461039a5780630b0eee30146103d25780630c3513a8146103fe575b600080fd5b6103576004803603604081101561034157600080fd5b50803590602001356001600160a01b03166109f7565b005b6103766004803603602081101561036f57600080fd5b5035610bce565b604080516001600160a01b039092168252519081900360200190f35b610357610bf8565b6103c0600480360360208110156103b057600080fd5b50356001600160a01b0316610c8f565b60408051918252519081900360200190f35b610357600480360360408110156103e857600080fd5b506001600160a01b038135169060200135610ca1565b6103c0610e50565b61042c6004803603602081101561041c57600080fd5b50356001600160a01b0316610ef4565b604080519115158252519081900360200190f35b6103576004803603604081101561045657600080fd5b50803590602001356001600160a01b0316610f09565b6103576004803603604081101561048257600080fd5b506001600160a01b0381351690602001356111d9565b610357611242565b610376600480360360208110156104b657600080fd5b5035611495565b610357600480360360208110156104d357600080fd5b50356001600160a01b03166114a5565b610376611592565b6103766115a1565b61042c6004803603602081101561050957600080fd5b50356001600160a01b03166115b0565b6103576004803603604081101561052f57600080fd5b506001600160a01b0381351690602001356115c5565b6103576116b7565b61042c6004803603602081101561056357600080fd5b50356001600160a01b0316611761565b6103576004803603604081101561058957600080fd5b506001600160a01b038135169060200135611776565b610376600480360360208110156105b557600080fd5b50356118f0565b610376600480360360208110156105d257600080fd5b5035611900565b6103c0600480360360208110156105ef57600080fd5b50356001600160a01b0316611910565b6103c06004803603602081101561061557600080fd5b50356001600160a01b0316611922565b6103766004803603602081101561063b57600080fd5b5035611934565b61042c6004803603602081101561065857600080fd5b50356001600160a01b0316611944565b6103c06004803603602081101561067e57600080fd5b50356001600160a01b0316611959565b610376600480360360208110156106a457600080fd5b503561196b565b6103c061197b565b6103c0600480360360208110156106c957600080fd5b50356001600160a01b0316611981565b6103c0611993565b61042c600480360360208110156106f757600080fd5b50356001600160a01b0316611999565b61042c6004803603602081101561071d57600080fd5b50356001600160a01b03166119ae565b6103766119c3565b6103c06004803603602081101561074b57600080fd5b50356001600160a01b03166119e7565b6103c06004803603602081101561077157600080fd5b50356001600160a01b03166119f9565b6103766004803603602081101561079757600080fd5b5035611a0b565b6103c0600480360360608110156107b457600080fd5b508035906001600160a01b036020820135169060400135611a1b565b6103c0600480360360208110156107e657600080fd5b50356001600160a01b0316611c99565b6103c06004803603602081101561080c57600080fd5b50356001600160a01b0316611cab565b6103766004803603602081101561083257600080fd5b5035611cbd565b6103c0611ccd565b6103c06004803603604081101561085757600080fd5b506001600160a01b038135169060200135611cf1565b61042c6004803603604081101561088357600080fd5b50803560ff1690602001356001600160a01b0316612010565b610357600480360360408110156108b257600080fd5b50803590602001356001600160a01b03166128c7565b61042c600480360360208110156108de57600080fd5b50356001600160a01b0316612a4a565b61042c6004803603604081101561090457600080fd5b50803560ff1690602001356001600160a01b0316612a5f565b61042c6004803603602081101561093357600080fd5b50356001600160a01b0316612eaa565b61042c6004803603602081101561095957600080fd5b50356001600160a01b0316612ebf565b6103c06004803603602081101561097f57600080fd5b50356001600160a01b0316612ed4565b6103c0612ee6565b610376600480360360208110156109ad57600080fd5b5035612eec565b610357600480360360208110156109ca57600080fd5b5035612efc565b6103c0600480360360208110156109e757600080fd5b50356001600160a01b031661307b565b6001600160a01b03811660009081526003602052604090205460ff16610a53576040805162461bcd60e51b815260206004820152600c60248201526b139bdd081858d8d95c1d195960a21b604482015290519081900360640190fd5b3360009081526009602052604090205460ff161515600114610aab576040805162461bcd60e51b815260206004820152600c60248201526b139bdd08185c1c1c9bdd995960a21b604482015290519081900360640190fd5b6000610ab78284611cf1565b90507f00000000000000000000000000000000000000000000000000000000000000006001600160a01b03166379cc679033836040518363ffffffff1660e01b815260040180836001600160a01b0316815260200182815260200192505050600060405180830381600087803b158015610b3057600080fd5b505af1158015610b44573d6000803e3d6000fd5b5050602154610b56925090508261308d565b602181905560405160008051602061377d83398151915290600090a2610b866001600160a01b03831633856130d6565b604080518481526020810183905281516001600160a01b038516927fdf273cb619d95419a9cd0ec88123a0538c85064229baa6363788f743fff90deb928290030190a2505050565b60118181548110610bde57600080fd5b6000918252602090912001546001600160a01b0316905081565b6000546001600160a01b03163314610c45576040805162461bcd60e51b8152602060048201819052602482015260008051602061375d833981519152604482015290519081900360640190fd5b600080546040516001600160a01b03909116907fea8258f2d9ddb679928cf34b78cf645b7feda9acc828e4dd82d014eaae270eba908390a3600080546001600160a01b0319169055565b601a6020526000908152604090205481565b6001600160a01b0382166000908152600c602052604090205460ff1615610d1a573360009081526015602052604090205460ff16610d15576040805162461bcd60e51b815260206004820152600c60248201526b139bdd08185c1c1c9bdd995960a21b604482015290519081900360640190fd5b610d6d565b3360009081526012602052604090205460ff16610d6d576040805162461bcd60e51b815260206004820152600c60248201526b139bdd08185c1c1c9bdd995960a21b604482015290519081900360640190fd5b6000610d798383611cf1565b9050610d83610e50565b811115610dcf576040805162461bcd60e51b8152602060048201526015602482015274496e73756666696369656e7420726573657276657360581b604482015290519081900360640190fd5b602154610ddc908261308d565b602181905560405160008051602061377d83398151915290600090a2610e0c6001600160a01b03841633846130d6565b6040805183815290516001600160a01b038516917f2bb2640731848fe9820ba48dbc978c1fc9bbd5f11b948bfab05b7dee3378fd80919081900360200190a2505050565b6000610eef610ee66022547f00000000000000000000000000000000000000000000000000000000000000006001600160a01b03166318160ddd6040518163ffffffff1660e01b815260040160206040518083038186803b158015610eb457600080fd5b505afa158015610ec8573d6000803e3d6000fd5b505050506040513d6020811015610ede57600080fd5b50519061308d565b6021549061308d565b905090565b60066020526000908152604090205460ff1681565b3360009081526018602052604090205460ff16610f5c576040805162461bcd60e51b815260206004820152600c60248201526b139bdd08185c1c1c9bdd995960a21b604482015290519081900360640190fd5b6001600160a01b03811660009081526003602052604090205460ff16610fb8576040805162461bcd60e51b815260206004820152600c60248201526b139bdd081858d8d95c1d195960a21b604482015290519081900360640190fd5b6000610fc48284611cf1565b601f54604080516370a0823160e01b815233600482015290519293506000926001600160a01b03909216916370a0823191602480820192602092909190829003018186803b15801561101557600080fd5b505afa158015611029573d6000803e3d6000fd5b505050506040513d602081101561103f57600080fd5b5051336000908152601a60205260408120549192509061106090839061308d565b9050808311156110ac576040805162461bcd60e51b8152602060048201526012602482015271115e18d959591cc81919589d081b1a5b5a5d60721b604482015290519081900360640190fd5b336000908152601a60205260409020546110c6908461312d565b336000908152601a60205260409020556022546110e3908461312d565b6022556021546110f3908461308d565b602181905560405160008051602061377d83398151915290600090a26040805163a9059cbb60e01b81523360048201526024810187905290516001600160a01b0386169163a9059cbb9160448083019260209291908290030181600087803b15801561115e57600080fd5b505af1158015611172573d6000803e3d6000fd5b505050506040513d602081101561118857600080fd5b5050604080518681526020810185905281516001600160a01b0387169233927f7e1a939bed137a819b5d2979822c67f877689f7a863d5e4cb57cdca97b2977d6929081900390910190a35050505050565b6000546001600160a01b03163314611226576040805162461bcd60e51b8152602060048201819052602482015260008051602061375d833981519152604482015290519081900360640190fd5b6001600160a01b039091166000908152601e6020526040902055565b6000546001600160a01b0316331461128f576040805162461bcd60e51b8152602060048201819052602482015260008051602061375d833981519152604482015290519081900360640190fd5b6000805b6002548110156113b5576113ab6113a461271061139e601e6000600287815481106112ba57fe5b60009182526020808320909101546001600160a01b03168352820192909252604001902054600280546113989190889081106112f257fe5b600091825260209091200154600280546001600160a01b03909216918990811061131857fe5b60009182526020918290200154604080516370a0823160e01b815230600482015290516001600160a01b03909216926370a0823192602480840193829003018186803b15801561136757600080fd5b505afa15801561137b573d6000803e3d6000fd5b505050506040513d602081101561139157600080fd5b5051611cf1565b90613187565b906131e0565b839061312d565b9150600101611293565b5060005b600b548110156114485761143e6113a461271061139e601e6000600b87815481106113e057fe5b60009182526020808320909101546001600160a01b03168352820192909252604001902054600b805461139891908890811061141857fe5b600091825260209091200154600b80546001600160a01b03909216918990811061131857fe5b91506001016113b9565b506021819055604051819060008051602061377d83398151915290600090a260405181907fec691f09f6924b27932253f85caf99bacc30360cc0e50a1cc4d2acc24601446690600090a250565b60088181548110610bde57600080fd5b6000546001600160a01b031633146114f2576040805162461bcd60e51b8152602060048201819052602482015260008051602061375d833981519152604482015290519081900360640190fd5b6001600160a01b0381166115375760405162461bcd60e51b81526004018080602001828103825260268152602001806136f46026913960400191505060405180910390fd5b600080546040516001600160a01b03808516939216917fea8258f2d9ddb679928cf34b78cf645b7feda9acc828e4dd82d014eaae270eba91a3600180546001600160a01b0319166001600160a01b0392909216919091179055565b6000546001600160a01b031690565b601f546001600160a01b031681565b601c6020526000908152604090205460ff1681565b336000908152601c602052604090205460ff16611618576040805162461bcd60e51b815260206004820152600c60248201526b139bdd08185c1c1c9bdd995960a21b604482015290519081900360640190fd5b6001600160a01b03821660009081526003602052604090205460ff168061165757506001600160a01b0382166000908152600c602052604090205460ff165b15611699576001600160a01b0382166000908152601e60205260409020546116959061168c906127109061139e908590613187565b6021549061312d565b6021555b60215460405160008051602061377d83398151915290600090a25050565b6001546001600160a01b031633146117005760405162461bcd60e51b815260040180806020018281038252602281526020018061371a6022913960400191505060405180910390fd5b600154600080546040516001600160a01b0393841693909116917faa151555690c956fc3ea32f106bb9f119b5237a061eaa8557cff3e51e3792c8d91a3600154600080546001600160a01b0319166001600160a01b03909216919091179055565b60036020526000908152604090205460ff1681565b336000908152601c602052604090205460ff166117c9576040805162461bcd60e51b815260206004820152600c60248201526b139bdd08185c1c1c9bdd995960a21b604482015290519081900360640190fd5b6117d1610e50565b81111561181d576040805162461bcd60e51b8152602060048201526015602482015274496e73756666696369656e7420726573657276657360581b604482015290519081900360640190fd5b7f00000000000000000000000000000000000000000000000000000000000000006001600160a01b03166340c10f1983836040518363ffffffff1660e01b815260040180836001600160a01b0316815260200182815260200192505050600060405180830381600087803b15801561189457600080fd5b505af11580156118a8573d6000803e3d6000fd5b50506040805184815290516001600160a01b03861693503392507ffa8ccab40e7da8146c2304cd0950334fd30a6ba093abe86261aa13911fed849c9181900360200190a35050565b60058181548110610bde57600080fd5b60148181548110610bde57600080fd5b60046020526000908152604090205481565b601e6020526000908152604090205481565b60178181548110610bde57600080fd5b60096020526000908152604090205460ff1681565b600d6020526000908152604090205481565b600e8181548110610bde57600080fd5b60215481565b60076020526000908152604090205481565b60205481565b600f6020526000908152604090205460ff1681565b600c6020526000908152604090205460ff1681565b7f000000000000000000000000000000000000000000000000000000000000000081565b60166020526000908152604090205481565b60136020526000908152604090205481565b601b8181548110610bde57600080fd5b6001600160a01b03821660009081526003602052604081205460ff1680611a5a57506001600160a01b0383166000908152600c602052604090205460ff165b611a9a576040805162461bcd60e51b815260206004820152600c60248201526b139bdd081858d8d95c1d195960a21b604482015290519081900360640190fd5b611aaf6001600160a01b038416333087613222565b6001600160a01b03831660009081526003602052604090205460ff1615611b28573360009081526006602052604090205460ff16611b23576040805162461bcd60e51b815260206004820152600c60248201526b139bdd08185c1c1c9bdd995960a21b604482015290519081900360640190fd5b611b7b565b336000908152600f602052604090205460ff16611b7b576040805162461bcd60e51b815260206004820152600c60248201526b139bdd08185c1c1c9bdd995960a21b604482015290519081900360640190fd5b6000611b878486611cf1565b9050611b93818461308d565b91507f00000000000000000000000000000000000000000000000000000000000000006001600160a01b03166340c10f1933846040518363ffffffff1660e01b815260040180836001600160a01b0316815260200182815260200192505050600060405180830381600087803b158015611c0c57600080fd5b505af1158015611c20573d6000803e3d6000fd5b5050602154611c32925090508261312d565b602181905560405160008051602061377d83398151915290600090a2604080518681526020810183905281516001600160a01b038716927f90890809c654f11d6e72a28fa60149770a0d11ec6c92319d6ceb2bb0a4ea1a15928290030190a2509392505050565b600a6020526000908152604090205481565b60196020526000908152604090205481565b60028181548110610bde57600080fd5b7f000000000000000000000000000000000000000000000000000000000000000081565b6001600160a01b03821660009081526003602052604081205460ff1615611e2857611e21836001600160a01b031663313ce5676040518163ffffffff1660e01b815260040160206040518083038186803b158015611d4e57600080fd5b505afa158015611d62573d6000803e3d6000fd5b505050506040513d6020811015611d7857600080fd5b50516040805163313ce56760e01b8152905160ff909216600a0a9161139e916001600160a01b037f0000000000000000000000000000000000000000000000000000000000000000169163313ce56791600480820192602092909190829003018186803b158015611de857600080fd5b505afa158015611dfc573d6000803e3d6000fd5b505050506040513d6020811015611e1257600080fd5b5051859060ff16600a0a613187565b905061200a565b6001600160a01b0383166000908152600c602052604090205460ff161561200a576000836001600160a01b0316630dfe16816040518163ffffffff1660e01b815260040160206040518083038186803b158015611e8457600080fd5b505afa158015611e98573d6000803e3d6000fd5b505050506040513d6020811015611eae57600080fd5b505160408051630240bc6b60e21b8152905191925060009182916001600160a01b03881691630902f1ac91600480820192606092909190829003018186803b158015611ef957600080fd5b505afa158015611f0d573d6000803e3d6000fd5b505050506040513d6060811015611f2357600080fd5b508051602091820151604080516318160ddd60e01b815290516dffffffffffffffffffffffffffff93841696509290911693506000926001600160a01b038a16926318160ddd926004808201939291829003018186803b158015611f8657600080fd5b505afa158015611f9a573d6000803e3d6000fd5b505050506040513d6020811015611fb057600080fd5b5051905060007f00000000000000000000000000000000000000000000000000000000000000006001600160a01b0390811690861614611ff05783611ff2565b825b90506120028261139e8984613187565b955050505050505b92915050565b600080546001600160a01b0316331461205e576040805162461bcd60e51b8152602060048201819052602482015260008051602061375d833981519152604482015290519081900360640190fd5b6001600160a01b03821661207157600080fd5b60008084600981111561208057fe5b141561213c576120936007600685613282565b1561210c576001600160a01b0383166000908152600760205260408120556120bc60058461336c565b61210c57600580546001810182556000919091527f036b6384b5eca791c62761152d0c79bb0604c104a5fb6f4eb0703f3154bb3db00180546001600160a01b0319166001600160a01b0385161790555b506001600160a01b0382166000908152600660205260409020805460ff81161560ff19909116811790915561286c565b600184600981111561214a57fe5b14156122065761215d600a600985613282565b156121d6576001600160a01b0383166000908152600a602052604081205561218660088461336c565b6121d657600880546001810182556000919091527ff3f7a9fe364faab93b216da50a3214154f22a0a2b415b23a84c8169e8b636ee30180546001600160a01b0319166001600160a01b0385161790555b506001600160a01b0382166000908152600960205260409020805460ff81161560ff19909116811790915561286c565b600284600981111561221457fe5b14156122e0576122276004600385613282565b156122a0576001600160a01b03831660009081526004602052604081205561225060028461336c565b6122a057600280546001810182556000919091527f405787fa12a823e0f2b7631cc41b3ba8828b3321ca811111fa75cd3aa3bb5ace0180546001600160a01b0319166001600160a01b0385161790555b506001600160a01b0382166000908152600360209081526040808320805460ff81161560ff199091168117909155601e909252909120612710905561286c565b60038460098111156122ee57fe5b14156123e7576123016013601285613282565b156123b757601180546001810182557f31ecc21a745e3968a04e9570e4425bc18fa8019c68028196b546d1669c200c680180546001600160a01b0319166001600160a01b038616908117909155600090815260136020526040812055612367908461336c565b6123b757601180546001810182556000919091527f31ecc21a745e3968a04e9570e4425bc18fa8019c68028196b546d1669c200c680180546001600160a01b0319166001600160a01b0385161790555b506001600160a01b0382166000908152601260205260409020805460ff81161560ff19909116811790915561286c565b60048460098111156123f557fe5b14156124ee576124086010600f85613282565b156124be57600e80546001810182557fbb7b4a454dc3493923482f07822329ed19e8244eff582cc204f8554c3620c3fd0180546001600160a01b0319166001600160a01b03861690811790915560009081526010602052604081205561246e908461336c565b6124be57600e80546001810182556000919091527fbb7b4a454dc3493923482f07822329ed19e8244eff582cc204f8554c3620c3fd0180546001600160a01b0319166001600160a01b0385161790555b506001600160a01b0382166000908152600f60205260409020805460ff81161560ff19909116811790915561286c565b60058460098111156124fc57fe5b14156125c85761250f600d600c85613282565b15612588576001600160a01b0383166000908152600d6020526040812055612538600b8461336c565b61258857600b80546001810182556000919091527f0175b7a638427703f0dbe7bb9bbf987a2551717b34e79f33b5b1008d1fa01db90180546001600160a01b0319166001600160a01b0385161790555b506001600160a01b0382166000908152600c60209081526040808320805460ff81161560ff199091168117909155601e909252909120612710905561286c565b60068460098111156125d657fe5b1415612692576125e96016601585613282565b15612662576001600160a01b03831660009081526016602052604081205561261260148461336c565b61266257601480546001810182556000919091527fce6d7b5282bd9a3661ae061feed1dbda4e52ab073b1f9285be6e155d9c38d4ec0180546001600160a01b0319166001600160a01b0385161790555b506001600160a01b0382166000908152601560205260409020805460ff81161560ff19909116811790915561286c565b60078460098111156126a057fe5b141561275c576126b36019601885613282565b1561272c576001600160a01b0383166000908152601960205260408120556126dc60178461336c565b61272c57601780546001810182556000919091527fc624b66cc0138b8fabc209247f72d758e1cf3343756d543badbf24212bed8c150180546001600160a01b0319166001600160a01b0385161790555b506001600160a01b0382166000908152601860205260409020805460ff81161560ff19909116811790915561286c565b600884600981111561276a57fe5b14156128265761277d601d601c85613282565b156127f6576001600160a01b0383166000908152601d60205260408120556127a6601b8461336c565b6127f657601b80546001810182556000919091527f3ad8aa4f87544323a9d1e5dd902f40c356527a7955687113db5f9a85ad579dc10180546001600160a01b0319166001600160a01b0385161790555b506001600160a01b0382166000908152601c60205260409020805460ff81161560ff19909116811790915561286c565b600984600981111561283457fe5b141561286257506000602055601f80546001600160a01b0319166001600160a01b038416179055600161286c565b600091505061200a565b83600981111561287857fe5b604080516001600160a01b0386168152831515602082015281517f0dcacb7e392f3d6a216ed2660e3dcfd40b7793d33591db2ba185a6b8e44fc477929181900390910190a25060019392505050565b3360009081526018602052604090205460ff1661291a576040805162461bcd60e51b815260206004820152600c60248201526b139bdd08185c1c1c9bdd995960a21b604482015290519081900360640190fd5b6001600160a01b03811660009081526003602052604090205460ff16612976576040805162461bcd60e51b815260206004820152600c60248201526b139bdd081858d8d95c1d195960a21b604482015290519081900360640190fd5b61298b6001600160a01b038216333085613222565b60006129978284611cf1565b336000908152601a60205260409020549091506129b4908261308d565b336000908152601a60205260409020556022546129d1908261308d565b6022556021546129e1908261312d565b602181905560405160008051602061377d83398151915290600090a2604080518481526020810183905281516001600160a01b0385169233927fc6d98eecfc9c78ab62c89a82950079b54874749f1f6f24090f7acc758bc2f309929081900390910190a3505050565b60156020526000908152604090205460ff1681565b600080546001600160a01b03163314612aad576040805162461bcd60e51b8152602060048201819052602482015260008051602061375d833981519152604482015290519081900360640190fd5b6001600160a01b038216612ac057600080fd5b6000836009811115612ace57fe5b1415612b1c57612afe437f000000000000000000000000000000000000000000000000000000000000000061312d565b6001600160a01b038316600090815260076020526040902055612e59565b6001836009811115612b2a57fe5b1415612b7857612b5a437f000000000000000000000000000000000000000000000000000000000000000061312d565b6001600160a01b0383166000908152600a6020526040902055612e59565b6002836009811115612b8657fe5b1415612bd457612bb6437f000000000000000000000000000000000000000000000000000000000000000061312d565b6001600160a01b038316600090815260046020526040902055612e59565b6003836009811115612be257fe5b1415612c3b57612c1d612c167f00000000000000000000000000000000000000000000000000000000000000006002613187565b439061312d565b6001600160a01b038316600090815260136020526040902055612e59565b6004836009811115612c4957fe5b1415612c9757612c79437f000000000000000000000000000000000000000000000000000000000000000061312d565b6001600160a01b038316600090815260106020526040902055612e59565b6005836009811115612ca557fe5b1415612cf357612cd5437f000000000000000000000000000000000000000000000000000000000000000061312d565b6001600160a01b0383166000908152600d6020526040902055612e59565b6006836009811115612d0157fe5b1415612d5357612d35612c167f00000000000000000000000000000000000000000000000000000000000000006002613187565b6001600160a01b038316600090815260166020526040902055612e59565b6007836009811115612d6157fe5b1415612daf57612d91437f000000000000000000000000000000000000000000000000000000000000000061312d565b6001600160a01b038316600090815260196020526040902055612e59565b6008836009811115612dbd57fe5b1415612e0b57612ded437f000000000000000000000000000000000000000000000000000000000000000061312d565b6001600160a01b0383166000908152601d6020526040902055612e59565b6009836009811115612e1957fe5b1415612e5157612e49437f000000000000000000000000000000000000000000000000000000000000000061312d565b602055612e59565b50600061200a565b826009811115612e6557fe5b604080516001600160a01b038516815290517f0e4f2c4b5bc209d509bc3d49348c787fefadc66a79351b470599ac0f5be52eaf9181900360200190a250600192915050565b60126020526000908152604090205460ff1681565b60186020526000908152604090205460ff1681565b601d6020526000908152604090205481565b60225481565b600b8181548110610bde57600080fd5b3360009081526018602052604090205460ff16612f4f576040805162461bcd60e51b815260206004820152600c60248201526b139bdd08185c1c1c9bdd995960a21b604482015290519081900360640190fd5b6040805163079cc67960e41b81523360048201526024810183905290516001600160a01b037f000000000000000000000000000000000000000000000000000000000000000016916379cc679091604480830192600092919082900301818387803b158015612fbd57600080fd5b505af1158015612fd1573d6000803e3d6000fd5b5050336000908152601a6020526040902054612ff0925090508261308d565b336000908152601a602052604090205560225461300d908261308d565b602255604080518281526020810183905281516001600160a01b037f0000000000000000000000000000000000000000000000000000000000000000169233927fc6d98eecfc9c78ab62c89a82950079b54874749f1f6f24090f7acc758bc2f309929081900390910190a350565b60106020526000908152604090205481565b60006130cf83836040518060400160405280601e81526020017f536166654d6174683a207375627472616374696f6e206f766572666c6f7700008152506133bc565b9392505050565b604080516001600160a01b038416602482015260448082018490528251808303909101815260649091019091526020810180516001600160e01b031663a9059cbb60e01b179052613128908490613453565b505050565b6000828201838110156130cf576040805162461bcd60e51b815260206004820152601b60248201527f536166654d6174683a206164646974696f6e206f766572666c6f770000000000604482015290519081900360640190fd5b6000826131965750600061200a565b828202828482816131a357fe5b04146130cf5760405162461bcd60e51b815260040180806020018281038252602181526020018061373c6021913960400191505060405180910390fd5b60006130cf83836040518060400160405280601a81526020017f536166654d6174683a206469766973696f6e206279207a65726f000000000000815250613504565b604080516001600160a01b0380861660248301528416604482015260648082018490528251808303909101815260849091019091526020810180516001600160e01b03166323b872dd60e01b17905261327c908590613453565b50505050565b6001600160a01b03811660009081526020839052604081205460ff16613362576001600160a01b0382166000908152602085905260409020546132f9576040805162461bcd60e51b815260206004820152600a6024820152694d75737420717565756560b01b604482015290519081900360640190fd5b6001600160a01b03821660009081526020859052604090205443101561335a576040805162461bcd60e51b8152602060048201526011602482015270145d595d59481b9bdd08195e1c1a5c9959607a1b604482015290519081900360640190fd5b5060016130cf565b5060009392505050565b6000805b835481101561336257826001600160a01b031684828154811061338f57fe5b6000918252602090912001546001600160a01b031614156133b457600191505061200a565b600101613370565b6000818484111561344b5760405162461bcd60e51b81526004018080602001828103825283818151815260200191508051906020019080838360005b838110156134105781810151838201526020016133f8565b50505050905090810190601f16801561343d5780820380516001836020036101000a031916815260200191505b509250505060405180910390fd5b505050900390565b60606134a8826040518060400160405280602081526020017f5361666545524332303a206c6f772d6c6576656c2063616c6c206661696c6564815250856001600160a01b03166135699092919063ffffffff16565b805190915015613128578080602001905160208110156134c757600080fd5b50516131285760405162461bcd60e51b815260040180806020018281038252602a81526020018061379d602a913960400191505060405180910390fd5b600081836135535760405162461bcd60e51b81526020600482018181528351602484015283519092839260449091019190850190808383600083156134105781810151838201526020016133f8565b50600083858161355f57fe5b0495945050505050565b60606135788484600085613580565b949350505050565b606061358b856136ed565b6135dc576040805162461bcd60e51b815260206004820152601d60248201527f416464726573733a2063616c6c20746f206e6f6e2d636f6e7472616374000000604482015290519081900360640190fd5b60006060866001600160a01b031685876040518082805190602001908083835b6020831061361b5780518252601f1990920191602091820191016135fc565b6001836020036101000a03801982511681845116808217855250505050505090500191505060006040518083038185875af1925050503d806000811461367d576040519150601f19603f3d011682016040523d82523d6000602084013e613682565b606091505b509150915081156136965791506135789050565b8051156136a65780518082602001fd5b60405162461bcd60e51b81526020600482018181528651602484015286518793919283926044019190850190808383600083156134105781810151838201526020016133f8565b3b15159056fe4f776e61626c653a206e6577206f776e657220697320746865207a65726f20616464726573734f776e61626c653a206d757374206265206e6577206f776e657220746f2070756c6c536166654d6174683a206d756c7469706c69636174696f6e206f766572666c6f774f776e61626c653a2063616c6c6572206973206e6f7420746865206f776e657293bb8edd35984706eee1b92541281f7f62d33c01c5b2ec0929a113603bd21d665361666545524332303a204552433230206f7065726174696f6e20646964206e6f742073756363656564a2646970667358221220f6833e2f8ae9bb472b6d3feff0a4766a2a41249e5c6ee30fd6dd0105f885db2764736f6c63430007050033",
  "devdoc": {
    "kind": "dev",
    "methods": {
      "deposit(uint256,address,uint256)": {
        "params": {
          "_amount": "uint",
          "_profit": "uint",
          "_token": "address"
        },
        "returns": {
          "send_": "uint"
        }
      },
      "excessReserves()": {
        "returns": {
          "_0": "uint"
        }
      },
      "incurDebt(uint256,address)": {
        "params": {
          "_amount": "uint",
          "_token": "address"
        }
      },
      "manage(address,uint256)": {
        "params": {
          "_amount": "uint",
          "_token": "address"
        }
      },
      "queue(uint8,address)": {
        "params": {
          "_address": "address",
          "_managing": "MANAGING"
        },
        "returns": {
          "_0": "bool"
        }
      },
      "repayDebtWithLOBI(uint256)": {
        "params": {
          "_amount": "uint"
        }
      },
      "repayDebtWithReserve(uint256,address)": {
        "params": {
          "_amount": "uint",
          "_token": "address"
        }
      },
      "toggle(uint8,address)": {
        "params": {
          "_address": "address",
          "_managing": "MANAGING"
        },
        "returns": {
          "_0": "bool"
        }
      },
      "valueOfToken(address,uint256)": {
        "params": {
          "_amount": "uint",
          "_token": "address"
        },
        "returns": {
          "value_": "uint"
        }
      },
      "withdraw(uint256,address)": {
        "params": {
          "_amount": "uint",
          "_token": "address"
        }
      }
    },
    "version": 1
  },
  "userdoc": {
    "kind": "user",
    "methods": {
      "auditReserves()": {
        "notice": "takes inventory of all tracked assetsalways consolidate to recognized reserves before audit"
      },
      "deposit(uint256,address,uint256)": {
        "notice": "allow approved address to deposit an asset for LOBI"
      },
      "excessReserves()": {
        "notice": "returns excess reserves not backing tokens"
      },
      "incurDebt(uint256,address)": {
        "notice": "allow approved address to borrow reserves"
      },
      "manage(address,uint256)": {
        "notice": "allow approved address to withdraw assets"
      },
      "mintRewards(address,uint256)": {
        "notice": "send epoch reward to staking contract"
      },
      "queue(uint8,address)": {
        "notice": "queue address to change boolean in mapping"
      },
      "repayDebtWithLOBI(uint256)": {
        "notice": "allow approved address to repay borrowed reserves with LOBI"
      },
      "repayDebtWithReserve(uint256,address)": {
        "notice": "allow approved address to repay borrowed reserves with reserves"
      },
      "toggle(uint8,address)": {
        "notice": "verify queue then set boolean in mapping"
      },
      "valueOfToken(address,uint256)": {
        "notice": "returns LOBI valuation of asset"
      },
      "withdraw(uint256,address)": {
        "notice": "allow approved address to burn LOBI for reserves"
      }
    },
    "version": 1
  },
  "storageLayout": {
    "storage": [
      {
        "astId": 284,
        "contract": "contracts/LobisTreasury.sol:LobisTreasury",
        "label": "_owner",
        "offset": 0,
        "slot": "0",
        "type": "t_address"
      },
      {
        "astId": 286,
        "contract": "contracts/LobisTreasury.sol:LobisTreasury",
        "label": "_newOwner",
        "offset": 0,
        "slot": "1",
        "type": "t_address"
      },
      {
        "astId": 709,
        "contract": "contracts/LobisTreasury.sol:LobisTreasury",
        "label": "reserveTokens",
        "offset": 0,
        "slot": "2",
        "type": "t_array(t_address)dyn_storage"
      },
      {
        "astId": 713,
        "contract": "contracts/LobisTreasury.sol:LobisTreasury",
        "label": "isReserveToken",
        "offset": 0,
        "slot": "3",
        "type": "t_mapping(t_address,t_bool)"
      },
      {
        "astId": 717,
        "contract": "contracts/LobisTreasury.sol:LobisTreasury",
        "label": "reserveTokenQueue",
        "offset": 0,
        "slot": "4",
        "type": "t_mapping(t_address,t_uint256)"
      },
      {
        "astId": 720,
        "contract": "contracts/LobisTreasury.sol:LobisTreasury",
        "label": "reserveDepositors",
        "offset": 0,
        "slot": "5",
        "type": "t_array(t_address)dyn_storage"
      },
      {
        "astId": 724,
        "contract": "contracts/LobisTreasury.sol:LobisTreasury",
        "label": "isReserveDepositor",
        "offset": 0,
        "slot": "6",
        "type": "t_mapping(t_address,t_bool)"
      },
      {
        "astId": 728,
        "contract": "contracts/LobisTreasury.sol:LobisTreasury",
        "label": "reserveDepositorQueue",
        "offset": 0,
        "slot": "7",
        "type": "t_mapping(t_address,t_uint256)"
      },
      {
        "astId": 731,
        "contract": "contracts/LobisTreasury.sol:LobisTreasury",
        "label": "reserveSpenders",
        "offset": 0,
        "slot": "8",
        "type": "t_array(t_address)dyn_storage"
      },
      {
        "astId": 735,
        "contract": "contracts/LobisTreasury.sol:LobisTreasury",
        "label": "isReserveSpender",
        "offset": 0,
        "slot": "9",
        "type": "t_mapping(t_address,t_bool)"
      },
      {
        "astId": 739,
        "contract": "contracts/LobisTreasury.sol:LobisTreasury",
        "label": "reserveSpenderQueue",
        "offset": 0,
        "slot": "10",
        "type": "t_mapping(t_address,t_uint256)"
      },
      {
        "astId": 742,
        "contract": "contracts/LobisTreasury.sol:LobisTreasury",
        "label": "liquidityTokens",
        "offset": 0,
        "slot": "11",
        "type": "t_array(t_address)dyn_storage"
      },
      {
        "astId": 746,
        "contract": "contracts/LobisTreasury.sol:LobisTreasury",
        "label": "isLiquidityToken",
        "offset": 0,
        "slot": "12",
        "type": "t_mapping(t_address,t_bool)"
      },
      {
        "astId": 750,
        "contract": "contracts/LobisTreasury.sol:LobisTreasury",
        "label": "LiquidityTokenQueue",
        "offset": 0,
        "slot": "13",
        "type": "t_mapping(t_address,t_uint256)"
      },
      {
        "astId": 753,
        "contract": "contracts/LobisTreasury.sol:LobisTreasury",
        "label": "liquidityDepositors",
        "offset": 0,
        "slot": "14",
        "type": "t_array(t_address)dyn_storage"
      },
      {
        "astId": 757,
        "contract": "contracts/LobisTreasury.sol:LobisTreasury",
        "label": "isLiquidityDepositor",
        "offset": 0,
        "slot": "15",
        "type": "t_mapping(t_address,t_bool)"
      },
      {
        "astId": 761,
        "contract": "contracts/LobisTreasury.sol:LobisTreasury",
        "label": "LiquidityDepositorQueue",
        "offset": 0,
        "slot": "16",
        "type": "t_mapping(t_address,t_uint256)"
      },
      {
        "astId": 764,
        "contract": "contracts/LobisTreasury.sol:LobisTreasury",
        "label": "reserveManagers",
        "offset": 0,
        "slot": "17",
        "type": "t_array(t_address)dyn_storage"
      },
      {
        "astId": 768,
        "contract": "contracts/LobisTreasury.sol:LobisTreasury",
        "label": "isReserveManager",
        "offset": 0,
        "slot": "18",
        "type": "t_mapping(t_address,t_bool)"
      },
      {
        "astId": 772,
        "contract": "contracts/LobisTreasury.sol:LobisTreasury",
        "label": "ReserveManagerQueue",
        "offset": 0,
        "slot": "19",
        "type": "t_mapping(t_address,t_uint256)"
      },
      {
        "astId": 775,
        "contract": "contracts/LobisTreasury.sol:LobisTreasury",
        "label": "liquidityManagers",
        "offset": 0,
        "slot": "20",
        "type": "t_array(t_address)dyn_storage"
      },
      {
        "astId": 779,
        "contract": "contracts/LobisTreasury.sol:LobisTreasury",
        "label": "isLiquidityManager",
        "offset": 0,
        "slot": "21",
        "type": "t_mapping(t_address,t_bool)"
      },
      {
        "astId": 783,
        "contract": "contracts/LobisTreasury.sol:LobisTreasury",
        "label": "LiquidityManagerQueue",
        "offset": 0,
        "slot": "22",
        "type": "t_mapping(t_address,t_uint256)"
      },
      {
        "astId": 786,
        "contract": "contracts/LobisTreasury.sol:LobisTreasury",
        "label": "debtors",
        "offset": 0,
        "slot": "23",
        "type": "t_array(t_address)dyn_storage"
      },
      {
        "astId": 790,
        "contract": "contracts/LobisTreasury.sol:LobisTreasury",
        "label": "isDebtor",
        "offset": 0,
        "slot": "24",
        "type": "t_mapping(t_address,t_bool)"
      },
      {
        "astId": 794,
        "contract": "contracts/LobisTreasury.sol:LobisTreasury",
        "label": "debtorQueue",
        "offset": 0,
        "slot": "25",
        "type": "t_mapping(t_address,t_uint256)"
      },
      {
        "astId": 798,
        "contract": "contracts/LobisTreasury.sol:LobisTreasury",
        "label": "debtorBalance",
        "offset": 0,
        "slot": "26",
        "type": "t_mapping(t_address,t_uint256)"
      },
      {
        "astId": 801,
        "contract": "contracts/LobisTreasury.sol:LobisTreasury",
        "label": "rewardManagers",
        "offset": 0,
        "slot": "27",
        "type": "t_array(t_address)dyn_storage"
      },
      {
        "astId": 805,
        "contract": "contracts/LobisTreasury.sol:LobisTreasury",
        "label": "isRewardManager",
        "offset": 0,
        "slot": "28",
        "type": "t_mapping(t_address,t_bool)"
      },
      {
        "astId": 809,
        "contract": "contracts/LobisTreasury.sol:LobisTreasury",
        "label": "rewardManagerQueue",
        "offset": 0,
        "slot": "29",
        "type": "t_mapping(t_address,t_uint256)"
      },
      {
        "astId": 813,
        "contract": "contracts/LobisTreasury.sol:LobisTreasury",
        "label": "tokenFactors",
        "offset": 0,
        "slot": "30",
        "type": "t_mapping(t_address,t_uint256)"
      },
      {
        "astId": 815,
        "contract": "contracts/LobisTreasury.sol:LobisTreasury",
        "label": "sLOBI",
        "offset": 0,
        "slot": "31",
        "type": "t_address"
      },
      {
        "astId": 817,
        "contract": "contracts/LobisTreasury.sol:LobisTreasury",
        "label": "sLOBIQueue",
        "offset": 0,
        "slot": "32",
        "type": "t_uint256"
      },
      {
        "astId": 819,
        "contract": "contracts/LobisTreasury.sol:LobisTreasury",
        "label": "totalReserves",
        "offset": 0,
        "slot": "33",
        "type": "t_uint256"
      },
      {
        "astId": 821,
        "contract": "contracts/LobisTreasury.sol:LobisTreasury",
        "label": "totalDebt",
        "offset": 0,
        "slot": "34",
        "type": "t_uint256"
      }
    ],
    "types": {
      "t_address": {
        "encoding": "inplace",
        "label": "address",
        "numberOfBytes": "20"
      },
      "t_array(t_address)dyn_storage": {
        "base": "t_address",
        "encoding": "dynamic_array",
        "label": "address[]",
        "numberOfBytes": "32"
      },
      "t_bool": {
        "encoding": "inplace",
        "label": "bool",
        "numberOfBytes": "1"
      },
      "t_mapping(t_address,t_bool)": {
        "encoding": "mapping",
        "key": "t_address",
        "label": "mapping(address => bool)",
        "numberOfBytes": "32",
        "value": "t_bool"
      },
      "t_mapping(t_address,t_uint256)": {
        "encoding": "mapping",
        "key": "t_address",
        "label": "mapping(address => uint256)",
        "numberOfBytes": "32",
        "value": "t_uint256"
      },
      "t_uint256": {
        "encoding": "inplace",
        "label": "uint256",
        "numberOfBytes": "32"
      }
    }
  }
}