{
  "address": "0x3818eff63418e0a0BA3980ABA5fF388b029b6d90",
  "abi": [
    {
      "inputs": [
        {
          "internalType": "address",
          "name": "_LOBI",
          "type": "address"
        },
        {
          "internalType": "address",
          "name": "_sLOBI",
          "type": "address"
        },
        {
          "internalType": "uint256",
          "name": "_epochLength",
          "type": "uint256"
        },
        {
          "internalType": "uint256",
          "name": "_firstEpochNumber",
          "type": "uint256"
        },
        {
          "internalType": "uint256",
          "name": "_firstEpochBlock",
          "type": "uint256"
        }
      ],
      "stateMutability": "nonpayable",
      "type": "constructor"
    },
    {
      "anonymous": false,
      "inputs": [
        {
          "indexed": true,
          "internalType": "address",
          "name": "previousOwner",
          "type": "address"
        },
        {
          "indexed": true,
          "internalType": "address",
          "name": "newOwner",
          "type": "address"
        }
      ],
      "name": "OwnershipPulled",
      "type": "event"
    },
    {
      "anonymous": false,
      "inputs": [
        {
          "indexed": true,
          "internalType": "address",
          "name": "previousOwner",
          "type": "address"
        },
        {
          "indexed": true,
          "internalType": "address",
          "name": "newOwner",
          "type": "address"
        }
      ],
      "name": "OwnershipPushed",
      "type": "event"
    },
    {
      "inputs": [],
      "name": "LOBI",
      "outputs": [
        {
          "internalType": "address",
          "name": "",
          "type": "address"
        }
      ],
      "stateMutability": "view",
      "type": "function"
    },
    {
      "inputs": [
        {
          "internalType": "address",
          "name": "_recipient",
          "type": "address"
        }
      ],
      "name": "claim",
      "outputs": [],
      "stateMutability": "nonpayable",
      "type": "function"
    },
    {
      "inputs": [],
      "name": "contractBalance",
      "outputs": [
        {
          "internalType": "uint256",
          "name": "",
          "type": "uint256"
        }
      ],
      "stateMutability": "view",
      "type": "function"
    },
    {
      "inputs": [],
      "name": "distributor",
      "outputs": [
        {
          "internalType": "address",
          "name": "",
          "type": "address"
        }
      ],
      "stateMutability": "view",
      "type": "function"
    },
    {
      "inputs": [],
      "name": "epoch",
      "outputs": [
        {
          "internalType": "uint256",
          "name": "length",
          "type": "uint256"
        },
        {
          "internalType": "uint256",
          "name": "number",
          "type": "uint256"
        },
        {
          "internalType": "uint256",
          "name": "endBlock",
          "type": "uint256"
        },
        {
          "internalType": "uint256",
          "name": "distribute",
          "type": "uint256"
        }
      ],
      "stateMutability": "view",
      "type": "function"
    },
    {
      "inputs": [],
      "name": "forfeit",
      "outputs": [],
      "stateMutability": "nonpayable",
      "type": "function"
    },
    {
      "inputs": [
        {
          "internalType": "uint256",
          "name": "_amount",
          "type": "uint256"
        }
      ],
      "name": "giveLockBonus",
      "outputs": [],
      "stateMutability": "nonpayable",
      "type": "function"
    },
    {
      "inputs": [],
      "name": "index",
      "outputs": [
        {
          "internalType": "uint256",
          "name": "",
          "type": "uint256"
        }
      ],
      "stateMutability": "view",
      "type": "function"
    },
    {
      "inputs": [],
      "name": "locker",
      "outputs": [
        {
          "internalType": "address",
          "name": "",
          "type": "address"
        }
      ],
      "stateMutability": "view",
      "type": "function"
    },
    {
      "inputs": [],
      "name": "manager",
      "outputs": [
        {
          "internalType": "address",
          "name": "",
          "type": "address"
        }
      ],
      "stateMutability": "view",
      "type": "function"
    },
    {
      "inputs": [],
      "name": "pullManagement",
      "outputs": [],
      "stateMutability": "nonpayable",
      "type": "function"
    },
    {
      "inputs": [
        {
          "internalType": "address",
          "name": "newOwner_",
          "type": "address"
        }
      ],
      "name": "pushManagement",
      "outputs": [],
      "stateMutability": "nonpayable",
      "type": "function"
    },
    {
      "inputs": [],
      "name": "rebase",
      "outputs": [],
      "stateMutability": "nonpayable",
      "type": "function"
    },
    {
      "inputs": [],
      "name": "renounceManagement",
      "outputs": [],
      "stateMutability": "nonpayable",
      "type": "function"
    },
    {
      "inputs": [
        {
          "internalType": "uint256",
          "name": "_amount",
          "type": "uint256"
        }
      ],
      "name": "returnLockBonus",
      "outputs": [],
      "stateMutability": "nonpayable",
      "type": "function"
    },
    {
      "inputs": [],
      "name": "sLOBI",
      "outputs": [
        {
          "internalType": "address",
          "name": "",
          "type": "address"
        }
      ],
      "stateMutability": "view",
      "type": "function"
    },
    {
      "inputs": [
        {
          "internalType": "enum LobisStaking.CONTRACTS",
          "name": "_contract",
          "type": "uint8"
        },
        {
          "internalType": "address",
          "name": "_address",
          "type": "address"
        }
      ],
      "name": "setContract",
      "outputs": [],
      "stateMutability": "nonpayable",
      "type": "function"
    },
    {
      "inputs": [
        {
          "internalType": "uint256",
          "name": "_warmupPeriod",
          "type": "uint256"
        }
      ],
      "name": "setWarmup",
      "outputs": [],
      "stateMutability": "nonpayable",
      "type": "function"
    },
    {
      "inputs": [
        {
          "internalType": "uint256",
          "name": "_amount",
          "type": "uint256"
        },
        {
          "internalType": "address",
          "name": "_recipient",
          "type": "address"
        }
      ],
      "name": "stake",
      "outputs": [
        {
          "internalType": "bool",
          "name": "",
          "type": "bool"
        }
      ],
      "stateMutability": "nonpayable",
      "type": "function"
    },
    {
      "inputs": [],
      "name": "toggleDepositLock",
      "outputs": [],
      "stateMutability": "nonpayable",
      "type": "function"
    },
    {
      "inputs": [],
      "name": "totalBonus",
      "outputs": [
        {
          "internalType": "uint256",
          "name": "",
          "type": "uint256"
        }
      ],
      "stateMutability": "view",
      "type": "function"
    },
    {
      "inputs": [
        {
          "internalType": "uint256",
          "name": "_amount",
          "type": "uint256"
        },
        {
          "internalType": "bool",
          "name": "_trigger",
          "type": "bool"
        }
      ],
      "name": "unstake",
      "outputs": [],
      "stateMutability": "nonpayable",
      "type": "function"
    },
    {
      "inputs": [],
      "name": "warmupContract",
      "outputs": [
        {
          "internalType": "address",
          "name": "",
          "type": "address"
        }
      ],
      "stateMutability": "view",
      "type": "function"
    },
    {
      "inputs": [
        {
          "internalType": "address",
          "name": "",
          "type": "address"
        }
      ],
      "name": "warmupInfo",
      "outputs": [
        {
          "internalType": "uint256",
          "name": "deposit",
          "type": "uint256"
        },
        {
          "internalType": "uint256",
          "name": "gons",
          "type": "uint256"
        },
        {
          "internalType": "uint256",
          "name": "expiry",
          "type": "uint256"
        },
        {
          "internalType": "bool",
          "name": "lock",
          "type": "bool"
        }
      ],
      "stateMutability": "view",
      "type": "function"
    },
    {
      "inputs": [],
      "name": "warmupPeriod",
      "outputs": [
        {
          "internalType": "uint256",
          "name": "",
          "type": "uint256"
        }
      ],
      "stateMutability": "view",
      "type": "function"
    }
  ],
  "transactionHash": "0x05de52add224a7817bf49a21fdede544e3355399023ffacb80c3c5050826c110",
  "args": [
    "0xDEc41Db0c33F3F6f3cb615449C311ba22D418A8d",
    "0x8Ab17e2cd4F894F8641A31f99F673a5762F53c8e",
    "2200",
    "1",
    13672556
  ],
  "solcInputHash": "906c9c79c70f969ee6937c742869914f",
  "bytecode": "0x60c060405234801561001057600080fd5b506040516119d13803806119d1833981810160405260a081101561003357600080fd5b50805160208201516040808401516060850151608090950151600080546001600160a01b031916331780825593519596949592949391926001600160a01b0392909216917fea8258f2d9ddb679928cf34b78cf645b7feda9acc828e4dd82d014eaae270eba908290a36001600160a01b0385166100af57600080fd5b6001600160601b0319606086901b166080526001600160a01b0384166100d457600080fd5b6001600160601b0319606094851b1660a0526040805160808101825284815260208101849052908101829052600094018490526002929092556003556004556005555060805160601c60a05160601c61184b6101866000398061040b52806105a55280610686528061080c5280610a0f5280610b1b5280610dc25280610e535280610fae528061117552806112bd5250806109195280610cd25280610df75280610e20528061125c525061184b6000f3fe608060405234801561001057600080fd5b50600436106101735760003560e01c80638f077b83116100de578063bfe1092811610097578063deac361a11610071578063deac361a1461039e578063ed4acaa8146103a6578063f3d86e4a146103ae578063f62ae76a146103b657610173565b8063bfe1092814610371578063c9f464ff14610379578063d7b96d4e1461039657610173565b80638f077b83146102fe578063900cf0cf146103065780639ebea88c14610334578063a5ffd19714610359578063a8dd07dc14610361578063af14052c1461036957610173565b80634cf731dc116101305780634cf731dc146102295780635a96ac0a146102315780636746f4c2146102395780637acb775714610287578063865e6fd3146102c75780638b7afe2e146102f657610173565b806303c2367014610178578063089208d8146101975780631e83409a1461019f5780632986c0e5146101c557806346f68ee9146101df578063481c6a7514610205575b600080fd5b6101956004803603602081101561018e57600080fd5b50356103d3565b005b610195610437565b610195600480360360208110156101b557600080fd5b50356001600160a01b03166104ce565b6101cd610682565b60408051918252519081900360200190f35b610195600480360360208110156101f557600080fd5b50356001600160a01b031661070e565b61020d6107fb565b604080516001600160a01b039092168252519081900360200190f35b61020d61080a565b61019561082e565b61025f6004803603602081101561024f57600080fd5b50356001600160a01b03166108d8565b6040805194855260208501939093528383019190915215156060830152519081900360800190f35b6102b36004803603604081101561029d57600080fd5b50803590602001356001600160a01b0316610902565b604080519115158252519081900360200190f35b610195600480360360408110156102dd57600080fd5b50803560ff1690602001356001600160a01b0316610b4e565b6101cd610cc8565b610195610d74565b61030e610d98565b604080519485526020850193909352838301919091526060830152519081900360800190f35b6101956004803603604081101561034a57600080fd5b50803590602001351515610da7565b61020d610e1e565b6101cd610e42565b610195610e48565b61020d611056565b6101956004803603602081101561038f57600080fd5b5035611065565b61020d6110b7565b6101cd6110c6565b61020d6110cc565b6101956110db565b610195600480360360208110156103cc57600080fd5b5035611285565b6007546001600160a01b031633146103ea57600080fd5b6008546103f790826112e7565b600855600754610434906001600160a01b037f00000000000000000000000000000000000000000000000000000000000000008116911683611348565b50565b6000546001600160a01b03163314610484576040805162461bcd60e51b815260206004820181905260248201526000805160206117cc833981519152604482015290519081900360640190fd5b600080546040516001600160a01b03909116907fea8258f2d9ddb679928cf34b78cf645b7feda9acc828e4dd82d014eaae270eba908390a3600080546001600160a01b0319169055565b6104d6611713565b506001600160a01b0381166000908152600b6020908152604091829020825160808101845281548152600182015492810192909252600281015492820183905260039081015460ff16151560608301525490911180159061053a5750604081015115155b1561067e576001600160a01b038083166000908152600b602090815260408083208381556001810184905560028101939093556003909201805460ff19169055600954848201518351637965d56d60e01b8152600481019190915292519084169363c3a2a6659387937f000000000000000000000000000000000000000000000000000000000000000090921692637965d56d92602480840193919291829003018186803b1580156105eb57600080fd5b505afa1580156105ff573d6000803e3d6000fd5b505050506040513d602081101561061557600080fd5b5051604080516001600160e01b031960e086901b1681526001600160a01b039093166004840152602483019190915251604480830192600092919082900301818387803b15801561066557600080fd5b505af1158015610679573d6000803e3d6000fd5b505050505b5050565b60007f00000000000000000000000000000000000000000000000000000000000000006001600160a01b0316632986c0e56040518163ffffffff1660e01b815260040160206040518083038186803b1580156106dd57600080fd5b505afa1580156106f1573d6000803e3d6000fd5b505050506040513d602081101561070757600080fd5b5051905090565b6000546001600160a01b0316331461075b576040805162461bcd60e51b815260206004820181905260248201526000805160206117cc833981519152604482015290519081900360640190fd5b6001600160a01b0381166107a05760405162461bcd60e51b81526004018080602001828103825260268152602001806117616026913960400191505060405180910390fd5b600080546040516001600160a01b03808516939216917fea8258f2d9ddb679928cf34b78cf645b7feda9acc828e4dd82d014eaae270eba91a3600180546001600160a01b0319166001600160a01b0392909216919091179055565b6000546001600160a01b031690565b7f000000000000000000000000000000000000000000000000000000000000000081565b6001546001600160a01b031633146108775760405162461bcd60e51b81526004018080602001828103825260228152602001806117aa6022913960400191505060405180910390fd5b600154600080546040516001600160a01b0393841693909116917faa151555690c956fc3ea32f106bb9f119b5237a061eaa8557cff3e51e3792c8d91a3600154600080546001600160a01b0319166001600160a01b03909216919091179055565b600b6020526000908152604090208054600182015460028301546003909301549192909160ff1684565b600061090c610e48565b6109416001600160a01b037f00000000000000000000000000000000000000000000000000000000000000001633308661139f565b610949611713565b506001600160a01b0382166000908152600b602090815260409182902082516080810184528154815260018201549281019290925260028101549282019290925260039091015460ff1615801560608301526109ec576040805162461bcd60e51b815260206004820152601f60248201527f4465706f7369747320666f72206163636f756e7420617265206c6f636b656400604482015290519081900360640190fd5b604080516080810190915281518190610a0590876112e7565b8152602001610aa87f00000000000000000000000000000000000000000000000000000000000000006001600160a01b0316631bd39674886040518263ffffffff1660e01b81526004018082815260200191505060206040518083038186803b158015610a7157600080fd5b505afa158015610a85573d6000803e3d6000fd5b505050506040513d6020811015610a9b57600080fd5b50516020850151906112e7565b8152600a54600354602090920191610abf916112e7565b8152600060209182018190526001600160a01b038681168252600b8352604091829020845181559284015160018401559083015160028301556060909201516003909101805460ff1916911515919091179055600954610b44917f00000000000000000000000000000000000000000000000000000000000000008116911686611348565b5060019392505050565b6000546001600160a01b03163314610b9b576040805162461bcd60e51b815260206004820181905260248201526000805160206117cc833981519152604482015290519081900360640190fd5b6000826002811115610ba957fe5b1415610bcf57600680546001600160a01b0319166001600160a01b03831617905561067e565b6001826002811115610bdd57fe5b1415610c4b576009546001600160a01b031615610c2b5760405162461bcd60e51b81526004018080602001828103825260238152602001806117876023913960400191505060405180910390fd5b600980546001600160a01b0319166001600160a01b03831617905561067e565b6002826002811115610c5957fe5b141561067e576007546001600160a01b031615610ca75760405162461bcd60e51b815260040180806020018281038252602381526020018061173e6023913960400191505060405180910390fd5b600780546001600160a01b0383166001600160a01b03199091161790555050565b6000610d6f6008547f00000000000000000000000000000000000000000000000000000000000000006001600160a01b03166370a08231306040518263ffffffff1660e01b815260040180826001600160a01b0316815260200191505060206040518083038186803b158015610d3d57600080fd5b505afa158015610d51573d6000803e3d6000fd5b505050506040513d6020811015610d6757600080fd5b5051906112e7565b905090565b336000908152600b60205260409020600301805460ff19811660ff90911615179055565b60025460035460045460055484565b8015610db557610db5610e48565b610dea6001600160a01b037f00000000000000000000000000000000000000000000000000000000000000001633308561139f565b61067e6001600160a01b037f0000000000000000000000000000000000000000000000000000000000000000163384611348565b7f000000000000000000000000000000000000000000000000000000000000000081565b60085481565b6004544310611054577f00000000000000000000000000000000000000000000000000000000000000006001600160a01b031663058ecdb46002600301546002600101546040518363ffffffff1660e01b81526004018083815260200182815260200192505050602060405180830381600087803b158015610ec957600080fd5b505af1158015610edd573d6000803e3d6000fd5b505050506040513d6020811015610ef357600080fd5b5050600254600454610f04916112e7565b6004556003805460010190556006546001600160a01b031615610f9e57600660009054906101000a90046001600160a01b03166001600160a01b031663e4fc6b6d6040518163ffffffff1660e01b8152600401602060405180830381600087803b158015610f7157600080fd5b505af1158015610f85573d6000803e3d6000fd5b505050506040513d6020811015610f9b57600080fd5b50505b6000610fa8610cc8565b905060007f00000000000000000000000000000000000000000000000000000000000000006001600160a01b0316639358928b6040518163ffffffff1660e01b815260040160206040518083038186803b15801561100557600080fd5b505afa158015611019573d6000803e3d6000fd5b505050506040513d602081101561102f57600080fd5b5051905080821161104457600060055561067e565b61104e82826113ff565b60055550505b565b6006546001600160a01b031681565b6000546001600160a01b031633146110b2576040805162461bcd60e51b815260206004820181905260248201526000805160206117cc833981519152604482015290519081900360640190fd5b600a55565b6007546001600160a01b031681565b600a5481565b6009546001600160a01b031681565b6110e3611713565b50336000818152600b602081815260408084208151608081018352815481526001820180548286019081526002840180548487015260038501805460ff8116151560608701529a8a5297875293889055908790559590915560ff1990951690925560095492518251637965d56d60e01b8152600481019190915291516001600160a01b039384169363c3a2a6659330937f000000000000000000000000000000000000000000000000000000000000000090921692637965d56d92602480840193919291829003018186803b1580156111bb57600080fd5b505afa1580156111cf573d6000803e3d6000fd5b505050506040513d60208110156111e557600080fd5b5051604080516001600160e01b031960e086901b1681526001600160a01b039093166004840152602483019190915251604480830192600092919082900301818387803b15801561123557600080fd5b505af1158015611249573d6000803e3d6000fd5b5050825161043492506001600160a01b037f00000000000000000000000000000000000000000000000000000000000000001691503390611348565b6007546001600160a01b0316331461129c57600080fd5b6008546112a990826113ff565b600855600754610434906001600160a01b037f000000000000000000000000000000000000000000000000000000000000000081169116308461139f565b600082820183811015611341576040805162461bcd60e51b815260206004820152601b60248201527f536166654d6174683a206164646974696f6e206f766572666c6f770000000000604482015290519081900360640190fd5b9392505050565b604080516001600160a01b038416602482015260448082018490528251808303909101815260649091019091526020810180516001600160e01b031663a9059cbb60e01b17905261139a908490611441565b505050565b604080516001600160a01b0380861660248301528416604482015260648082018490528251808303909101815260849091019091526020810180516001600160e01b03166323b872dd60e01b1790526113f9908590611441565b50505050565b600061134183836040518060400160405280601e81526020017f536166654d6174683a207375627472616374696f6e206f766572666c6f7700008152506114f2565b6060611496826040518060400160405280602081526020017f5361666545524332303a206c6f772d6c6576656c2063616c6c206661696c6564815250856001600160a01b03166115899092919063ffffffff16565b80519091501561139a578080602001905160208110156114b557600080fd5b505161139a5760405162461bcd60e51b815260040180806020018281038252602a8152602001806117ec602a913960400191505060405180910390fd5b600081848411156115815760405162461bcd60e51b81526004018080602001828103825283818151815260200191508051906020019080838360005b8381101561154657818101518382015260200161152e565b50505050905090810190601f1680156115735780820380516001836020036101000a031916815260200191505b509250505060405180910390fd5b505050900390565b606061159884846000856115a0565b949350505050565b60606115ab8561170d565b6115fc576040805162461bcd60e51b815260206004820152601d60248201527f416464726573733a2063616c6c20746f206e6f6e2d636f6e7472616374000000604482015290519081900360640190fd5b60006060866001600160a01b031685876040518082805190602001908083835b6020831061163b5780518252601f19909201916020918201910161161c565b6001836020036101000a03801982511681845116808217855250505050505090500191505060006040518083038185875af1925050503d806000811461169d576040519150601f19603f3d011682016040523d82523d6000602084013e6116a2565b606091505b509150915081156116b65791506115989050565b8051156116c65780518082602001fd5b60405162461bcd60e51b815260206004820181815286516024840152865187939192839260440191908501908083836000831561154657818101518382015260200161152e565b3b151590565b6040518060800160405280600081526020016000815260200160008152602001600015158152509056fe4c6f636b65722063616e6e6f7420626520736574206d6f7265207468616e206f6e63654f776e61626c653a206e6577206f776e657220697320746865207a65726f20616464726573735761726d75702063616e6e6f7420626520736574206d6f7265207468616e206f6e63654f776e61626c653a206d757374206265206e6577206f776e657220746f2070756c6c4f776e61626c653a2063616c6c6572206973206e6f7420746865206f776e65725361666545524332303a204552433230206f7065726174696f6e20646964206e6f742073756363656564a26469706673582212209cdeb100190a603198e2197ab0606a7216911f617e86d6572407d7e83bcc8e2f64736f6c63430007050033",
  "devdoc": {
    "kind": "dev",
    "methods": {
      "claim(address)": {
        "params": {
          "_recipient": "address"
        }
      },
      "contractBalance()": {
        "returns": {
          "_0": "uint"
        }
      },
      "giveLockBonus(uint256)": {
        "params": {
          "_amount": "uint"
        }
      },
      "index()": {
        "returns": {
          "_0": "uint"
        }
      },
      "returnLockBonus(uint256)": {
        "params": {
          "_amount": "uint"
        }
      },
      "setContract(uint8,address)": {
        "params": {
          "_contract": "address"
        }
      },
      "setWarmup(uint256)": {
        "params": {
          "_warmupPeriod": "uint"
        }
      },
      "stake(uint256,address)": {
        "params": {
          "_amount": "uint"
        },
        "returns": {
          "_0": "bool"
        }
      },
      "unstake(uint256,bool)": {
        "params": {
          "_amount": "uint",
          "_trigger": "bool"
        }
      }
    },
    "version": 1
  },
  "userdoc": {
    "kind": "user",
    "methods": {
      "claim(address)": {
        "notice": "retrieve sLOBI from warmup"
      },
      "contractBalance()": {
        "notice": "returns contract LOBI holdings, including bonuses provided"
      },
      "forfeit()": {
        "notice": "forfeit sLOBI in warmup and retrieve LOBI"
      },
      "giveLockBonus(uint256)": {
        "notice": "provide bonus to locked staking contract"
      },
      "index()": {
        "notice": "returns the sLOBI index, which tracks rebase growth"
      },
      "rebase()": {
        "notice": "trigger rebase if epoch over"
      },
      "returnLockBonus(uint256)": {
        "notice": "reclaim bonus from locked staking contract"
      },
      "setContract(uint8,address)": {
        "notice": "sets the contract address for LP staking"
      },
      "setWarmup(uint256)": {
        "notice": "set warmup period for new stakers"
      },
      "stake(uint256,address)": {
        "notice": "stake LOBI to enter warmup"
      },
      "toggleDepositLock()": {
        "notice": "prevent new deposits to address (protection from malicious activity)"
      },
      "unstake(uint256,bool)": {
        "notice": "redeem sLOBI for LOBI"
      }
    },
    "version": 1
  },
  "storageLayout": {
    "storage": [
      {
        "astId": 917,
        "contract": "contracts/LobisStaking.sol:LobisStaking",
        "label": "_owner",
        "offset": 0,
        "slot": "0",
        "type": "t_address"
      },
      {
        "astId": 919,
        "contract": "contracts/LobisStaking.sol:LobisStaking",
        "label": "_newOwner",
        "offset": 0,
        "slot": "1",
        "type": "t_address"
      },
      {
        "astId": 1120,
        "contract": "contracts/LobisStaking.sol:LobisStaking",
        "label": "epoch",
        "offset": 0,
        "slot": "2",
        "type": "t_struct(Epoch)1118_storage"
      },
      {
        "astId": 1122,
        "contract": "contracts/LobisStaking.sol:LobisStaking",
        "label": "distributor",
        "offset": 0,
        "slot": "6",
        "type": "t_address"
      },
      {
        "astId": 1124,
        "contract": "contracts/LobisStaking.sol:LobisStaking",
        "label": "locker",
        "offset": 0,
        "slot": "7",
        "type": "t_address"
      },
      {
        "astId": 1126,
        "contract": "contracts/LobisStaking.sol:LobisStaking",
        "label": "totalBonus",
        "offset": 0,
        "slot": "8",
        "type": "t_uint256"
      },
      {
        "astId": 1128,
        "contract": "contracts/LobisStaking.sol:LobisStaking",
        "label": "warmupContract",
        "offset": 0,
        "slot": "9",
        "type": "t_address"
      },
      {
        "astId": 1130,
        "contract": "contracts/LobisStaking.sol:LobisStaking",
        "label": "warmupPeriod",
        "offset": 0,
        "slot": "10",
        "type": "t_uint256"
      },
      {
        "astId": 1192,
        "contract": "contracts/LobisStaking.sol:LobisStaking",
        "label": "warmupInfo",
        "offset": 0,
        "slot": "11",
        "type": "t_mapping(t_address,t_struct(Claim)1188_storage)"
      }
    ],
    "types": {
      "t_address": {
        "encoding": "inplace",
        "label": "address",
        "numberOfBytes": "20"
      },
      "t_bool": {
        "encoding": "inplace",
        "label": "bool",
        "numberOfBytes": "1"
      },
      "t_mapping(t_address,t_struct(Claim)1188_storage)": {
        "encoding": "mapping",
        "key": "t_address",
        "label": "mapping(address => struct LobisStaking.Claim)",
        "numberOfBytes": "32",
        "value": "t_struct(Claim)1188_storage"
      },
      "t_struct(Claim)1188_storage": {
        "encoding": "inplace",
        "label": "struct LobisStaking.Claim",
        "members": [
          {
            "astId": 1181,
            "contract": "contracts/LobisStaking.sol:LobisStaking",
            "label": "deposit",
            "offset": 0,
            "slot": "0",
            "type": "t_uint256"
          },
          {
            "astId": 1183,
            "contract": "contracts/LobisStaking.sol:LobisStaking",
            "label": "gons",
            "offset": 0,
            "slot": "1",
            "type": "t_uint256"
          },
          {
            "astId": 1185,
            "contract": "contracts/LobisStaking.sol:LobisStaking",
            "label": "expiry",
            "offset": 0,
            "slot": "2",
            "type": "t_uint256"
          },
          {
            "astId": 1187,
            "contract": "contracts/LobisStaking.sol:LobisStaking",
            "label": "lock",
            "offset": 0,
            "slot": "3",
            "type": "t_bool"
          }
        ],
        "numberOfBytes": "128"
      },
      "t_struct(Epoch)1118_storage": {
        "encoding": "inplace",
        "label": "struct LobisStaking.Epoch",
        "members": [
          {
            "astId": 1111,
            "contract": "contracts/LobisStaking.sol:LobisStaking",
            "label": "length",
            "offset": 0,
            "slot": "0",
            "type": "t_uint256"
          },
          {
            "astId": 1113,
            "contract": "contracts/LobisStaking.sol:LobisStaking",
            "label": "number",
            "offset": 0,
            "slot": "1",
            "type": "t_uint256"
          },
          {
            "astId": 1115,
            "contract": "contracts/LobisStaking.sol:LobisStaking",
            "label": "endBlock",
            "offset": 0,
            "slot": "2",
            "type": "t_uint256"
          },
          {
            "astId": 1117,
            "contract": "contracts/LobisStaking.sol:LobisStaking",
            "label": "distribute",
            "offset": 0,
            "slot": "3",
            "type": "t_uint256"
          }
        ],
        "numberOfBytes": "128"
      },
      "t_uint256": {
        "encoding": "inplace",
        "label": "uint256",
        "numberOfBytes": "32"
      }
    }
  }
}