{
  "address": "0x0458B93396Fa2632ddbC6ab1046d2D87d1359e9f",
  "abi": [
    {
      "inputs": [
        {
          "internalType": "address",
          "name": "_staking",
          "type": "address"
        },
        {
          "internalType": "address",
          "name": "_sLOBI",
          "type": "address"
        }
      ],
      "stateMutability": "nonpayable",
      "type": "constructor"
    },
    {
      "inputs": [
        {
          "internalType": "address",
          "name": "_staker",
          "type": "address"
        },
        {
          "internalType": "uint256",
          "name": "_amount",
          "type": "uint256"
        }
      ],
      "name": "retrieve",
      "outputs": [],
      "stateMutability": "nonpayable",
      "type": "function"
    },
    {
      "inputs": [],
      "name": "sLOBI",
      "outputs": [
        {
          "internalType": "address",
          "name": "",
          "type": "address"
        }
      ],
      "stateMutability": "view",
      "type": "function"
    },
    {
      "inputs": [],
      "name": "staking",
      "outputs": [
        {
          "internalType": "address",
          "name": "",
          "type": "address"
        }
      ],
      "stateMutability": "view",
      "type": "function"
    }
  ],
  "transactionHash": "0xd89765ed9c94f1d831895dd7d33c032e1b7d452b0b658d73c7cb39cdef3f331b",
  "args": [
    "0x3818eff63418e0a0BA3980ABA5fF388b029b6d90",
    "0x8Ab17e2cd4F894F8641A31f99F673a5762F53c8e"
  ],
  "solcInputHash": "e25488bb413a2467bb7a63a8c9fa3731",
  "bytecode": "0x60c060405234801561001057600080fd5b506040516102b43803806102b48339818101604052604081101561003357600080fd5b5080516020909101516001600160a01b03821661004f57600080fd5b6001600160601b0319606083901b166080526001600160a01b03811661007457600080fd5b606081811b6001600160601b03191660a052608051901c91506001600160a01b03166101fa6100ba6000398060c6528061011f52508060a2528060f352506101fa6000f3fe608060405234801561001057600080fd5b50600436106100415760003560e01c80634cf088d9146100465780634cf731dc1461006a578063c3a2a66514610072575b600080fd5b61004e6100a0565b604080516001600160a01b039092168252519081900360200190f35b61004e6100c4565b61009e6004803603604081101561008857600080fd5b506001600160a01b0381351690602001356100e8565b005b7f000000000000000000000000000000000000000000000000000000000000000081565b7f000000000000000000000000000000000000000000000000000000000000000081565b336001600160a01b037f0000000000000000000000000000000000000000000000000000000000000000161461011d57600080fd5b7f00000000000000000000000000000000000000000000000000000000000000006001600160a01b031663a9059cbb83836040518363ffffffff1660e01b815260040180836001600160a01b0316815260200182815260200192505050602060405180830381600087803b15801561019457600080fd5b505af11580156101a8573d6000803e3d6000fd5b505050506040513d60208110156101be57600080fd5b5050505056fea2646970667358221220578b4d4a2000d0b356e0d444ece6b46b7e3bc3d8ae10020c656689dbfcc7677764736f6c63430007050033",
  "devdoc": {
    "kind": "dev",
    "methods": {},
    "version": 1
  },
  "userdoc": {
    "kind": "user",
    "methods": {},
    "version": 1
  },
  "storageLayout": {
    "storage": [],
    "types": null
  }
}