{
  "address": "0xf8a5b15E7C96ed29c1cC4a594fdAB5F0C60C8266",
  "abi": [
    {
      "inputs": [
        {
          "internalType": "address",
          "name": "_LOBI",
          "type": "address"
        },
        {
          "internalType": "address",
          "name": "_principle",
          "type": "address"
        },
        {
          "internalType": "address",
          "name": "_treasury",
          "type": "address"
        },
        {
          "internalType": "address",
          "name": "_DAO",
          "type": "address"
        },
        {
          "internalType": "address",
          "name": "_partnerDAO",
          "type": "address"
        }
      ],
      "stateMutability": "nonpayable",
      "type": "constructor"
    },
    {
      "anonymous": false,
      "inputs": [
        {
          "indexed": false,
          "internalType": "uint256",
          "name": "deposit",
          "type": "uint256"
        },
        {
          "indexed": true,
          "internalType": "uint256",
          "name": "payout",
          "type": "uint256"
        },
        {
          "indexed": true,
          "internalType": "uint256",
          "name": "expires",
          "type": "uint256"
        },
        {
          "indexed": true,
          "internalType": "uint256",
          "name": "priceInUSD",
          "type": "uint256"
        }
      ],
      "name": "BondCreated",
      "type": "event"
    },
    {
      "anonymous": false,
      "inputs": [
        {
          "indexed": true,
          "internalType": "uint256",
          "name": "priceInUSD",
          "type": "uint256"
        },
        {
          "indexed": true,
          "internalType": "uint256",
          "name": "internalPrice",
          "type": "uint256"
        },
        {
          "indexed": true,
          "internalType": "uint256",
          "name": "debtRatio",
          "type": "uint256"
        }
      ],
      "name": "BondPriceChanged",
      "type": "event"
    },
    {
      "anonymous": false,
      "inputs": [
        {
          "indexed": true,
          "internalType": "address",
          "name": "recipient",
          "type": "address"
        },
        {
          "indexed": false,
          "internalType": "uint256",
          "name": "payout",
          "type": "uint256"
        },
        {
          "indexed": false,
          "internalType": "uint256",
          "name": "remaining",
          "type": "uint256"
        }
      ],
      "name": "BondRedeemed",
      "type": "event"
    },
    {
      "anonymous": false,
      "inputs": [
        {
          "indexed": false,
          "internalType": "uint256",
          "name": "initialBCV",
          "type": "uint256"
        },
        {
          "indexed": false,
          "internalType": "uint256",
          "name": "newBCV",
          "type": "uint256"
        },
        {
          "indexed": false,
          "internalType": "uint256",
          "name": "adjustment",
          "type": "uint256"
        },
        {
          "indexed": false,
          "internalType": "bool",
          "name": "addition",
          "type": "bool"
        }
      ],
      "name": "ControlVariableAdjustment",
      "type": "event"
    },
    {
      "anonymous": false,
      "inputs": [
        {
          "indexed": true,
          "internalType": "address",
          "name": "previousOwner",
          "type": "address"
        },
        {
          "indexed": true,
          "internalType": "address",
          "name": "newOwner",
          "type": "address"
        }
      ],
      "name": "OwnershipPulled",
      "type": "event"
    },
    {
      "anonymous": false,
      "inputs": [
        {
          "indexed": true,
          "internalType": "address",
          "name": "previousOwner",
          "type": "address"
        },
        {
          "indexed": true,
          "internalType": "address",
          "name": "newOwner",
          "type": "address"
        }
      ],
      "name": "OwnershipPushed",
      "type": "event"
    },
    {
      "inputs": [],
      "name": "DAO",
      "outputs": [
        {
          "internalType": "address",
          "name": "",
          "type": "address"
        }
      ],
      "stateMutability": "view",
      "type": "function"
    },
    {
      "inputs": [],
      "name": "LOBI",
      "outputs": [
        {
          "internalType": "address",
          "name": "",
          "type": "address"
        }
      ],
      "stateMutability": "view",
      "type": "function"
    },
    {
      "inputs": [],
      "name": "adjustment",
      "outputs": [
        {
          "internalType": "bool",
          "name": "add",
          "type": "bool"
        },
        {
          "internalType": "uint256",
          "name": "rate",
          "type": "uint256"
        },
        {
          "internalType": "uint256",
          "name": "target",
          "type": "uint256"
        },
        {
          "internalType": "uint256",
          "name": "buffer",
          "type": "uint256"
        },
        {
          "internalType": "uint256",
          "name": "lastBlock",
          "type": "uint256"
        }
      ],
      "stateMutability": "view",
      "type": "function"
    },
    {
      "inputs": [
        {
          "internalType": "address",
          "name": "",
          "type": "address"
        }
      ],
      "name": "bondInfo",
      "outputs": [
        {
          "internalType": "uint256",
          "name": "payout",
          "type": "uint256"
        },
        {
          "internalType": "uint256",
          "name": "vesting",
          "type": "uint256"
        },
        {
          "internalType": "uint256",
          "name": "lastBlock",
          "type": "uint256"
        },
        {
          "internalType": "uint256",
          "name": "pricePaid",
          "type": "uint256"
        }
      ],
      "stateMutability": "view",
      "type": "function"
    },
    {
      "inputs": [],
      "name": "bondPrice",
      "outputs": [
        {
          "internalType": "uint256",
          "name": "price_",
          "type": "uint256"
        }
      ],
      "stateMutability": "view",
      "type": "function"
    },
    {
      "inputs": [],
      "name": "currentDebt",
      "outputs": [
        {
          "internalType": "uint256",
          "name": "",
          "type": "uint256"
        }
      ],
      "stateMutability": "view",
      "type": "function"
    },
    {
      "inputs": [],
      "name": "debtDecay",
      "outputs": [
        {
          "internalType": "uint256",
          "name": "decay_",
          "type": "uint256"
        }
      ],
      "stateMutability": "view",
      "type": "function"
    },
    {
      "inputs": [],
      "name": "debtRatio",
      "outputs": [
        {
          "internalType": "uint256",
          "name": "debtRatio_",
          "type": "uint256"
        }
      ],
      "stateMutability": "view",
      "type": "function"
    },
    {
      "inputs": [
        {
          "internalType": "uint256",
          "name": "_amount",
          "type": "uint256"
        },
        {
          "internalType": "uint256",
          "name": "_maxPrice",
          "type": "uint256"
        },
        {
          "internalType": "address",
          "name": "_depositor",
          "type": "address"
        }
      ],
      "name": "deposit",
      "outputs": [
        {
          "internalType": "uint256",
          "name": "",
          "type": "uint256"
        }
      ],
      "stateMutability": "nonpayable",
      "type": "function"
    },
    {
      "inputs": [
        {
          "internalType": "uint256",
          "name": "_controlVariable",
          "type": "uint256"
        },
        {
          "internalType": "uint256",
          "name": "_vestingTerm",
          "type": "uint256"
        },
        {
          "internalType": "uint256",
          "name": "_minimumPrice",
          "type": "uint256"
        },
        {
          "internalType": "uint256",
          "name": "_maxPayout",
          "type": "uint256"
        },
        {
          "internalType": "uint256",
          "name": "_maxDebt",
          "type": "uint256"
        },
        {
          "internalType": "uint256",
          "name": "_initialDebt",
          "type": "uint256"
        },
        {
          "internalType": "uint256",
          "name": "_fee",
          "type": "uint256"
        },
        {
          "internalType": "uint256",
          "name": "_feePartner",
          "type": "uint256"
        }
      ],
      "name": "initializeBondTerms",
      "outputs": [],
      "stateMutability": "nonpayable",
      "type": "function"
    },
    {
      "inputs": [],
      "name": "lastDecay",
      "outputs": [
        {
          "internalType": "uint256",
          "name": "",
          "type": "uint256"
        }
      ],
      "stateMutability": "view",
      "type": "function"
    },
    {
      "inputs": [],
      "name": "maxPayout",
      "outputs": [
        {
          "internalType": "uint256",
          "name": "",
          "type": "uint256"
        }
      ],
      "stateMutability": "view",
      "type": "function"
    },
    {
      "inputs": [],
      "name": "partnerDAO",
      "outputs": [
        {
          "internalType": "address",
          "name": "",
          "type": "address"
        }
      ],
      "stateMutability": "view",
      "type": "function"
    },
    {
      "inputs": [
        {
          "internalType": "uint256",
          "name": "_value",
          "type": "uint256"
        }
      ],
      "name": "payoutFor",
      "outputs": [
        {
          "internalType": "uint256",
          "name": "",
          "type": "uint256"
        }
      ],
      "stateMutability": "view",
      "type": "function"
    },
    {
      "inputs": [
        {
          "internalType": "address",
          "name": "_depositor",
          "type": "address"
        }
      ],
      "name": "pendingPayoutFor",
      "outputs": [
        {
          "internalType": "uint256",
          "name": "pendingPayout_",
          "type": "uint256"
        }
      ],
      "stateMutability": "view",
      "type": "function"
    },
    {
      "inputs": [
        {
          "internalType": "address",
          "name": "_depositor",
          "type": "address"
        }
      ],
      "name": "percentVestedFor",
      "outputs": [
        {
          "internalType": "uint256",
          "name": "percentVested_",
          "type": "uint256"
        }
      ],
      "stateMutability": "view",
      "type": "function"
    },
    {
      "inputs": [],
      "name": "policy",
      "outputs": [
        {
          "internalType": "address",
          "name": "",
          "type": "address"
        }
      ],
      "stateMutability": "view",
      "type": "function"
    },
    {
      "inputs": [],
      "name": "principle",
      "outputs": [
        {
          "internalType": "address",
          "name": "",
          "type": "address"
        }
      ],
      "stateMutability": "view",
      "type": "function"
    },
    {
      "inputs": [],
      "name": "pullManagement",
      "outputs": [],
      "stateMutability": "nonpayable",
      "type": "function"
    },
    {
      "inputs": [
        {
          "internalType": "address",
          "name": "newOwner_",
          "type": "address"
        }
      ],
      "name": "pushManagement",
      "outputs": [],
      "stateMutability": "nonpayable",
      "type": "function"
    },
    {
      "inputs": [
        {
          "internalType": "address",
          "name": "_token",
          "type": "address"
        }
      ],
      "name": "recoverLostToken",
      "outputs": [
        {
          "internalType": "bool",
          "name": "",
          "type": "bool"
        }
      ],
      "stateMutability": "nonpayable",
      "type": "function"
    },
    {
      "inputs": [
        {
          "internalType": "address",
          "name": "_recipient",
          "type": "address"
        },
        {
          "internalType": "bool",
          "name": "_stake",
          "type": "bool"
        }
      ],
      "name": "redeem",
      "outputs": [
        {
          "internalType": "uint256",
          "name": "",
          "type": "uint256"
        }
      ],
      "stateMutability": "nonpayable",
      "type": "function"
    },
    {
      "inputs": [],
      "name": "renounceManagement",
      "outputs": [],
      "stateMutability": "nonpayable",
      "type": "function"
    },
    {
      "inputs": [
        {
          "internalType": "bool",
          "name": "_addition",
          "type": "bool"
        },
        {
          "internalType": "uint256",
          "name": "_increment",
          "type": "uint256"
        },
        {
          "internalType": "uint256",
          "name": "_target",
          "type": "uint256"
        },
        {
          "internalType": "uint256",
          "name": "_buffer",
          "type": "uint256"
        }
      ],
      "name": "setAdjustment",
      "outputs": [],
      "stateMutability": "nonpayable",
      "type": "function"
    },
    {
      "inputs": [
        {
          "internalType": "enum LpBondDepository.PARAMETER",
          "name": "_parameter",
          "type": "uint8"
        },
        {
          "internalType": "uint256",
          "name": "_input",
          "type": "uint256"
        }
      ],
      "name": "setBondTerms",
      "outputs": [],
      "stateMutability": "nonpayable",
      "type": "function"
    },
    {
      "inputs": [
        {
          "internalType": "address",
          "name": "_DAO",
          "type": "address"
        },
        {
          "internalType": "address",
          "name": "_partnerDAO",
          "type": "address"
        }
      ],
      "name": "setDAOs",
      "outputs": [],
      "stateMutability": "nonpayable",
      "type": "function"
    },
    {
      "inputs": [
        {
          "internalType": "address",
          "name": "_staking",
          "type": "address"
        },
        {
          "internalType": "bool",
          "name": "_helper",
          "type": "bool"
        }
      ],
      "name": "setStaking",
      "outputs": [],
      "stateMutability": "nonpayable",
      "type": "function"
    },
    {
      "inputs": [],
      "name": "staking",
      "outputs": [
        {
          "internalType": "address",
          "name": "",
          "type": "address"
        }
      ],
      "stateMutability": "view",
      "type": "function"
    },
    {
      "inputs": [],
      "name": "stakingHelper",
      "outputs": [
        {
          "internalType": "address",
          "name": "",
          "type": "address"
        }
      ],
      "stateMutability": "view",
      "type": "function"
    },
    {
      "inputs": [],
      "name": "terms",
      "outputs": [
        {
          "internalType": "uint256",
          "name": "controlVariable",
          "type": "uint256"
        },
        {
          "internalType": "uint256",
          "name": "vestingTerm",
          "type": "uint256"
        },
        {
          "internalType": "uint256",
          "name": "minimumPrice",
          "type": "uint256"
        },
        {
          "internalType": "uint256",
          "name": "maxPayout",
          "type": "uint256"
        },
        {
          "internalType": "uint256",
          "name": "maxDebt",
          "type": "uint256"
        },
        {
          "internalType": "uint256",
          "name": "fee",
          "type": "uint256"
        },
        {
          "internalType": "uint256",
          "name": "feePartner",
          "type": "uint256"
        }
      ],
      "stateMutability": "view",
      "type": "function"
    },
    {
      "inputs": [],
      "name": "totalDebt",
      "outputs": [
        {
          "internalType": "uint256",
          "name": "",
          "type": "uint256"
        }
      ],
      "stateMutability": "view",
      "type": "function"
    },
    {
      "inputs": [],
      "name": "treasury",
      "outputs": [
        {
          "internalType": "address",
          "name": "",
          "type": "address"
        }
      ],
      "stateMutability": "view",
      "type": "function"
    },
    {
      "inputs": [],
      "name": "useHelper",
      "outputs": [
        {
          "internalType": "bool",
          "name": "",
          "type": "bool"
        }
      ],
      "stateMutability": "view",
      "type": "function"
    }
  ],
  "transactionHash": "0xdb2c676897e85a13362ce7afa98fca39682b810b1a91980eb8d30388d260da07",
  "args": [
    "0xDEc41Db0c33F3F6f3cb615449C311ba22D418A8d",
    "0x193008EAAde86658Df8237A436261e23e3BcBbAa",
    "0x873ad91fA4F2aA0d557C0919eC3F6c9D240cDd05",
    "0xDe50fb295549EdA934D222e7a24d5A8dd132444F",
    "0x245cc372C84B3645Bf0Ffe6538620B04a217988B"
  ],
  "solcInputHash": "a8fed566949da193470fae851cf88380",
  "bytecode": "0x60e06040523480156200001157600080fd5b506040516200292438038062002924833981810160405260a08110156200003757600080fd5b50805160208201516040808401516060850151608090950151600080546001600160a01b031916331780825593519596949592949391926001600160a01b0392909216917fea8258f2d9ddb679928cf34b78cf645b7feda9acc828e4dd82d014eaae270eba908290a36001600160a01b038516620000b457600080fd5b6001600160601b0319606086901b166080526001600160a01b038416620000da57600080fd5b6001600160601b0319606085901b1660a0526001600160a01b0383166200010057600080fd5b6001600160601b0319606084901b1660c0526001600160a01b0382166200012657600080fd5b600280546001600160a01b0319166001600160a01b038481169190911790915581166200015257600080fd5b600380546001600160a01b039092166001600160a01b03199092169190911790555050505060805160601c60a05160601c60c05160601c612727620001fd60003980610e455280610fb8528061118f52806111b6528061126b5250806105a75280610fe7528061116c52806111e5528061153f525080611320528061136052806114da528061150052806116bb52806118945280611a195280611afe5280611c1552506127276000f3fe608060405234801561001057600080fd5b50600436106101fb5760003560e01c806377b818951161011a578063cd1234b3116100ad578063d7ccfb0b1161007c578063d7ccfb0b1461057d578063e0176de814610585578063e392a2621461058d578063f5c2ab5b14610595578063fc7b9c181461059d576101fb565b8063cd1234b3146104bb578063cea55f5714610507578063d4d863ce1461050f578063d50256251461053d576101fb565b806399286b59116100e957806399286b5914610457578063a5ffd1971461045f578063b4abccba14610467578063bfce3e0c1461048d576101fb565b806377b81895146103f85780637927ebf8146104005780638dbdbe6d1461041d57806398fabd3a1461044f576101fb565b80633283ad0e11610192578063507930ec11610161578063507930ec146103ba5780635a96ac0a146103e057806361d027b3146103e8578063759076e5146103f0576101fb565b80633283ad0e1461030f578063451ee4a11461035757806346f68ee91461038c5780634cf088d9146103b2576101fb565b80631a3d0068116101ce5780631a3d00681461026e5780631e321a0f1461029f5780631feed31f146102c55780632f3f470a146102f3576101fb565b8063016a42841461020057806301b88ee8146102245780630505c8c91461025c578063089208d814610264575b600080fd5b6102086105a5565b604080516001600160a01b039092168252519081900360200190f35b61024a6004803603602081101561023a57600080fd5b50356001600160a01b03166105c9565b60408051918252519081900360200190f35b610208610622565b61026c610632565b005b61026c6004803603608081101561028457600080fd5b508035151590602081013590604081013590606001356106c9565b61026c600480360360408110156102b557600080fd5b5060ff81351690602001356107c1565b61024a600480360360408110156102db57600080fd5b506001600160a01b038135169060200135151561093c565b6102fb610b31565b604080519115158252519081900360200190f35b61026c600480360361010081101561032657600080fd5b5080359060208101359060408101359060608101359060808101359060a08101359060c08101359060e00135610b41565b61035f610bf3565b60408051951515865260208601949094528484019290925260608401526080830152519081900360a00190f35b61026c600480360360208110156103a257600080fd5b50356001600160a01b0316610c0b565b610208610cf8565b61024a600480360360208110156103d057600080fd5b50356001600160a01b0316610d07565b61026c610d99565b610208610e43565b61024a610e67565b610208610e82565b61024a6004803603602081101561041657600080fd5b5035610e91565b61024a6004803603606081101561043357600080fd5b50803590602081013590604001356001600160a01b0316610eb6565b6102086114ba565b6102086114c9565b6102086114d8565b6102fb6004803603602081101561047d57600080fd5b50356001600160a01b03166114fc565b61026c600480360360408110156104a357600080fd5b506001600160a01b0381358116916020013516611614565b6104e1600480360360208110156104d157600080fd5b50356001600160a01b031661168f565b604080519485526020850193909352838301919091526060830152519081900360800190f35b61024a6116b6565b61026c6004803603604081101561052557600080fd5b506001600160a01b0381351690602001351515611774565b610545611837565b604080519788526020880196909652868601949094526060860192909252608085015260a084015260c0830152519081900360e00190f35b61024a61184f565b61024a611880565b61024a61191d565b61024a611962565b61024a611968565b7f000000000000000000000000000000000000000000000000000000000000000081565b6000806105d583610d07565b6001600160a01b03841660009081526012602052604090205490915061271082106106025780925061061b565b610618612710610612838561196e565b906119ce565b92505b5050919050565b6000546001600160a01b03165b90565b6000546001600160a01b0316331461067f576040805162461bcd60e51b81526020600482018190526024820152600080516020612661833981519152604482015290519081900360640190fd5b600080546040516001600160a01b03909116907fea8258f2d9ddb679928cf34b78cf645b7feda9acc828e4dd82d014eaae270eba908390a3600080546001600160a01b0319169055565b6000546001600160a01b03163314610716576040805162461bcd60e51b81526020600482018190526024820152600080516020612661833981519152604482015290519081900360640190fd5b60065461072c906103e89061061290601961196e565b831115610776576040805162461bcd60e51b8152602060048201526013602482015272496e6372656d656e7420746f6f206c6172676560681b604482015290519081900360640190fd5b6040805160a0810182529415158086526020860185905290850183905260608501829052436080909501859052600d805460ff19169091179055600e92909255600f55601055601155565b6000546001600160a01b0316331461080e576040805162461bcd60e51b81526020600482018190526024820152600080516020612661833981519152604482015290519081900360640190fd5b600082600481111561081c57fe5b141561086d576127108110156108635760405162461bcd60e51b81526004018080602001828103825260248152602001806126a46024913960400191505060405180910390fd5b6007819055610938565b600182600481111561087b57fe5b14156108e2576103e88111156108d8576040805162461bcd60e51b815260206004820181905260248201527f5061796f75742063616e6e6f742062652061626f766520312070657263656e74604482015290519081900360640190fd5b6009819055610938565b60028260048111156108f057fe5b141561090057600a819055610938565b600382600481111561090e57fe5b141561091e57600b819055610938565b600482600481111561092c57fe5b141561093857600c8190555b5050565b6000610946612597565b506001600160a01b03831660009081526012602090815260408083208151608081018352815481526001820154938101939093526002810154918301919091526003015460608201529061099985610d07565b90506127108110610a29576001600160a01b03851660008181526012602090815260408083208381556001810184905560028101849055600301839055855181519081529182019290925281517f51c99f515c87b0d95ba97f616edd182e8f161c4932eac17c6fefe9dab58b77b1929181900390910190a2610a2085858460000151611a10565b92505050610b2b565b8151600090610a409061271090610612908561196e565b90506040518060800160405280610a64838660000151611d1390919063ffffffff16565b8152602001610a8e610a83866040015143611d1390919063ffffffff16565b602087015190611d13565b8152436020808301919091526060808701516040938401526001600160a01b038a166000818152601284528490208551808255868501516001830155868601516002830155959092015160039092019190915582518581529182019390935281517f51c99f515c87b0d95ba97f616edd182e8f161c4932eac17c6fefe9dab58b77b1929181900390910190a2610b25868683611a10565b93505050505b92915050565b600554600160a01b900460ff1681565b6000546001600160a01b03163314610b8e576040805162461bcd60e51b81526020600482018190526024820152600080516020612661833981519152604482015290519081900360640190fd5b6040805160e08101825289815260208101899052908101879052606081018690526080810185905260a0810183905260c001819052600697909755600795909555600893909355600991909155600a55600b91909155600c9190915560135543601455565b600d54600e54600f5460105460115460ff9094169385565b6000546001600160a01b03163314610c58576040805162461bcd60e51b81526020600482018190526024820152600080516020612661833981519152604482015290519081900360640190fd5b6001600160a01b038116610c9d5760405162461bcd60e51b81526004018080602001828103825260268152602001806125d26026913960400191505060405180910390fd5b600080546040516001600160a01b03808516939216917fea8258f2d9ddb679928cf34b78cf645b7feda9acc828e4dd82d014eaae270eba91a3600180546001600160a01b0319166001600160a01b0392909216919091179055565b6004546001600160a01b031681565b6000610d11612597565b506001600160a01b03821660009081526012602090815260408083208151608081018352815481526001820154938101939093526002810154918301829052600301546060830152909190610d67904390611d13565b60208301519091508015610d8c57610d85816106128461271061196e565b9350610d91565b600093505b505050919050565b6001546001600160a01b03163314610de25760405162461bcd60e51b81526004018080602001828103825260228152602001806125f86022913960400191505060405180910390fd5b600154600080546040516001600160a01b0393841693909116917faa151555690c956fc3ea32f106bb9f119b5237a061eaa8557cff3e51e3792c8d91a3600154600080546001600160a01b0319166001600160a01b03909216919091179055565b7f000000000000000000000000000000000000000000000000000000000000000081565b6000610e7d610e7461191d565b60135490611d13565b905090565b6005546001600160a01b031681565b6000610b2b655af3107a4000610612610eb185610eac61184f565b611d55565b611ecc565b60006001600160a01b038216610f05576040805162461bcd60e51b815260206004820152600f60248201526e496e76616c6964206164647265737360881b604482015290519081900360640190fd5b610f0d611ee4565b600a546013541115610f5d576040805162461bcd60e51b815260206004820152601460248201527313585e0818d85c1858da5d1e481c995858da195960621b604482015290519081900360640190fd5b6000610f67611ef8565b90506000610f73611ef8565b905080851015610fb45760405162461bcd60e51b81526004018080602001828103825260238152602001806126816023913960400191505060405180910390fd5b60007f00000000000000000000000000000000000000000000000000000000000000006001600160a01b031663d1b317e57f0000000000000000000000000000000000000000000000000000000000000000896040518363ffffffff1660e01b815260040180836001600160a01b031681526020018281526020019250505060206040518083038186803b15801561104b57600080fd5b505afa15801561105f573d6000803e3d6000fd5b505050506040513d602081101561107557600080fd5b50519050600061108482610e91565b9050629896808110156110cf576040805162461bcd60e51b815260206004820152600e60248201526d109bdb99081d1bdbc81cdb585b1b60921b604482015290519081900360640190fd5b6110d7611880565b81111561111c576040805162461bcd60e51b815260206004820152600e60248201526d426f6e6420746f6f206c6172676560901b604482015290519081900360640190fd5b600061113c6127106106126006600501548561196e90919063ffffffff16565b9050600061115d61271061061260068001548661196e90919063ffffffff16565b90506111b46001600160a01b037f000000000000000000000000000000000000000000000000000000000000000016337f00000000000000000000000000000000000000000000000000000000000000008d611f32565b7f00000000000000000000000000000000000000000000000000000000000000006001600160a01b03166356a07a3b7f0000000000000000000000000000000000000000000000000000000000000000866040518363ffffffff1660e01b815260040180836001600160a01b0316815260200182815260200192505050600060405180830381600087803b15801561124b57600080fd5b505af115801561125f573d6000803e3d6000fd5b50506001600160a01b037f0000000000000000000000000000000000000000000000000000000000000000169150636a20de929050306112a9846112a38888611f92565b90611f92565b6040518363ffffffff1660e01b815260040180836001600160a01b0316815260200182815260200192505050600060405180830381600087803b1580156112ef57600080fd5b505af1158015611303573d6000803e3d6000fd5b505050508160001461134957600254611349906001600160a01b037f00000000000000000000000000000000000000000000000000000000000000008116911684611fec565b801561138957600354611389906001600160a01b037f00000000000000000000000000000000000000000000000000000000000000008116911683611fec565b6013546113969085611f92565b601355604080516080810182526001600160a01b038a1660009081526012602052919091205481906113c89086611f92565b81526007805460208084019190915243604080850182905260609485018c90526001600160a01b038e16600090815260128452819020865181559286015160018401558501516002830155939092015160039092019190915554879161142d91611f92565b604080518d8152905186917f1fec6dc81f140574bf43f6b1e420ae1dd47928b9d57db8cbd7b8611063b85ae5919081900360200190a461146b6116b6565b611473611ef8565b61147b611ef8565b6040517f375b221f40939bfd8f49723a17cf7bc6d576ebf72efe2cc3e991826f5b3f390a90600090a46114ac612043565b509098975050505050505050565b6002546001600160a01b031681565b6003546001600160a01b031681565b7f000000000000000000000000000000000000000000000000000000000000000081565b60007f00000000000000000000000000000000000000000000000000000000000000006001600160a01b0316826001600160a01b0316141561153d57600080fd5b7f00000000000000000000000000000000000000000000000000000000000000006001600160a01b0316826001600160a01b0316141561157c57600080fd5b600254604080516370a0823160e01b8152306004820152905161160c926001600160a01b0390811692908616916370a0823191602480820192602092909190829003018186803b1580156115cf57600080fd5b505afa1580156115e3573d6000803e3d6000fd5b505050506040513d60208110156115f957600080fd5b50516001600160a01b0385169190611fec565b506001919050565b6000546001600160a01b03163314611661576040805162461bcd60e51b81526020600482018190526024820152600080516020612661833981519152604482015290519081900360640190fd5b600280546001600160a01b039384166001600160a01b03199182161790915560038054929093169116179055565b60126020526000908152604090208054600182015460028301546003909301549192909184565b6000807f00000000000000000000000000000000000000000000000000000000000000006001600160a01b03166318160ddd6040518163ffffffff1660e01b815260040160206040518083038186803b15801561171257600080fd5b505afa158015611726573d6000803e3d6000fd5b505050506040513d602081101561173c57600080fd5b5051905061176e670de0b6b3a7640000610612610eb1611768633b9aca00611762610e67565b9061196e565b85611d55565b91505090565b6000546001600160a01b031633146117c1576040805162461bcd60e51b81526020600482018190526024820152600080516020612661833981519152604482015290519081900360640190fd5b6001600160a01b0382166117d457600080fd5b80156118095760058054600160a01b60ff60a01b19909116176001600160a01b0319166001600160a01b038416179055610938565b6005805460ff60a01b19169055600480546001600160a01b0384166001600160a01b03199091161790555050565b600654600754600854600954600a54600b54600c5487565b600061186c620186a06106126118636116b6565b6006549061196e565b60085490915081101561062f575060085490565b6000610e7d620186a06106126006600301547f00000000000000000000000000000000000000000000000000000000000000006001600160a01b03166318160ddd6040518163ffffffff1660e01b815260040160206040518083038186803b1580156118eb57600080fd5b505afa1580156118ff573d6000803e3d6000fd5b505050506040513d602081101561191557600080fd5b50519061196e565b60008061193560145443611d1390919063ffffffff16565b60075460135491925061194c91610612908461196e565b915060135482111561195e5760135491505b5090565b60145481565b60135481565b60008261197d57506000610b2b565b8282028284828161198a57fe5b04146119c75760405162461bcd60e51b81526004018080602001828103825260218152602001806126406021913960400191505060405180910390fd5b9392505050565b60006119c783836040518060400160405280601a81526020017f536166654d6174683a206469766973696f6e206279207a65726f000000000000815250612123565b600082611ac0577f00000000000000000000000000000000000000000000000000000000000000006001600160a01b031663a9059cbb85846040518363ffffffff1660e01b815260040180836001600160a01b0316815260200182815260200192505050602060405180830381600087803b158015611a8e57600080fd5b505af1158015611aa2573d6000803e3d6000fd5b505050506040513d6020811015611ab857600080fd5b50611d0c9050565b600554600160a01b900460ff1615611be7576005546040805163095ea7b360e01b81526001600160a01b0392831660048201526024810185905290517f00000000000000000000000000000000000000000000000000000000000000009092169163095ea7b3916044808201926020929091908290030181600087803b158015611b4957600080fd5b505af1158015611b5d573d6000803e3d6000fd5b505050506040513d6020811015611b7357600080fd5b505060055460408051637acb775760e01b8152600481018590526001600160a01b03878116602483015291519190921691637acb775791604480830192600092919082900301818387803b158015611bca57600080fd5b505af1158015611bde573d6000803e3d6000fd5b50505050611d0c565b600480546040805163095ea7b360e01b81526001600160a01b039283169381019390935260248301859052517f00000000000000000000000000000000000000000000000000000000000000009091169163095ea7b39160448083019260209291908290030181600087803b158015611c5f57600080fd5b505af1158015611c73573d6000803e3d6000fd5b505050506040513d6020811015611c8957600080fd5b50506004805460408051637acb775760e01b81529283018590526001600160a01b0387811660248501529051911691637acb77579160448083019260209291908290030181600087803b158015611cdf57600080fd5b505af1158015611cf3573d6000803e3d6000fd5b505050506040513d6020811015611d0957600080fd5b50505b5092915050565b60006119c783836040518060400160405280601e81526020017f536166654d6174683a207375627472616374696f6e206f766572666c6f7700008152506121c5565b611d5d6125bf565b60008211611d9c5760405162461bcd60e51b815260040180806020018281038252602681526020018061261a6026913960400191505060405180910390fd5b82611db65750604080516020810190915260008152610b2b565b71ffffffffffffffffffffffffffffffffffff8311611e5d57600082607085901b81611dde57fe5b0490506001600160e01b03811115611e3d576040805162461bcd60e51b815260206004820152601e60248201527f4669786564506f696e743a3a6672616374696f6e3a206f766572666c6f770000604482015290519081900360640190fd5b6040518060200160405280826001600160e01b0316815250915050610b2b565b6000611e6e84600160701b8561221f565b90506001600160e01b03811115611e3d576040805162461bcd60e51b815260206004820152601e60248201527f4669786564506f696e743a3a6672616374696f6e3a206f766572666c6f770000604482015290519081900360640190fd5b516612725dd1d243ab6001600160e01b039091160490565b611eef610e7461191d565b60135543601455565b6000611f0c620186a06106126118636116b6565b600854909150811015611f22575060085461062f565b6008541561062f57600060085590565b604080516001600160a01b0380861660248301528416604482015260648082018490528251808303909101815260849091019091526020810180516001600160e01b03166323b872dd60e01b179052611f8c9085906122bf565b50505050565b6000828201838110156119c7576040805162461bcd60e51b815260206004820152601b60248201527f536166654d6174683a206164646974696f6e206f766572666c6f770000000000604482015290519081900360640190fd5b604080516001600160a01b038416602482015260448082018490528251808303909101815260649091019091526020810180516001600160e01b031663a9059cbb60e01b17905261203e9084906122bf565b505050565b6010546011546000916120569190611f92565b600e549091501580159061206a5750804310155b1561212057600654600d5460ff16156120a457600e5460065461208c91611f92565b6006819055600f541161209f576000600e555b6120c6565b600e546006546120b391611d13565b6006819055600f54106120c6576000600e555b43601155600654600e54600d546040805185815260208101949094528381019290925260ff1615156060830152517fb923e581a0f83128e9e1d8297aa52b18d6744310476e0b54509c054cd7a93b2a9181900360800190a1505b50565b600081836121af5760405162461bcd60e51b81526004018080602001828103825283818151815260200191508051906020019080838360005b8381101561217457818101518382015260200161215c565b50505050905090810190601f1680156121a15780820380516001836020036101000a031916815260200191505b509250505060405180910390fd5b5060008385816121bb57fe5b0495945050505050565b600081848411156122175760405162461bcd60e51b815260206004820181815283516024840152835190928392604490910191908501908083836000831561217457818101518382015260200161215c565b505050900390565b600080600061222e8686612370565b915091506000848061223c57fe5b868809905082811115612250576001820391505b80830392508482106122a9576040805162461bcd60e51b815260206004820152601a60248201527f46756c6c4d6174683a3a6d756c4469763a206f766572666c6f77000000000000604482015290519081900360640190fd5b6122b483838761239d565b979650505050505050565b6060612314826040518060400160405280602081526020017f5361666545524332303a206c6f772d6c6576656c2063616c6c206661696c6564815250856001600160a01b031661240d9092919063ffffffff16565b80519091501561203e5780806020019051602081101561233357600080fd5b505161203e5760405162461bcd60e51b815260040180806020018281038252602a8152602001806126c8602a913960400191505060405180910390fd5b6000808060001984860990508385029250828103915082811015612395576001820391505b509250929050565b600081810382168083816123ad57fe5b0492508085816123b957fe5b0494508081600003816123c857fe5b60028581038087028203028087028203028087028203028087028203028087028203028087028203029586029003909402930460010193909302939093010292915050565b606061241c8484600085612424565b949350505050565b606061242f85612591565b612480576040805162461bcd60e51b815260206004820152601d60248201527f416464726573733a2063616c6c20746f206e6f6e2d636f6e7472616374000000604482015290519081900360640190fd5b60006060866001600160a01b031685876040518082805190602001908083835b602083106124bf5780518252601f1990920191602091820191016124a0565b6001836020036101000a03801982511681845116808217855250505050505090500191505060006040518083038185875af1925050503d8060008114612521576040519150601f19603f3d011682016040523d82523d6000602084013e612526565b606091505b5091509150811561253a57915061241c9050565b80511561254a5780518082602001fd5b60405162461bcd60e51b815260206004820181815286516024840152865187939192839260440191908501908083836000831561217457818101518382015260200161215c565b3b151590565b6040518060800160405280600081526020016000815260200160008152602001600081525090565b6040805160208101909152600081529056fe4f776e61626c653a206e6577206f776e657220697320746865207a65726f20616464726573734f776e61626c653a206d757374206265206e6577206f776e657220746f2070756c6c4669786564506f696e743a3a6672616374696f6e3a206469766973696f6e206279207a65726f536166654d6174683a206d756c7469706c69636174696f6e206f766572666c6f774f776e61626c653a2063616c6c6572206973206e6f7420746865206f776e6572536c697070616765206c696d69743a206d6f7265207468616e206d617820707269636556657374696e67206d757374206265206c6f6e676572207468616e20333620686f7572735361666545524332303a204552433230206f7065726174696f6e20646964206e6f742073756363656564a2646970667358221220b25189910f118122f0454bcda712bf045a94e31a35a765453ca2f1e5ee1e63c264736f6c63430007050033",
  "devdoc": {
    "kind": "dev",
    "methods": {
      "bondPrice()": {
        "returns": {
          "price_": "uint"
        }
      },
      "currentDebt()": {
        "returns": {
          "_0": "uint"
        }
      },
      "debtDecay()": {
        "returns": {
          "decay_": "uint"
        }
      },
      "debtRatio()": {
        "returns": {
          "debtRatio_": "uint"
        }
      },
      "deposit(uint256,uint256,address)": {
        "params": {
          "_amount": "uint",
          "_depositor": "address",
          "_maxPrice": "uint"
        },
        "returns": {
          "_0": "uint"
        }
      },
      "initializeBondTerms(uint256,uint256,uint256,uint256,uint256,uint256,uint256,uint256)": {
        "params": {
          "_controlVariable": "uint",
          "_initialDebt": "uint",
          "_maxDebt": "uint",
          "_maxPayout": "uint",
          "_minimumPrice": "uint",
          "_vestingTerm": "uint"
        }
      },
      "maxPayout()": {
        "returns": {
          "_0": "uint"
        }
      },
      "payoutFor(uint256)": {
        "params": {
          "_value": "uint"
        },
        "returns": {
          "_0": "uint"
        }
      },
      "pendingPayoutFor(address)": {
        "params": {
          "_depositor": "address"
        },
        "returns": {
          "pendingPayout_": "uint"
        }
      },
      "percentVestedFor(address)": {
        "params": {
          "_depositor": "address"
        },
        "returns": {
          "percentVested_": "uint"
        }
      },
      "recoverLostToken(address)": {
        "returns": {
          "_0": "bool"
        }
      },
      "redeem(address,bool)": {
        "params": {
          "_recipient": "address",
          "_stake": "bool"
        },
        "returns": {
          "_0": "uint"
        }
      },
      "setAdjustment(bool,uint256,uint256,uint256)": {
        "params": {
          "_addition": "bool",
          "_buffer": "uint",
          "_increment": "uint",
          "_target": "uint"
        }
      },
      "setBondTerms(uint8,uint256)": {
        "params": {
          "_input": "uint",
          "_parameter": "PARAMETER"
        }
      },
      "setStaking(address,bool)": {
        "params": {
          "_helper": "bool",
          "_staking": "address"
        }
      }
    },
    "version": 1
  },
  "userdoc": {
    "kind": "user",
    "methods": {
      "bondPrice()": {
        "notice": "calculate current bond premium"
      },
      "currentDebt()": {
        "notice": "calculate debt factoring in decay"
      },
      "debtDecay()": {
        "notice": "amount to decay total debt by"
      },
      "debtRatio()": {
        "notice": "calculate current ratio of debt to LOBI supply"
      },
      "deposit(uint256,uint256,address)": {
        "notice": "deposit bond"
      },
      "initializeBondTerms(uint256,uint256,uint256,uint256,uint256,uint256,uint256,uint256)": {
        "notice": "initializes bond parameters"
      },
      "maxPayout()": {
        "notice": "determine maximum bond size"
      },
      "payoutFor(uint256)": {
        "notice": "calculate interest due for new bond"
      },
      "pendingPayoutFor(address)": {
        "notice": "calculate amount of LOBI available for claim by depositor"
      },
      "percentVestedFor(address)": {
        "notice": "calculate how far into vesting a depositor is"
      },
      "recoverLostToken(address)": {
        "notice": "allow anyone to send lost tokens (excluding principle or LOBI) to the DAO"
      },
      "redeem(address,bool)": {
        "notice": "redeem bond for user"
      },
      "setAdjustment(bool,uint256,uint256,uint256)": {
        "notice": "set control variable adjustment"
      },
      "setBondTerms(uint8,uint256)": {
        "notice": "set parameters for new bonds"
      },
      "setStaking(address,bool)": {
        "notice": "set contract for auto stake"
      }
    },
    "version": 1
  },
  "storageLayout": {
    "storage": [
      {
        "astId": 22,
        "contract": "contracts/LpBondDepository.sol:LpBondDepository",
        "label": "_owner",
        "offset": 0,
        "slot": "0",
        "type": "t_address"
      },
      {
        "astId": 24,
        "contract": "contracts/LpBondDepository.sol:LpBondDepository",
        "label": "_newOwner",
        "offset": 0,
        "slot": "1",
        "type": "t_address"
      },
      {
        "astId": 2268,
        "contract": "contracts/LpBondDepository.sol:LpBondDepository",
        "label": "DAO",
        "offset": 0,
        "slot": "2",
        "type": "t_address"
      },
      {
        "astId": 2270,
        "contract": "contracts/LpBondDepository.sol:LpBondDepository",
        "label": "partnerDAO",
        "offset": 0,
        "slot": "3",
        "type": "t_address"
      },
      {
        "astId": 2272,
        "contract": "contracts/LpBondDepository.sol:LpBondDepository",
        "label": "staking",
        "offset": 0,
        "slot": "4",
        "type": "t_address"
      },
      {
        "astId": 2274,
        "contract": "contracts/LpBondDepository.sol:LpBondDepository",
        "label": "stakingHelper",
        "offset": 0,
        "slot": "5",
        "type": "t_address"
      },
      {
        "astId": 2276,
        "contract": "contracts/LpBondDepository.sol:LpBondDepository",
        "label": "useHelper",
        "offset": 20,
        "slot": "5",
        "type": "t_bool"
      },
      {
        "astId": 2278,
        "contract": "contracts/LpBondDepository.sol:LpBondDepository",
        "label": "terms",
        "offset": 0,
        "slot": "6",
        "type": "t_struct(Terms)2303_storage"
      },
      {
        "astId": 2280,
        "contract": "contracts/LpBondDepository.sol:LpBondDepository",
        "label": "adjustment",
        "offset": 0,
        "slot": "13",
        "type": "t_struct(Adjust)2323_storage"
      },
      {
        "astId": 2284,
        "contract": "contracts/LpBondDepository.sol:LpBondDepository",
        "label": "bondInfo",
        "offset": 0,
        "slot": "18",
        "type": "t_mapping(t_address,t_struct(Bond)2312_storage)"
      },
      {
        "astId": 2286,
        "contract": "contracts/LpBondDepository.sol:LpBondDepository",
        "label": "totalDebt",
        "offset": 0,
        "slot": "19",
        "type": "t_uint256"
      },
      {
        "astId": 2288,
        "contract": "contracts/LpBondDepository.sol:LpBondDepository",
        "label": "lastDecay",
        "offset": 0,
        "slot": "20",
        "type": "t_uint256"
      }
    ],
    "types": {
      "t_address": {
        "encoding": "inplace",
        "label": "address",
        "numberOfBytes": "20"
      },
      "t_bool": {
        "encoding": "inplace",
        "label": "bool",
        "numberOfBytes": "1"
      },
      "t_mapping(t_address,t_struct(Bond)2312_storage)": {
        "encoding": "mapping",
        "key": "t_address",
        "label": "mapping(address => struct LpBondDepository.Bond)",
        "numberOfBytes": "32",
        "value": "t_struct(Bond)2312_storage"
      },
      "t_struct(Adjust)2323_storage": {
        "encoding": "inplace",
        "label": "struct LpBondDepository.Adjust",
        "members": [
          {
            "astId": 2314,
            "contract": "contracts/LpBondDepository.sol:LpBondDepository",
            "label": "add",
            "offset": 0,
            "slot": "0",
            "type": "t_bool"
          },
          {
            "astId": 2316,
            "contract": "contracts/LpBondDepository.sol:LpBondDepository",
            "label": "rate",
            "offset": 0,
            "slot": "1",
            "type": "t_uint256"
          },
          {
            "astId": 2318,
            "contract": "contracts/LpBondDepository.sol:LpBondDepository",
            "label": "target",
            "offset": 0,
            "slot": "2",
            "type": "t_uint256"
          },
          {
            "astId": 2320,
            "contract": "contracts/LpBondDepository.sol:LpBondDepository",
            "label": "buffer",
            "offset": 0,
            "slot": "3",
            "type": "t_uint256"
          },
          {
            "astId": 2322,
            "contract": "contracts/LpBondDepository.sol:LpBondDepository",
            "label": "lastBlock",
            "offset": 0,
            "slot": "4",
            "type": "t_uint256"
          }
        ],
        "numberOfBytes": "160"
      },
      "t_struct(Bond)2312_storage": {
        "encoding": "inplace",
        "label": "struct LpBondDepository.Bond",
        "members": [
          {
            "astId": 2305,
            "contract": "contracts/LpBondDepository.sol:LpBondDepository",
            "label": "payout",
            "offset": 0,
            "slot": "0",
            "type": "t_uint256"
          },
          {
            "astId": 2307,
            "contract": "contracts/LpBondDepository.sol:LpBondDepository",
            "label": "vesting",
            "offset": 0,
            "slot": "1",
            "type": "t_uint256"
          },
          {
            "astId": 2309,
            "contract": "contracts/LpBondDepository.sol:LpBondDepository",
            "label": "lastBlock",
            "offset": 0,
            "slot": "2",
            "type": "t_uint256"
          },
          {
            "astId": 2311,
            "contract": "contracts/LpBondDepository.sol:LpBondDepository",
            "label": "pricePaid",
            "offset": 0,
            "slot": "3",
            "type": "t_uint256"
          }
        ],
        "numberOfBytes": "128"
      },
      "t_struct(Terms)2303_storage": {
        "encoding": "inplace",
        "label": "struct LpBondDepository.Terms",
        "members": [
          {
            "astId": 2290,
            "contract": "contracts/LpBondDepository.sol:LpBondDepository",
            "label": "controlVariable",
            "offset": 0,
            "slot": "0",
            "type": "t_uint256"
          },
          {
            "astId": 2292,
            "contract": "contracts/LpBondDepository.sol:LpBondDepository",
            "label": "vestingTerm",
            "offset": 0,
            "slot": "1",
            "type": "t_uint256"
          },
          {
            "astId": 2294,
            "contract": "contracts/LpBondDepository.sol:LpBondDepository",
            "label": "minimumPrice",
            "offset": 0,
            "slot": "2",
            "type": "t_uint256"
          },
          {
            "astId": 2296,
            "contract": "contracts/LpBondDepository.sol:LpBondDepository",
            "label": "maxPayout",
            "offset": 0,
            "slot": "3",
            "type": "t_uint256"
          },
          {
            "astId": 2298,
            "contract": "contracts/LpBondDepository.sol:LpBondDepository",
            "label": "maxDebt",
            "offset": 0,
            "slot": "4",
            "type": "t_uint256"
          },
          {
            "astId": 2300,
            "contract": "contracts/LpBondDepository.sol:LpBondDepository",
            "label": "fee",
            "offset": 0,
            "slot": "5",
            "type": "t_uint256"
          },
          {
            "astId": 2302,
            "contract": "contracts/LpBondDepository.sol:LpBondDepository",
            "label": "feePartner",
            "offset": 0,
            "slot": "6",
            "type": "t_uint256"
          }
        ],
        "numberOfBytes": "224"
      },
      "t_uint256": {
        "encoding": "inplace",
        "label": "uint256",
        "numberOfBytes": "32"
      }
    }
  }
}