{
  "address": "0x93B36c39A89242B57638Fd2b3704e4a2E43b894f",
  "abi": [
    {
      "inputs": [
        {
          "internalType": "address",
          "name": "_LOBI",
          "type": "address"
        },
        {
          "internalType": "address",
          "name": "_principle",
          "type": "address"
        },
        {
          "internalType": "address",
          "name": "_treasury",
          "type": "address"
        },
        {
          "internalType": "address",
          "name": "_DAO",
          "type": "address"
        },
        {
          "internalType": "address",
          "name": "_partnerDAO",
          "type": "address"
        },
        {
          "internalType": "address",
          "name": "_feed",
          "type": "address"
        }
      ],
      "stateMutability": "nonpayable",
      "type": "constructor"
    },
    {
      "anonymous": false,
      "inputs": [
        {
          "indexed": false,
          "internalType": "uint256",
          "name": "deposit",
          "type": "uint256"
        },
        {
          "indexed": true,
          "internalType": "uint256",
          "name": "payout",
          "type": "uint256"
        },
        {
          "indexed": true,
          "internalType": "uint256",
          "name": "expires",
          "type": "uint256"
        },
        {
          "indexed": true,
          "internalType": "uint256",
          "name": "priceInUSD",
          "type": "uint256"
        }
      ],
      "name": "BondCreated",
      "type": "event"
    },
    {
      "anonymous": false,
      "inputs": [
        {
          "indexed": true,
          "internalType": "uint256",
          "name": "priceInUSD",
          "type": "uint256"
        },
        {
          "indexed": true,
          "internalType": "uint256",
          "name": "internalPrice",
          "type": "uint256"
        },
        {
          "indexed": true,
          "internalType": "uint256",
          "name": "debtRatio",
          "type": "uint256"
        }
      ],
      "name": "BondPriceChanged",
      "type": "event"
    },
    {
      "anonymous": false,
      "inputs": [
        {
          "indexed": true,
          "internalType": "address",
          "name": "recipient",
          "type": "address"
        },
        {
          "indexed": false,
          "internalType": "uint256",
          "name": "payout",
          "type": "uint256"
        },
        {
          "indexed": false,
          "internalType": "uint256",
          "name": "remaining",
          "type": "uint256"
        }
      ],
      "name": "BondRedeemed",
      "type": "event"
    },
    {
      "anonymous": false,
      "inputs": [
        {
          "indexed": false,
          "internalType": "uint256",
          "name": "initialBCV",
          "type": "uint256"
        },
        {
          "indexed": false,
          "internalType": "uint256",
          "name": "newBCV",
          "type": "uint256"
        },
        {
          "indexed": false,
          "internalType": "uint256",
          "name": "adjustment",
          "type": "uint256"
        },
        {
          "indexed": false,
          "internalType": "bool",
          "name": "addition",
          "type": "bool"
        }
      ],
      "name": "ControlVariableAdjustment",
      "type": "event"
    },
    {
      "anonymous": false,
      "inputs": [
        {
          "indexed": true,
          "internalType": "address",
          "name": "previousOwner",
          "type": "address"
        },
        {
          "indexed": true,
          "internalType": "address",
          "name": "newOwner",
          "type": "address"
        }
      ],
      "name": "OwnershipPulled",
      "type": "event"
    },
    {
      "anonymous": false,
      "inputs": [
        {
          "indexed": true,
          "internalType": "address",
          "name": "previousOwner",
          "type": "address"
        },
        {
          "indexed": true,
          "internalType": "address",
          "name": "newOwner",
          "type": "address"
        }
      ],
      "name": "OwnershipPushed",
      "type": "event"
    },
    {
      "inputs": [],
      "name": "DAO",
      "outputs": [
        {
          "internalType": "address",
          "name": "",
          "type": "address"
        }
      ],
      "stateMutability": "view",
      "type": "function"
    },
    {
      "inputs": [],
      "name": "LOBI",
      "outputs": [
        {
          "internalType": "address",
          "name": "",
          "type": "address"
        }
      ],
      "stateMutability": "view",
      "type": "function"
    },
    {
      "inputs": [],
      "name": "adjustment",
      "outputs": [
        {
          "internalType": "bool",
          "name": "add",
          "type": "bool"
        },
        {
          "internalType": "uint256",
          "name": "rate",
          "type": "uint256"
        },
        {
          "internalType": "uint256",
          "name": "target",
          "type": "uint256"
        },
        {
          "internalType": "uint256",
          "name": "buffer",
          "type": "uint256"
        },
        {
          "internalType": "uint256",
          "name": "lastBlock",
          "type": "uint256"
        }
      ],
      "stateMutability": "view",
      "type": "function"
    },
    {
      "inputs": [],
      "name": "assetPrice",
      "outputs": [
        {
          "internalType": "int256",
          "name": "",
          "type": "int256"
        }
      ],
      "stateMutability": "view",
      "type": "function"
    },
    {
      "inputs": [
        {
          "internalType": "address",
          "name": "",
          "type": "address"
        }
      ],
      "name": "bondInfo",
      "outputs": [
        {
          "internalType": "uint256",
          "name": "payout",
          "type": "uint256"
        },
        {
          "internalType": "uint256",
          "name": "vesting",
          "type": "uint256"
        },
        {
          "internalType": "uint256",
          "name": "lastBlock",
          "type": "uint256"
        },
        {
          "internalType": "uint256",
          "name": "pricePaid",
          "type": "uint256"
        }
      ],
      "stateMutability": "view",
      "type": "function"
    },
    {
      "inputs": [],
      "name": "bondPrice",
      "outputs": [
        {
          "internalType": "uint256",
          "name": "price_",
          "type": "uint256"
        }
      ],
      "stateMutability": "view",
      "type": "function"
    },
    {
      "inputs": [],
      "name": "bondPriceInUSD",
      "outputs": [
        {
          "internalType": "uint256",
          "name": "price_",
          "type": "uint256"
        }
      ],
      "stateMutability": "view",
      "type": "function"
    },
    {
      "inputs": [],
      "name": "currentDebt",
      "outputs": [
        {
          "internalType": "uint256",
          "name": "",
          "type": "uint256"
        }
      ],
      "stateMutability": "view",
      "type": "function"
    },
    {
      "inputs": [],
      "name": "debtDecay",
      "outputs": [
        {
          "internalType": "uint256",
          "name": "decay_",
          "type": "uint256"
        }
      ],
      "stateMutability": "view",
      "type": "function"
    },
    {
      "inputs": [],
      "name": "debtRatio",
      "outputs": [
        {
          "internalType": "uint256",
          "name": "debtRatio_",
          "type": "uint256"
        }
      ],
      "stateMutability": "view",
      "type": "function"
    },
    {
      "inputs": [
        {
          "internalType": "uint256",
          "name": "_amount",
          "type": "uint256"
        },
        {
          "internalType": "uint256",
          "name": "_maxPrice",
          "type": "uint256"
        },
        {
          "internalType": "address",
          "name": "_depositor",
          "type": "address"
        }
      ],
      "name": "deposit",
      "outputs": [
        {
          "internalType": "uint256",
          "name": "",
          "type": "uint256"
        }
      ],
      "stateMutability": "nonpayable",
      "type": "function"
    },
    {
      "inputs": [
        {
          "internalType": "uint256",
          "name": "_controlVariable",
          "type": "uint256"
        },
        {
          "internalType": "uint256",
          "name": "_vestingTerm",
          "type": "uint256"
        },
        {
          "internalType": "uint256",
          "name": "_minimumPrice",
          "type": "uint256"
        },
        {
          "internalType": "uint256",
          "name": "_maxPayout",
          "type": "uint256"
        },
        {
          "internalType": "uint256",
          "name": "_maxDebt",
          "type": "uint256"
        },
        {
          "internalType": "uint256",
          "name": "_initialDebt",
          "type": "uint256"
        },
        {
          "internalType": "uint256",
          "name": "_fee",
          "type": "uint256"
        },
        {
          "internalType": "uint256",
          "name": "_feePartner",
          "type": "uint256"
        }
      ],
      "name": "initializeBondTerms",
      "outputs": [],
      "stateMutability": "nonpayable",
      "type": "function"
    },
    {
      "inputs": [],
      "name": "lastDecay",
      "outputs": [
        {
          "internalType": "uint256",
          "name": "",
          "type": "uint256"
        }
      ],
      "stateMutability": "view",
      "type": "function"
    },
    {
      "inputs": [],
      "name": "maxPayout",
      "outputs": [
        {
          "internalType": "uint256",
          "name": "",
          "type": "uint256"
        }
      ],
      "stateMutability": "view",
      "type": "function"
    },
    {
      "inputs": [],
      "name": "partnerDAO",
      "outputs": [
        {
          "internalType": "address",
          "name": "",
          "type": "address"
        }
      ],
      "stateMutability": "view",
      "type": "function"
    },
    {
      "inputs": [
        {
          "internalType": "uint256",
          "name": "_value",
          "type": "uint256"
        }
      ],
      "name": "payoutFor",
      "outputs": [
        {
          "internalType": "uint256",
          "name": "",
          "type": "uint256"
        }
      ],
      "stateMutability": "view",
      "type": "function"
    },
    {
      "inputs": [
        {
          "internalType": "address",
          "name": "_depositor",
          "type": "address"
        }
      ],
      "name": "pendingPayoutFor",
      "outputs": [
        {
          "internalType": "uint256",
          "name": "pendingPayout_",
          "type": "uint256"
        }
      ],
      "stateMutability": "view",
      "type": "function"
    },
    {
      "inputs": [
        {
          "internalType": "address",
          "name": "_depositor",
          "type": "address"
        }
      ],
      "name": "percentVestedFor",
      "outputs": [
        {
          "internalType": "uint256",
          "name": "percentVested_",
          "type": "uint256"
        }
      ],
      "stateMutability": "view",
      "type": "function"
    },
    {
      "inputs": [],
      "name": "policy",
      "outputs": [
        {
          "internalType": "address",
          "name": "",
          "type": "address"
        }
      ],
      "stateMutability": "view",
      "type": "function"
    },
    {
      "inputs": [],
      "name": "principle",
      "outputs": [
        {
          "internalType": "address",
          "name": "",
          "type": "address"
        }
      ],
      "stateMutability": "view",
      "type": "function"
    },
    {
      "inputs": [],
      "name": "pullManagement",
      "outputs": [],
      "stateMutability": "nonpayable",
      "type": "function"
    },
    {
      "inputs": [
        {
          "internalType": "address",
          "name": "newOwner_",
          "type": "address"
        }
      ],
      "name": "pushManagement",
      "outputs": [],
      "stateMutability": "nonpayable",
      "type": "function"
    },
    {
      "inputs": [
        {
          "internalType": "address",
          "name": "_token",
          "type": "address"
        }
      ],
      "name": "recoverLostToken",
      "outputs": [
        {
          "internalType": "bool",
          "name": "",
          "type": "bool"
        }
      ],
      "stateMutability": "nonpayable",
      "type": "function"
    },
    {
      "inputs": [
        {
          "internalType": "address",
          "name": "_recipient",
          "type": "address"
        },
        {
          "internalType": "bool",
          "name": "_stake",
          "type": "bool"
        }
      ],
      "name": "redeem",
      "outputs": [
        {
          "internalType": "uint256",
          "name": "",
          "type": "uint256"
        }
      ],
      "stateMutability": "nonpayable",
      "type": "function"
    },
    {
      "inputs": [],
      "name": "renounceManagement",
      "outputs": [],
      "stateMutability": "nonpayable",
      "type": "function"
    },
    {
      "inputs": [
        {
          "internalType": "bool",
          "name": "_addition",
          "type": "bool"
        },
        {
          "internalType": "uint256",
          "name": "_increment",
          "type": "uint256"
        },
        {
          "internalType": "uint256",
          "name": "_target",
          "type": "uint256"
        },
        {
          "internalType": "uint256",
          "name": "_buffer",
          "type": "uint256"
        }
      ],
      "name": "setAdjustment",
      "outputs": [],
      "stateMutability": "nonpayable",
      "type": "function"
    },
    {
      "inputs": [
        {
          "internalType": "enum TokenBondDepository.PARAMETER",
          "name": "_parameter",
          "type": "uint8"
        },
        {
          "internalType": "uint256",
          "name": "_input",
          "type": "uint256"
        }
      ],
      "name": "setBondTerms",
      "outputs": [],
      "stateMutability": "nonpayable",
      "type": "function"
    },
    {
      "inputs": [
        {
          "internalType": "address",
          "name": "_DAO",
          "type": "address"
        },
        {
          "internalType": "address",
          "name": "_partnerDAO",
          "type": "address"
        }
      ],
      "name": "setDAOs",
      "outputs": [],
      "stateMutability": "nonpayable",
      "type": "function"
    },
    {
      "inputs": [
        {
          "internalType": "address",
          "name": "_staking",
          "type": "address"
        },
        {
          "internalType": "bool",
          "name": "_helper",
          "type": "bool"
        }
      ],
      "name": "setStaking",
      "outputs": [],
      "stateMutability": "nonpayable",
      "type": "function"
    },
    {
      "inputs": [],
      "name": "staking",
      "outputs": [
        {
          "internalType": "address",
          "name": "",
          "type": "address"
        }
      ],
      "stateMutability": "view",
      "type": "function"
    },
    {
      "inputs": [],
      "name": "stakingHelper",
      "outputs": [
        {
          "internalType": "address",
          "name": "",
          "type": "address"
        }
      ],
      "stateMutability": "view",
      "type": "function"
    },
    {
      "inputs": [],
      "name": "standardizedDebtRatio",
      "outputs": [
        {
          "internalType": "uint256",
          "name": "",
          "type": "uint256"
        }
      ],
      "stateMutability": "view",
      "type": "function"
    },
    {
      "inputs": [],
      "name": "terms",
      "outputs": [
        {
          "internalType": "uint256",
          "name": "controlVariable",
          "type": "uint256"
        },
        {
          "internalType": "uint256",
          "name": "vestingTerm",
          "type": "uint256"
        },
        {
          "internalType": "uint256",
          "name": "minimumPrice",
          "type": "uint256"
        },
        {
          "internalType": "uint256",
          "name": "maxPayout",
          "type": "uint256"
        },
        {
          "internalType": "uint256",
          "name": "maxDebt",
          "type": "uint256"
        },
        {
          "internalType": "uint256",
          "name": "fee",
          "type": "uint256"
        },
        {
          "internalType": "uint256",
          "name": "feePartner",
          "type": "uint256"
        }
      ],
      "stateMutability": "view",
      "type": "function"
    },
    {
      "inputs": [],
      "name": "totalDebt",
      "outputs": [
        {
          "internalType": "uint256",
          "name": "",
          "type": "uint256"
        }
      ],
      "stateMutability": "view",
      "type": "function"
    },
    {
      "inputs": [],
      "name": "treasury",
      "outputs": [
        {
          "internalType": "address",
          "name": "",
          "type": "address"
        }
      ],
      "stateMutability": "view",
      "type": "function"
    },
    {
      "inputs": [],
      "name": "useHelper",
      "outputs": [
        {
          "internalType": "bool",
          "name": "",
          "type": "bool"
        }
      ],
      "stateMutability": "view",
      "type": "function"
    }
  ],
  "transactionHash": "0x7b8dead2cb52c8bd70955464e467e1f3c1d14cc7d7957cadfac56b883e603260",
  "args": [
    "0xDEc41Db0c33F3F6f3cb615449C311ba22D418A8d",
    "0x0ab87046fBb341D058F17CBC4c1133F25a20a52f",
    "0x873ad91fA4F2aA0d557C0919eC3F6c9D240cDd05",
    "0xDe50fb295549EdA934D222e7a24d5A8dd132444F",
    "0x245cc372C84B3645Bf0Ffe6538620B04a217988B",
    "0x986b5e1e1755e3c2440e960477f25201b0a8bbd4"
  ],
  "solcInputHash": "d2d22e8d1038161fe47a54c5c3b60f54",
  "bytecode": "0x60e06040523480156200001157600080fd5b5060405162002a4338038062002a43833981810160405260c08110156200003757600080fd5b50805160208201516040808401516060850151608086015160a090960151600080546001600160a01b031916331780825594519697959693959294929391926001600160a01b0316917fea8258f2d9ddb679928cf34b78cf645b7feda9acc828e4dd82d014eaae270eba908290a36001600160a01b038616620000b957600080fd5b6001600160601b0319606087901b166080526001600160a01b038516620000df57600080fd5b6001600160601b0319606086901b1660a0526001600160a01b0384166200010557600080fd5b6001600160601b0319606085901b1660c0526001600160a01b0383166200012b57600080fd5b600280546001600160a01b0319166001600160a01b038581169190911790915582166200015757600080fd5b600380546001600160a01b0319166001600160a01b038481169190911790915581166200018357600080fd5b600480546001600160a01b039092166001600160a01b0319909216919091179055505050505060805160601c60a05160601c60c05160601c6128146200022f60003980610e7e528061101352806111eb528061121252806112c75250806105e0528061104252806111c8528061124152806115b852508061137c52806113bc52806115535280611579528061173452806119805280611b055280611bea5280611cff52506128146000f3fe608060405234801561001057600080fd5b506004361061021c5760003560e01c8063844b5c7c11610125578063cea55f57116100ad578063d7ccfb0b1161007c578063d7ccfb0b146105b6578063e0176de8146105be578063e392a262146105c6578063f5c2ab5b146105ce578063fc7b9c18146105d65761021c565b8063cea55f5714610538578063d24378eb14610540578063d4d863ce14610548578063d5025625146105765761021c565b806399286b59116100f457806399286b5914610488578063a5ffd19714610490578063b4abccba14610498578063bfce3e0c146104be578063cd1234b3146104ec5761021c565b8063844b5c7c1461043e5780638dbdbe6d14610446578063904b3ece1461047857806398fabd3a146104805761021c565b8063451ee4a1116101a85780635a96ac0a116101775780635a96ac0a1461040157806361d027b314610409578063759076e51461041157806377b81895146104195780637927ebf8146104215761021c565b8063451ee4a11461037857806346f68ee9146103ad5780634cf088d9146103d3578063507930ec146103db5761021c565b80631a3d0068116101ef5780631a3d00681461028f5780631e321a0f146102c05780631feed31f146102e65780632f3f470a146103145780633283ad0e146103305761021c565b8063016a42841461022157806301b88ee8146102455780630505c8c91461027d578063089208d814610285575b600080fd5b6102296105de565b604080516001600160a01b039092168252519081900360200190f35b61026b6004803603602081101561025b57600080fd5b50356001600160a01b0316610602565b60408051918252519081900360200190f35b61022961065b565b61028d61066b565b005b61028d600480360360808110156102a557600080fd5b50803515159060208101359060408101359060600135610702565b61028d600480360360408110156102d657600080fd5b5060ff81351690602001356107fa565b61026b600480360360408110156102fc57600080fd5b506001600160a01b0381351690602001351515610975565b61031c610b6a565b604080519115158252519081900360200190f35b61028d600480360361010081101561034757600080fd5b5080359060208101359060408101359060608101359060808101359060a08101359060c08101359060e00135610b7a565b610380610c2c565b60408051951515865260208601949094528484019290925260608401526080830152519081900360a00190f35b61028d600480360360208110156103c357600080fd5b50356001600160a01b0316610c44565b610229610d31565b61026b600480360360208110156103f157600080fd5b50356001600160a01b0316610d40565b61028d610dd2565b610229610e7c565b61026b610ea0565b610229610ebb565b61026b6004803603602081101561043757600080fd5b5035610eca565b61026b610eef565b61026b6004803603606081101561045c57600080fd5b50803590602081013590604001356001600160a01b0316610f11565b61026b611516565b610229611533565b610229611542565b610229611551565b61031c600480360360208110156104ae57600080fd5b50356001600160a01b0316611575565b61028d600480360360408110156104d457600080fd5b506001600160a01b038135811691602001351661168d565b6105126004803603602081101561050257600080fd5b50356001600160a01b0316611708565b604080519485526020850193909352838301919091526060830152519081900360800190f35b61026b61172f565b61026b6117e7565b61028d6004803603604081101561055e57600080fd5b506001600160a01b0381351690602001351515611860565b61057e611923565b604080519788526020880196909652868601949094526060860192909252608085015260a084015260c0830152519081900360e00190f35b61026b61193b565b61026b61196c565b61026b611a09565b61026b611a4e565b61026b611a54565b7f000000000000000000000000000000000000000000000000000000000000000081565b60008061060e83610d40565b6001600160a01b038416600090815260136020526040902054909150612710821061063b57809250610654565b61065161271061064b8385611a5a565b90611aba565b92505b5050919050565b6000546001600160a01b03165b90565b6000546001600160a01b031633146106b8576040805162461bcd60e51b8152602060048201819052602482015260008051602061274e833981519152604482015290519081900360640190fd5b600080546040516001600160a01b03909116907fea8258f2d9ddb679928cf34b78cf645b7feda9acc828e4dd82d014eaae270eba908390a3600080546001600160a01b0319169055565b6000546001600160a01b0316331461074f576040805162461bcd60e51b8152602060048201819052602482015260008051602061274e833981519152604482015290519081900360640190fd5b600754610765906103e89061064b906019611a5a565b8311156107af576040805162461bcd60e51b8152602060048201526013602482015272496e6372656d656e7420746f6f206c6172676560681b604482015290519081900360640190fd5b6040805160a0810182529415158086526020860185905290850183905260608501829052436080909501859052600e805460ff19169091179055600f92909255601055601155601255565b6000546001600160a01b03163314610847576040805162461bcd60e51b8152602060048201819052602482015260008051602061274e833981519152604482015290519081900360640190fd5b600082600481111561085557fe5b14156108a65761271081101561089c5760405162461bcd60e51b81526004018080602001828103825260248152602001806127916024913960400191505060405180910390fd5b6008819055610971565b60018260048111156108b457fe5b141561091b576103e8811115610911576040805162461bcd60e51b815260206004820181905260248201527f5061796f75742063616e6e6f742062652061626f766520312070657263656e74604482015290519081900360640190fd5b600a819055610971565b600282600481111561092957fe5b141561093957600b819055610971565b600382600481111561094757fe5b141561095757600c819055610971565b600482600481111561096557fe5b141561097157600d8190555b5050565b600061097f612684565b506001600160a01b0383166000908152601360209081526040808320815160808101835281548152600182015493810193909352600281015491830191909152600301546060820152906109d285610d40565b90506127108110610a62576001600160a01b03851660008181526013602090815260408083208381556001810184905560028101849055600301839055855181519081529182019290925281517f51c99f515c87b0d95ba97f616edd182e8f161c4932eac17c6fefe9dab58b77b1929181900390910190a2610a5985858460000151611afc565b92505050610b64565b8151600090610a79906127109061064b9085611a5a565b90506040518060800160405280610a9d838660000151611e0090919063ffffffff16565b8152602001610ac7610abc866040015143611e0090919063ffffffff16565b602087015190611e00565b8152436020808301919091526060808701516040938401526001600160a01b038a166000818152601384528490208551808255868501516001830155868601516002830155959092015160039092019190915582518581529182019390935281517f51c99f515c87b0d95ba97f616edd182e8f161c4932eac17c6fefe9dab58b77b1929181900390910190a2610b5e868683611afc565b93505050505b92915050565b600654600160a01b900460ff1681565b6000546001600160a01b03163314610bc7576040805162461bcd60e51b8152602060048201819052602482015260008051602061274e833981519152604482015290519081900360640190fd5b6040805160e08101825289815260208101899052908101879052606081018690526080810185905260a0810183905260c001819052600797909755600895909555600993909355600a91909155600b55600c91909155600d9190915560145543601555565b600e54600f5460105460115460125460ff9094169385565b6000546001600160a01b03163314610c91576040805162461bcd60e51b8152602060048201819052602482015260008051602061274e833981519152604482015290519081900360640190fd5b6001600160a01b038116610cd65760405162461bcd60e51b81526004018080602001828103825260268152602001806126bf6026913960400191505060405180910390fd5b600080546040516001600160a01b03808516939216917fea8258f2d9ddb679928cf34b78cf645b7feda9acc828e4dd82d014eaae270eba91a3600180546001600160a01b0319166001600160a01b0392909216919091179055565b6005546001600160a01b031681565b6000610d4a612684565b506001600160a01b03821660009081526013602090815260408083208151608081018352815481526001820154938101939093526002810154918301829052600301546060830152909190610da0904390611e00565b60208301519091508015610dc557610dbe8161064b84612710611a5a565b9350610dca565b600093505b505050919050565b6001546001600160a01b03163314610e1b5760405162461bcd60e51b81526004018080602001828103825260228152602001806126e56022913960400191505060405180910390fd5b600154600080546040516001600160a01b0393841693909116917faa151555690c956fc3ea32f106bb9f119b5237a061eaa8557cff3e51e3792c8d91a3600154600080546001600160a01b0319166001600160a01b03909216919091179055565b7f000000000000000000000000000000000000000000000000000000000000000081565b6000610eb6610ead611a09565b60145490611e00565b905090565b6006546001600160a01b031681565b6000610b64655af3107a400061064b610eea85610ee561193b565b611e42565b611fb9565b6000610eb6620f4240610f0b610f036117e7565b610f0b61193b565b90611a5a565b60006001600160a01b038216610f60576040805162461bcd60e51b815260206004820152600f60248201526e496e76616c6964206164647265737360881b604482015290519081900360640190fd5b610f68611fd1565b600b546014541115610fb8576040805162461bcd60e51b815260206004820152601460248201527313585e0818d85c1858da5d1e481c995858da195960621b604482015290519081900360640190fd5b6000610fc2610eef565b90506000610fce611fe5565b90508085101561100f5760405162461bcd60e51b815260040180806020018281038252602381526020018061276e6023913960400191505060405180910390fd5b60007f00000000000000000000000000000000000000000000000000000000000000006001600160a01b031663d1b317e57f0000000000000000000000000000000000000000000000000000000000000000896040518363ffffffff1660e01b815260040180836001600160a01b031681526020018281526020019250505060206040518083038186803b1580156110a657600080fd5b505afa1580156110ba573d6000803e3d6000fd5b505050506040513d60208110156110d057600080fd5b5051905060006110df82610eca565b90506298968081101561112a576040805162461bcd60e51b815260206004820152600e60248201526d109bdb99081d1bdbc81cdb585b1b60921b604482015290519081900360640190fd5b61113261196c565b811115611177576040805162461bcd60e51b815260206004820152600e60248201526d426f6e6420746f6f206c6172676560901b604482015290519081900360640190fd5b600061119761271061064b60076005015485611a5a90919063ffffffff16565b905060006111b961271061064b60076006015486611a5a90919063ffffffff16565b90506112106001600160a01b037f000000000000000000000000000000000000000000000000000000000000000016337f00000000000000000000000000000000000000000000000000000000000000008d61201f565b7f00000000000000000000000000000000000000000000000000000000000000006001600160a01b03166356a07a3b7f0000000000000000000000000000000000000000000000000000000000000000866040518363ffffffff1660e01b815260040180836001600160a01b0316815260200182815260200192505050600060405180830381600087803b1580156112a757600080fd5b505af11580156112bb573d6000803e3d6000fd5b50506001600160a01b037f0000000000000000000000000000000000000000000000000000000000000000169150636a20de92905030611305846112ff888861207f565b9061207f565b6040518363ffffffff1660e01b815260040180836001600160a01b0316815260200182815260200192505050600060405180830381600087803b15801561134b57600080fd5b505af115801561135f573d6000803e3d6000fd5b50505050816000146113a5576002546113a5906001600160a01b037f000000000000000000000000000000000000000000000000000000000000000081169116846120d9565b80156113e5576003546113e5906001600160a01b037f000000000000000000000000000000000000000000000000000000000000000081169116836120d9565b6014546113f2908561207f565b601455604080516080810182526001600160a01b038a166000908152601360205291909120548190611424908661207f565b81526008805460208084019190915243604080850182905260609485018c90526001600160a01b038e1660009081526013845281902086518155928601516001840155850151600283015593909201516003909201919091555487916114899161207f565b604080518d8152905186917f1fec6dc81f140574bf43f6b1e420ae1dd47928b9d57db8cbd7b8611063b85ae5919081900360200190a46114c761172f565b6114cf611fe5565b6114d7610eef565b6040517f375b221f40939bfd8f49723a17cf7bc6d576ebf72efe2cc3e991826f5b3f390a90600090a4611508612130565b509098975050505050505050565b6000610eb66305f5e10061064b61152b6117e7565b610f0b61172f565b6002546001600160a01b031681565b6003546001600160a01b031681565b7f000000000000000000000000000000000000000000000000000000000000000081565b60007f00000000000000000000000000000000000000000000000000000000000000006001600160a01b0316826001600160a01b031614156115b657600080fd5b7f00000000000000000000000000000000000000000000000000000000000000006001600160a01b0316826001600160a01b031614156115f557600080fd5b600254604080516370a0823160e01b81523060048201529051611685926001600160a01b0390811692908616916370a0823191602480820192602092909190829003018186803b15801561164857600080fd5b505afa15801561165c573d6000803e3d6000fd5b505050506040513d602081101561167257600080fd5b50516001600160a01b03851691906120d9565b506001919050565b6000546001600160a01b031633146116da576040805162461bcd60e51b8152602060048201819052602482015260008051602061274e833981519152604482015290519081900360640190fd5b600280546001600160a01b039384166001600160a01b03199182161790915560038054929093169116179055565b60136020526000908152604090208054600182015460028301546003909301549192909184565b6000807f00000000000000000000000000000000000000000000000000000000000000006001600160a01b03166318160ddd6040518163ffffffff1660e01b815260040160206040518083038186803b15801561178b57600080fd5b505afa15801561179f573d6000803e3d6000fd5b505050506040513d60208110156117b557600080fd5b505190506117e1670de0b6b3a764000061064b610eea6117db633b9aca00610f0b610ea0565b85611e42565b91505090565b6004805460408051633fabe5a360e21b8152905160009384936001600160a01b03169263feaf968c928183019260a092829003018186803b15801561182b57600080fd5b505afa15801561183f573d6000803e3d6000fd5b505050506040513d60a081101561185557600080fd5b506020015191505090565b6000546001600160a01b031633146118ad576040805162461bcd60e51b8152602060048201819052602482015260008051602061274e833981519152604482015290519081900360640190fd5b6001600160a01b0382166118c057600080fd5b80156118f55760068054600160a01b60ff60a01b19909116176001600160a01b0319166001600160a01b038416179055610971565b6006805460ff60a01b19169055600580546001600160a01b0384166001600160a01b03199091161790555050565b600754600854600954600a54600b54600c54600d5487565b6000611958620186a061064b61194f61172f565b60075490611a5a565b600954909150811015610668575060095490565b6000610eb6620186a061064b6007600301547f00000000000000000000000000000000000000000000000000000000000000006001600160a01b03166318160ddd6040518163ffffffff1660e01b815260040160206040518083038186803b1580156119d757600080fd5b505afa1580156119eb573d6000803e3d6000fd5b505050506040513d6020811015611a0157600080fd5b505190611a5a565b600080611a2160155443611e0090919063ffffffff16565b600854601454919250611a389161064b9084611a5a565b9150601454821115611a4a5760145491505b5090565b60155481565b60145481565b600082611a6957506000610b64565b82820282848281611a7657fe5b0414611ab35760405162461bcd60e51b815260040180806020018281038252602181526020018061272d6021913960400191505060405180910390fd5b9392505050565b6000611ab383836040518060400160405280601a81526020017f536166654d6174683a206469766973696f6e206279207a65726f000000000000815250612210565b600082611bac577f00000000000000000000000000000000000000000000000000000000000000006001600160a01b031663a9059cbb85846040518363ffffffff1660e01b815260040180836001600160a01b0316815260200182815260200192505050602060405180830381600087803b158015611b7a57600080fd5b505af1158015611b8e573d6000803e3d6000fd5b505050506040513d6020811015611ba457600080fd5b50611df99050565b600654600160a01b900460ff1615611cd3576006546040805163095ea7b360e01b81526001600160a01b0392831660048201526024810185905290517f00000000000000000000000000000000000000000000000000000000000000009092169163095ea7b3916044808201926020929091908290030181600087803b158015611c3557600080fd5b505af1158015611c49573d6000803e3d6000fd5b505050506040513d6020811015611c5f57600080fd5b505060065460408051637acb775760e01b8152600481018590526001600160a01b03878116602483015291519190921691637acb775791604480830192600092919082900301818387803b158015611cb657600080fd5b505af1158015611cca573d6000803e3d6000fd5b50505050611df9565b6005546040805163095ea7b360e01b81526001600160a01b0392831660048201526024810185905290517f00000000000000000000000000000000000000000000000000000000000000009092169163095ea7b3916044808201926020929091908290030181600087803b158015611d4a57600080fd5b505af1158015611d5e573d6000803e3d6000fd5b505050506040513d6020811015611d7457600080fd5b505060055460408051637acb775760e01b8152600481018590526001600160a01b03878116602483015291519190921691637acb77579160448083019260209291908290030181600087803b158015611dcc57600080fd5b505af1158015611de0573d6000803e3d6000fd5b505050506040513d6020811015611df657600080fd5b50505b5092915050565b6000611ab383836040518060400160405280601e81526020017f536166654d6174683a207375627472616374696f6e206f766572666c6f7700008152506122b2565b611e4a6126ac565b60008211611e895760405162461bcd60e51b81526004018080602001828103825260268152602001806127076026913960400191505060405180910390fd5b82611ea35750604080516020810190915260008152610b64565b71ffffffffffffffffffffffffffffffffffff8311611f4a57600082607085901b81611ecb57fe5b0490506001600160e01b03811115611f2a576040805162461bcd60e51b815260206004820152601e60248201527f4669786564506f696e743a3a6672616374696f6e3a206f766572666c6f770000604482015290519081900360640190fd5b6040518060200160405280826001600160e01b0316815250915050610b64565b6000611f5b84600160701b8561230c565b90506001600160e01b03811115611f2a576040805162461bcd60e51b815260206004820152601e60248201527f4669786564506f696e743a3a6672616374696f6e3a206f766572666c6f770000604482015290519081900360640190fd5b516612725dd1d243ab6001600160e01b039091160490565b611fdc610ead611a09565b60145543601555565b6000611ff9620186a061064b61194f61172f565b60095490915081101561200f5750600954610668565b6009541561066857600060095590565b604080516001600160a01b0380861660248301528416604482015260648082018490528251808303909101815260849091019091526020810180516001600160e01b03166323b872dd60e01b1790526120799085906123ac565b50505050565b600082820183811015611ab3576040805162461bcd60e51b815260206004820152601b60248201527f536166654d6174683a206164646974696f6e206f766572666c6f770000000000604482015290519081900360640190fd5b604080516001600160a01b038416602482015260448082018490528251808303909101815260649091019091526020810180516001600160e01b031663a9059cbb60e01b17905261212b9084906123ac565b505050565b601154601254600091612143919061207f565b600f54909150158015906121575750804310155b1561220d57600754600e5460ff161561219157600f546007546121799161207f565b60078190556010541161218c576000600f555b6121b3565b600f546007546121a091611e00565b6007819055601054106121b3576000600f555b43601255600754600f54600e546040805185815260208101949094528381019290925260ff1615156060830152517fb923e581a0f83128e9e1d8297aa52b18d6744310476e0b54509c054cd7a93b2a9181900360800190a1505b50565b6000818361229c5760405162461bcd60e51b81526004018080602001828103825283818151815260200191508051906020019080838360005b83811015612261578181015183820152602001612249565b50505050905090810190601f16801561228e5780820380516001836020036101000a031916815260200191505b509250505060405180910390fd5b5060008385816122a857fe5b0495945050505050565b600081848411156123045760405162461bcd60e51b8152602060048201818152835160248401528351909283926044909101919085019080838360008315612261578181015183820152602001612249565b505050900390565b600080600061231b868661245d565b915091506000848061232957fe5b86880990508281111561233d576001820391505b8083039250848210612396576040805162461bcd60e51b815260206004820152601a60248201527f46756c6c4d6174683a3a6d756c4469763a206f766572666c6f77000000000000604482015290519081900360640190fd5b6123a183838761248a565b979650505050505050565b6060612401826040518060400160405280602081526020017f5361666545524332303a206c6f772d6c6576656c2063616c6c206661696c6564815250856001600160a01b03166124fa9092919063ffffffff16565b80519091501561212b5780806020019051602081101561242057600080fd5b505161212b5760405162461bcd60e51b815260040180806020018281038252602a8152602001806127b5602a913960400191505060405180910390fd5b6000808060001984860990508385029250828103915082811015612482576001820391505b509250929050565b6000818103821680838161249a57fe5b0492508085816124a657fe5b0494508081600003816124b557fe5b60028581038087028203028087028203028087028203028087028203028087028203028087028203029586029003909402930460010193909302939093010292915050565b60606125098484600085612511565b949350505050565b606061251c8561267e565b61256d576040805162461bcd60e51b815260206004820152601d60248201527f416464726573733a2063616c6c20746f206e6f6e2d636f6e7472616374000000604482015290519081900360640190fd5b60006060866001600160a01b031685876040518082805190602001908083835b602083106125ac5780518252601f19909201916020918201910161258d565b6001836020036101000a03801982511681845116808217855250505050505090500191505060006040518083038185875af1925050503d806000811461260e576040519150601f19603f3d011682016040523d82523d6000602084013e612613565b606091505b509150915081156126275791506125099050565b8051156126375780518082602001fd5b60405162461bcd60e51b8152602060048201818152865160248401528651879391928392604401919085019080838360008315612261578181015183820152602001612249565b3b151590565b6040518060800160405280600081526020016000815260200160008152602001600081525090565b6040805160208101909152600081529056fe4f776e61626c653a206e6577206f776e657220697320746865207a65726f20616464726573734f776e61626c653a206d757374206265206e6577206f776e657220746f2070756c6c4669786564506f696e743a3a6672616374696f6e3a206469766973696f6e206279207a65726f536166654d6174683a206d756c7469706c69636174696f6e206f766572666c6f774f776e61626c653a2063616c6c6572206973206e6f7420746865206f776e6572536c697070616765206c696d69743a206d6f7265207468616e206d617820707269636556657374696e67206d757374206265206c6f6e676572207468616e20333620686f7572735361666545524332303a204552433230206f7065726174696f6e20646964206e6f742073756363656564a264697066735822122038e726c31dc175b4d4f584e4f8bc93ab04b309316c36ef7091282a0a503947d664736f6c63430007050033",
  "devdoc": {
    "kind": "dev",
    "methods": {
      "bondPrice()": {
        "returns": {
          "price_": "uint"
        }
      },
      "bondPriceInUSD()": {
        "returns": {
          "price_": "uint"
        }
      },
      "currentDebt()": {
        "returns": {
          "_0": "uint"
        }
      },
      "debtDecay()": {
        "returns": {
          "decay_": "uint"
        }
      },
      "debtRatio()": {
        "returns": {
          "debtRatio_": "uint"
        }
      },
      "deposit(uint256,uint256,address)": {
        "params": {
          "_amount": "uint",
          "_depositor": "address",
          "_maxPrice": "uint"
        },
        "returns": {
          "_0": "uint"
        }
      },
      "initializeBondTerms(uint256,uint256,uint256,uint256,uint256,uint256,uint256,uint256)": {
        "params": {
          "_controlVariable": "uint",
          "_initialDebt": "uint",
          "_maxDebt": "uint",
          "_maxPayout": "uint",
          "_minimumPrice": "uint",
          "_vestingTerm": "uint"
        }
      },
      "maxPayout()": {
        "returns": {
          "_0": "uint"
        }
      },
      "payoutFor(uint256)": {
        "params": {
          "_value": "uint"
        },
        "returns": {
          "_0": "uint"
        }
      },
      "pendingPayoutFor(address)": {
        "params": {
          "_depositor": "address"
        },
        "returns": {
          "pendingPayout_": "uint"
        }
      },
      "percentVestedFor(address)": {
        "params": {
          "_depositor": "address"
        },
        "returns": {
          "percentVested_": "uint"
        }
      },
      "recoverLostToken(address)": {
        "returns": {
          "_0": "bool"
        }
      },
      "redeem(address,bool)": {
        "params": {
          "_recipient": "address",
          "_stake": "bool"
        },
        "returns": {
          "_0": "uint"
        }
      },
      "setAdjustment(bool,uint256,uint256,uint256)": {
        "params": {
          "_addition": "bool",
          "_buffer": "uint",
          "_increment": "uint",
          "_target": "uint"
        }
      },
      "setBondTerms(uint8,uint256)": {
        "params": {
          "_input": "uint",
          "_parameter": "PARAMETER"
        }
      },
      "setStaking(address,bool)": {
        "params": {
          "_helper": "bool",
          "_staking": "address"
        }
      },
      "standardizedDebtRatio()": {
        "returns": {
          "_0": "uint"
        }
      }
    },
    "version": 1
  },
  "userdoc": {
    "kind": "user",
    "methods": {
      "assetPrice()": {
        "notice": "get asset price from chainlink"
      },
      "bondPrice()": {
        "notice": "calculate current bond premium"
      },
      "bondPriceInUSD()": {
        "notice": "converts bond price to DAI value"
      },
      "currentDebt()": {
        "notice": "calculate debt factoring in decay"
      },
      "debtDecay()": {
        "notice": "amount to decay total debt by"
      },
      "debtRatio()": {
        "notice": "calculate current ratio of debt to LOBI supply"
      },
      "deposit(uint256,uint256,address)": {
        "notice": "deposit bond"
      },
      "initializeBondTerms(uint256,uint256,uint256,uint256,uint256,uint256,uint256,uint256)": {
        "notice": "initializes bond parameters"
      },
      "maxPayout()": {
        "notice": "determine maximum bond size"
      },
      "payoutFor(uint256)": {
        "notice": "calculate interest due for new bond"
      },
      "pendingPayoutFor(address)": {
        "notice": "calculate amount of LOBI available for claim by depositor"
      },
      "percentVestedFor(address)": {
        "notice": "calculate how far into vesting a depositor is"
      },
      "recoverLostToken(address)": {
        "notice": "allow anyone to send lost tokens (excluding principle or LOBI) to the DAO"
      },
      "redeem(address,bool)": {
        "notice": "redeem bond for user"
      },
      "setAdjustment(bool,uint256,uint256,uint256)": {
        "notice": "set control variable adjustment"
      },
      "setBondTerms(uint8,uint256)": {
        "notice": "set parameters for new bonds"
      },
      "setStaking(address,bool)": {
        "notice": "set contract for auto stake"
      },
      "standardizedDebtRatio()": {
        "notice": "debt ratio in same terms as reserve bonds"
      }
    },
    "version": 1
  },
  "storageLayout": {
    "storage": [
      {
        "astId": 22,
        "contract": "contracts/TokenBondDepository.sol:TokenBondDepository",
        "label": "_owner",
        "offset": 0,
        "slot": "0",
        "type": "t_address"
      },
      {
        "astId": 24,
        "contract": "contracts/TokenBondDepository.sol:TokenBondDepository",
        "label": "_newOwner",
        "offset": 0,
        "slot": "1",
        "type": "t_address"
      },
      {
        "astId": 2312,
        "contract": "contracts/TokenBondDepository.sol:TokenBondDepository",
        "label": "DAO",
        "offset": 0,
        "slot": "2",
        "type": "t_address"
      },
      {
        "astId": 2314,
        "contract": "contracts/TokenBondDepository.sol:TokenBondDepository",
        "label": "partnerDAO",
        "offset": 0,
        "slot": "3",
        "type": "t_address"
      },
      {
        "astId": 2316,
        "contract": "contracts/TokenBondDepository.sol:TokenBondDepository",
        "label": "priceFeed",
        "offset": 0,
        "slot": "4",
        "type": "t_contract(AggregatorV3Interface)2205"
      },
      {
        "astId": 2318,
        "contract": "contracts/TokenBondDepository.sol:TokenBondDepository",
        "label": "staking",
        "offset": 0,
        "slot": "5",
        "type": "t_address"
      },
      {
        "astId": 2320,
        "contract": "contracts/TokenBondDepository.sol:TokenBondDepository",
        "label": "stakingHelper",
        "offset": 0,
        "slot": "6",
        "type": "t_address"
      },
      {
        "astId": 2322,
        "contract": "contracts/TokenBondDepository.sol:TokenBondDepository",
        "label": "useHelper",
        "offset": 20,
        "slot": "6",
        "type": "t_bool"
      },
      {
        "astId": 2324,
        "contract": "contracts/TokenBondDepository.sol:TokenBondDepository",
        "label": "terms",
        "offset": 0,
        "slot": "7",
        "type": "t_struct(Terms)2349_storage"
      },
      {
        "astId": 2326,
        "contract": "contracts/TokenBondDepository.sol:TokenBondDepository",
        "label": "adjustment",
        "offset": 0,
        "slot": "14",
        "type": "t_struct(Adjust)2369_storage"
      },
      {
        "astId": 2330,
        "contract": "contracts/TokenBondDepository.sol:TokenBondDepository",
        "label": "bondInfo",
        "offset": 0,
        "slot": "19",
        "type": "t_mapping(t_address,t_struct(Bond)2358_storage)"
      },
      {
        "astId": 2332,
        "contract": "contracts/TokenBondDepository.sol:TokenBondDepository",
        "label": "totalDebt",
        "offset": 0,
        "slot": "20",
        "type": "t_uint256"
      },
      {
        "astId": 2334,
        "contract": "contracts/TokenBondDepository.sol:TokenBondDepository",
        "label": "lastDecay",
        "offset": 0,
        "slot": "21",
        "type": "t_uint256"
      }
    ],
    "types": {
      "t_address": {
        "encoding": "inplace",
        "label": "address",
        "numberOfBytes": "20"
      },
      "t_bool": {
        "encoding": "inplace",
        "label": "bool",
        "numberOfBytes": "1"
      },
      "t_contract(AggregatorV3Interface)2205": {
        "encoding": "inplace",
        "label": "contract AggregatorV3Interface",
        "numberOfBytes": "20"
      },
      "t_mapping(t_address,t_struct(Bond)2358_storage)": {
        "encoding": "mapping",
        "key": "t_address",
        "label": "mapping(address => struct TokenBondDepository.Bond)",
        "numberOfBytes": "32",
        "value": "t_struct(Bond)2358_storage"
      },
      "t_struct(Adjust)2369_storage": {
        "encoding": "inplace",
        "label": "struct TokenBondDepository.Adjust",
        "members": [
          {
            "astId": 2360,
            "contract": "contracts/TokenBondDepository.sol:TokenBondDepository",
            "label": "add",
            "offset": 0,
            "slot": "0",
            "type": "t_bool"
          },
          {
            "astId": 2362,
            "contract": "contracts/TokenBondDepository.sol:TokenBondDepository",
            "label": "rate",
            "offset": 0,
            "slot": "1",
            "type": "t_uint256"
          },
          {
            "astId": 2364,
            "contract": "contracts/TokenBondDepository.sol:TokenBondDepository",
            "label": "target",
            "offset": 0,
            "slot": "2",
            "type": "t_uint256"
          },
          {
            "astId": 2366,
            "contract": "contracts/TokenBondDepository.sol:TokenBondDepository",
            "label": "buffer",
            "offset": 0,
            "slot": "3",
            "type": "t_uint256"
          },
          {
            "astId": 2368,
            "contract": "contracts/TokenBondDepository.sol:TokenBondDepository",
            "label": "lastBlock",
            "offset": 0,
            "slot": "4",
            "type": "t_uint256"
          }
        ],
        "numberOfBytes": "160"
      },
      "t_struct(Bond)2358_storage": {
        "encoding": "inplace",
        "label": "struct TokenBondDepository.Bond",
        "members": [
          {
            "astId": 2351,
            "contract": "contracts/TokenBondDepository.sol:TokenBondDepository",
            "label": "payout",
            "offset": 0,
            "slot": "0",
            "type": "t_uint256"
          },
          {
            "astId": 2353,
            "contract": "contracts/TokenBondDepository.sol:TokenBondDepository",
            "label": "vesting",
            "offset": 0,
            "slot": "1",
            "type": "t_uint256"
          },
          {
            "astId": 2355,
            "contract": "contracts/TokenBondDepository.sol:TokenBondDepository",
            "label": "lastBlock",
            "offset": 0,
            "slot": "2",
            "type": "t_uint256"
          },
          {
            "astId": 2357,
            "contract": "contracts/TokenBondDepository.sol:TokenBondDepository",
            "label": "pricePaid",
            "offset": 0,
            "slot": "3",
            "type": "t_uint256"
          }
        ],
        "numberOfBytes": "128"
      },
      "t_struct(Terms)2349_storage": {
        "encoding": "inplace",
        "label": "struct TokenBondDepository.Terms",
        "members": [
          {
            "astId": 2336,
            "contract": "contracts/TokenBondDepository.sol:TokenBondDepository",
            "label": "controlVariable",
            "offset": 0,
            "slot": "0",
            "type": "t_uint256"
          },
          {
            "astId": 2338,
            "contract": "contracts/TokenBondDepository.sol:TokenBondDepository",
            "label": "vestingTerm",
            "offset": 0,
            "slot": "1",
            "type": "t_uint256"
          },
          {
            "astId": 2340,
            "contract": "contracts/TokenBondDepository.sol:TokenBondDepository",
            "label": "minimumPrice",
            "offset": 0,
            "slot": "2",
            "type": "t_uint256"
          },
          {
            "astId": 2342,
            "contract": "contracts/TokenBondDepository.sol:TokenBondDepository",
            "label": "maxPayout",
            "offset": 0,
            "slot": "3",
            "type": "t_uint256"
          },
          {
            "astId": 2344,
            "contract": "contracts/TokenBondDepository.sol:TokenBondDepository",
            "label": "maxDebt",
            "offset": 0,
            "slot": "4",
            "type": "t_uint256"
          },
          {
            "astId": 2346,
            "contract": "contracts/TokenBondDepository.sol:TokenBondDepository",
            "label": "fee",
            "offset": 0,
            "slot": "5",
            "type": "t_uint256"
          },
          {
            "astId": 2348,
            "contract": "contracts/TokenBondDepository.sol:TokenBondDepository",
            "label": "feePartner",
            "offset": 0,
            "slot": "6",
            "type": "t_uint256"
          }
        ],
        "numberOfBytes": "224"
      },
      "t_uint256": {
        "encoding": "inplace",
        "label": "uint256",
        "numberOfBytes": "32"
      }
    }
  }
}